{
    "abi": [
        {
            "type": "constructor",
            "inputs": [
                {
                    "name": "_manager",
                    "type": "address",
                    "internalType": "contract IPoolManager"
                },
                {
                    "name": "_uri",
                    "type": "string",
                    "internalType": "string"
                }
            ],
            "stateMutability": "nonpayable"
        },
        {
            "type": "function",
            "name": "afterAddLiquidity",
            "inputs": [
                {
                    "name": "",
                    "type": "address",
                    "internalType": "address"
                },
                {
                    "name": "",
                    "type": "tuple",
                    "internalType": "struct PoolKey",
                    "components": [
                        {
                            "name": "currency0",
                            "type": "address",
                            "internalType": "Currency"
                        },
                        {
                            "name": "currency1",
                            "type": "address",
                            "internalType": "Currency"
                        },
                        {
                            "name": "fee",
                            "type": "uint24",
                            "internalType": "uint24"
                        },
                        {
                            "name": "tickSpacing",
                            "type": "int24",
                            "internalType": "int24"
                        },
                        {
                            "name": "hooks",
                            "type": "address",
                            "internalType": "contract IHooks"
                        }
                    ]
                },
                {
                    "name": "",
                    "type": "tuple",
                    "internalType": "struct IPoolManager.ModifyLiquidityParams",
                    "components": [
                        {
                            "name": "tickLower",
                            "type": "int24",
                            "internalType": "int24"
                        },
                        {
                            "name": "tickUpper",
                            "type": "int24",
                            "internalType": "int24"
                        },
                        {
                            "name": "liquidityDelta",
                            "type": "int256",
                            "internalType": "int256"
                        },
                        {
                            "name": "salt",
                            "type": "bytes32",
                            "internalType": "bytes32"
                        }
                    ]
                },
                {
                    "name": "",
                    "type": "int256",
                    "internalType": "BalanceDelta"
                },
                {
                    "name": "",
                    "type": "int256",
                    "internalType": "BalanceDelta"
                },
                {
                    "name": "",
                    "type": "bytes",
                    "internalType": "bytes"
                }
            ],
            "outputs": [
                {
                    "name": "",
                    "type": "bytes4",
                    "internalType": "bytes4"
                },
                {
                    "name": "",
                    "type": "int256",
                    "internalType": "BalanceDelta"
                }
            ],
            "stateMutability": "nonpayable"
        },
        {
            "type": "function",
            "name": "afterDonate",
            "inputs": [
                {
                    "name": "",
                    "type": "address",
                    "internalType": "address"
                },
                {
                    "name": "",
                    "type": "tuple",
                    "internalType": "struct PoolKey",
                    "components": [
                        {
                            "name": "currency0",
                            "type": "address",
                            "internalType": "Currency"
                        },
                        {
                            "name": "currency1",
                            "type": "address",
                            "internalType": "Currency"
                        },
                        {
                            "name": "fee",
                            "type": "uint24",
                            "internalType": "uint24"
                        },
                        {
                            "name": "tickSpacing",
                            "type": "int24",
                            "internalType": "int24"
                        },
                        {
                            "name": "hooks",
                            "type": "address",
                            "internalType": "contract IHooks"
                        }
                    ]
                },
                {
                    "name": "",
                    "type": "uint256",
                    "internalType": "uint256"
                },
                {
                    "name": "",
                    "type": "uint256",
                    "internalType": "uint256"
                },
                {
                    "name": "",
                    "type": "bytes",
                    "internalType": "bytes"
                }
            ],
            "outputs": [
                {
                    "name": "",
                    "type": "bytes4",
                    "internalType": "bytes4"
                }
            ],
            "stateMutability": "nonpayable"
        },
        {
            "type": "function",
            "name": "afterInitialize",
            "inputs": [
                {
                    "name": "",
                    "type": "address",
                    "internalType": "address"
                },
                {
                    "name": "key",
                    "type": "tuple",
                    "internalType": "struct PoolKey",
                    "components": [
                        {
                            "name": "currency0",
                            "type": "address",
                            "internalType": "Currency"
                        },
                        {
                            "name": "currency1",
                            "type": "address",
                            "internalType": "Currency"
                        },
                        {
                            "name": "fee",
                            "type": "uint24",
                            "internalType": "uint24"
                        },
                        {
                            "name": "tickSpacing",
                            "type": "int24",
                            "internalType": "int24"
                        },
                        {
                            "name": "hooks",
                            "type": "address",
                            "internalType": "contract IHooks"
                        }
                    ]
                },
                {
                    "name": "",
                    "type": "uint160",
                    "internalType": "uint160"
                },
                {
                    "name": "tick",
                    "type": "int24",
                    "internalType": "int24"
                },
                {
                    "name": "",
                    "type": "bytes",
                    "internalType": "bytes"
                }
            ],
            "outputs": [
                {
                    "name": "",
                    "type": "bytes4",
                    "internalType": "bytes4"
                }
            ],
            "stateMutability": "nonpayable"
        },
        {
            "type": "function",
            "name": "afterRemoveLiquidity",
            "inputs": [
                {
                    "name": "",
                    "type": "address",
                    "internalType": "address"
                },
                {
                    "name": "",
                    "type": "tuple",
                    "internalType": "struct PoolKey",
                    "components": [
                        {
                            "name": "currency0",
                            "type": "address",
                            "internalType": "Currency"
                        },
                        {
                            "name": "currency1",
                            "type": "address",
                            "internalType": "Currency"
                        },
                        {
                            "name": "fee",
                            "type": "uint24",
                            "internalType": "uint24"
                        },
                        {
                            "name": "tickSpacing",
                            "type": "int24",
                            "internalType": "int24"
                        },
                        {
                            "name": "hooks",
                            "type": "address",
                            "internalType": "contract IHooks"
                        }
                    ]
                },
                {
                    "name": "",
                    "type": "tuple",
                    "internalType": "struct IPoolManager.ModifyLiquidityParams",
                    "components": [
                        {
                            "name": "tickLower",
                            "type": "int24",
                            "internalType": "int24"
                        },
                        {
                            "name": "tickUpper",
                            "type": "int24",
                            "internalType": "int24"
                        },
                        {
                            "name": "liquidityDelta",
                            "type": "int256",
                            "internalType": "int256"
                        },
                        {
                            "name": "salt",
                            "type": "bytes32",
                            "internalType": "bytes32"
                        }
                    ]
                },
                {
                    "name": "",
                    "type": "int256",
                    "internalType": "BalanceDelta"
                },
                {
                    "name": "",
                    "type": "int256",
                    "internalType": "BalanceDelta"
                },
                {
                    "name": "",
                    "type": "bytes",
                    "internalType": "bytes"
                }
            ],
            "outputs": [
                {
                    "name": "",
                    "type": "bytes4",
                    "internalType": "bytes4"
                },
                {
                    "name": "",
                    "type": "int256",
                    "internalType": "BalanceDelta"
                }
            ],
            "stateMutability": "nonpayable"
        },
        {
            "type": "function",
            "name": "afterSwap",
            "inputs": [
                {
                    "name": "sender",
                    "type": "address",
                    "internalType": "address"
                },
                {
                    "name": "key",
                    "type": "tuple",
                    "internalType": "struct PoolKey",
                    "components": [
                        {
                            "name": "currency0",
                            "type": "address",
                            "internalType": "Currency"
                        },
                        {
                            "name": "currency1",
                            "type": "address",
                            "internalType": "Currency"
                        },
                        {
                            "name": "fee",
                            "type": "uint24",
                            "internalType": "uint24"
                        },
                        {
                            "name": "tickSpacing",
                            "type": "int24",
                            "internalType": "int24"
                        },
                        {
                            "name": "hooks",
                            "type": "address",
                            "internalType": "contract IHooks"
                        }
                    ]
                },
                {
                    "name": "params",
                    "type": "tuple",
                    "internalType": "struct IPoolManager.SwapParams",
                    "components": [
                        {
                            "name": "zeroForOne",
                            "type": "bool",
                            "internalType": "bool"
                        },
                        {
                            "name": "amountSpecified",
                            "type": "int256",
                            "internalType": "int256"
                        },
                        {
                            "name": "sqrtPriceLimitX96",
                            "type": "uint160",
                            "internalType": "uint160"
                        }
                    ]
                },
                {
                    "name": "",
                    "type": "int256",
                    "internalType": "BalanceDelta"
                },
                {
                    "name": "",
                    "type": "bytes",
                    "internalType": "bytes"
                }
            ],
            "outputs": [
                {
                    "name": "",
                    "type": "bytes4",
                    "internalType": "bytes4"
                },
                {
                    "name": "",
                    "type": "int128",
                    "internalType": "int128"
                }
            ],
            "stateMutability": "nonpayable"
        },
        {
            "type": "function",
            "name": "balanceOf",
            "inputs": [
                {
                    "name": "account",
                    "type": "address",
                    "internalType": "address"
                },
                {
                    "name": "id",
                    "type": "uint256",
                    "internalType": "uint256"
                }
            ],
            "outputs": [
                {
                    "name": "",
                    "type": "uint256",
                    "internalType": "uint256"
                }
            ],
            "stateMutability": "view"
        },
        {
            "type": "function",
            "name": "balanceOfBatch",
            "inputs": [
                {
                    "name": "accounts",
                    "type": "address[]",
                    "internalType": "address[]"
                },
                {
                    "name": "ids",
                    "type": "uint256[]",
                    "internalType": "uint256[]"
                }
            ],
            "outputs": [
                {
                    "name": "",
                    "type": "uint256[]",
                    "internalType": "uint256[]"
                }
            ],
            "stateMutability": "view"
        },
        {
            "type": "function",
            "name": "beforeAddLiquidity",
            "inputs": [
                {
                    "name": "",
                    "type": "address",
                    "internalType": "address"
                },
                {
                    "name": "",
                    "type": "tuple",
                    "internalType": "struct PoolKey",
                    "components": [
                        {
                            "name": "currency0",
                            "type": "address",
                            "internalType": "Currency"
                        },
                        {
                            "name": "currency1",
                            "type": "address",
                            "internalType": "Currency"
                        },
                        {
                            "name": "fee",
                            "type": "uint24",
                            "internalType": "uint24"
                        },
                        {
                            "name": "tickSpacing",
                            "type": "int24",
                            "internalType": "int24"
                        },
                        {
                            "name": "hooks",
                            "type": "address",
                            "internalType": "contract IHooks"
                        }
                    ]
                },
                {
                    "name": "",
                    "type": "tuple",
                    "internalType": "struct IPoolManager.ModifyLiquidityParams",
                    "components": [
                        {
                            "name": "tickLower",
                            "type": "int24",
                            "internalType": "int24"
                        },
                        {
                            "name": "tickUpper",
                            "type": "int24",
                            "internalType": "int24"
                        },
                        {
                            "name": "liquidityDelta",
                            "type": "int256",
                            "internalType": "int256"
                        },
                        {
                            "name": "salt",
                            "type": "bytes32",
                            "internalType": "bytes32"
                        }
                    ]
                },
                {
                    "name": "",
                    "type": "bytes",
                    "internalType": "bytes"
                }
            ],
            "outputs": [
                {
                    "name": "",
                    "type": "bytes4",
                    "internalType": "bytes4"
                }
            ],
            "stateMutability": "nonpayable"
        },
        {
            "type": "function",
            "name": "beforeDonate",
            "inputs": [
                {
                    "name": "",
                    "type": "address",
                    "internalType": "address"
                },
                {
                    "name": "",
                    "type": "tuple",
                    "internalType": "struct PoolKey",
                    "components": [
                        {
                            "name": "currency0",
                            "type": "address",
                            "internalType": "Currency"
                        },
                        {
                            "name": "currency1",
                            "type": "address",
                            "internalType": "Currency"
                        },
                        {
                            "name": "fee",
                            "type": "uint24",
                            "internalType": "uint24"
                        },
                        {
                            "name": "tickSpacing",
                            "type": "int24",
                            "internalType": "int24"
                        },
                        {
                            "name": "hooks",
                            "type": "address",
                            "internalType": "contract IHooks"
                        }
                    ]
                },
                {
                    "name": "",
                    "type": "uint256",
                    "internalType": "uint256"
                },
                {
                    "name": "",
                    "type": "uint256",
                    "internalType": "uint256"
                },
                {
                    "name": "",
                    "type": "bytes",
                    "internalType": "bytes"
                }
            ],
            "outputs": [
                {
                    "name": "",
                    "type": "bytes4",
                    "internalType": "bytes4"
                }
            ],
            "stateMutability": "nonpayable"
        },
        {
            "type": "function",
            "name": "beforeInitialize",
            "inputs": [
                {
                    "name": "",
                    "type": "address",
                    "internalType": "address"
                },
                {
                    "name": "",
                    "type": "tuple",
                    "internalType": "struct PoolKey",
                    "components": [
                        {
                            "name": "currency0",
                            "type": "address",
                            "internalType": "Currency"
                        },
                        {
                            "name": "currency1",
                            "type": "address",
                            "internalType": "Currency"
                        },
                        {
                            "name": "fee",
                            "type": "uint24",
                            "internalType": "uint24"
                        },
                        {
                            "name": "tickSpacing",
                            "type": "int24",
                            "internalType": "int24"
                        },
                        {
                            "name": "hooks",
                            "type": "address",
                            "internalType": "contract IHooks"
                        }
                    ]
                },
                {
                    "name": "",
                    "type": "uint160",
                    "internalType": "uint160"
                },
                {
                    "name": "",
                    "type": "bytes",
                    "internalType": "bytes"
                }
            ],
            "outputs": [
                {
                    "name": "",
                    "type": "bytes4",
                    "internalType": "bytes4"
                }
            ],
            "stateMutability": "nonpayable"
        },
        {
            "type": "function",
            "name": "beforeRemoveLiquidity",
            "inputs": [
                {
                    "name": "",
                    "type": "address",
                    "internalType": "address"
                },
                {
                    "name": "",
                    "type": "tuple",
                    "internalType": "struct PoolKey",
                    "components": [
                        {
                            "name": "currency0",
                            "type": "address",
                            "internalType": "Currency"
                        },
                        {
                            "name": "currency1",
                            "type": "address",
                            "internalType": "Currency"
                        },
                        {
                            "name": "fee",
                            "type": "uint24",
                            "internalType": "uint24"
                        },
                        {
                            "name": "tickSpacing",
                            "type": "int24",
                            "internalType": "int24"
                        },
                        {
                            "name": "hooks",
                            "type": "address",
                            "internalType": "contract IHooks"
                        }
                    ]
                },
                {
                    "name": "",
                    "type": "tuple",
                    "internalType": "struct IPoolManager.ModifyLiquidityParams",
                    "components": [
                        {
                            "name": "tickLower",
                            "type": "int24",
                            "internalType": "int24"
                        },
                        {
                            "name": "tickUpper",
                            "type": "int24",
                            "internalType": "int24"
                        },
                        {
                            "name": "liquidityDelta",
                            "type": "int256",
                            "internalType": "int256"
                        },
                        {
                            "name": "salt",
                            "type": "bytes32",
                            "internalType": "bytes32"
                        }
                    ]
                },
                {
                    "name": "",
                    "type": "bytes",
                    "internalType": "bytes"
                }
            ],
            "outputs": [
                {
                    "name": "",
                    "type": "bytes4",
                    "internalType": "bytes4"
                }
            ],
            "stateMutability": "nonpayable"
        },
        {
            "type": "function",
            "name": "beforeSwap",
            "inputs": [
                {
                    "name": "",
                    "type": "address",
                    "internalType": "address"
                },
                {
                    "name": "",
                    "type": "tuple",
                    "internalType": "struct PoolKey",
                    "components": [
                        {
                            "name": "currency0",
                            "type": "address",
                            "internalType": "Currency"
                        },
                        {
                            "name": "currency1",
                            "type": "address",
                            "internalType": "Currency"
                        },
                        {
                            "name": "fee",
                            "type": "uint24",
                            "internalType": "uint24"
                        },
                        {
                            "name": "tickSpacing",
                            "type": "int24",
                            "internalType": "int24"
                        },
                        {
                            "name": "hooks",
                            "type": "address",
                            "internalType": "contract IHooks"
                        }
                    ]
                },
                {
                    "name": "",
                    "type": "tuple",
                    "internalType": "struct IPoolManager.SwapParams",
                    "components": [
                        {
                            "name": "zeroForOne",
                            "type": "bool",
                            "internalType": "bool"
                        },
                        {
                            "name": "amountSpecified",
                            "type": "int256",
                            "internalType": "int256"
                        },
                        {
                            "name": "sqrtPriceLimitX96",
                            "type": "uint160",
                            "internalType": "uint160"
                        }
                    ]
                },
                {
                    "name": "",
                    "type": "bytes",
                    "internalType": "bytes"
                }
            ],
            "outputs": [
                {
                    "name": "",
                    "type": "bytes4",
                    "internalType": "bytes4"
                },
                {
                    "name": "",
                    "type": "int256",
                    "internalType": "BeforeSwapDelta"
                },
                {
                    "name": "",
                    "type": "uint24",
                    "internalType": "uint24"
                }
            ],
            "stateMutability": "nonpayable"
        },
        {
            "type": "function",
            "name": "cancelOrder",
            "inputs": [
                {
                    "name": "key",
                    "type": "tuple",
                    "internalType": "struct PoolKey",
                    "components": [
                        {
                            "name": "currency0",
                            "type": "address",
                            "internalType": "Currency"
                        },
                        {
                            "name": "currency1",
                            "type": "address",
                            "internalType": "Currency"
                        },
                        {
                            "name": "fee",
                            "type": "uint24",
                            "internalType": "uint24"
                        },
                        {
                            "name": "tickSpacing",
                            "type": "int24",
                            "internalType": "int24"
                        },
                        {
                            "name": "hooks",
                            "type": "address",
                            "internalType": "contract IHooks"
                        }
                    ]
                },
                {
                    "name": "tickToSellAt",
                    "type": "int24",
                    "internalType": "int24"
                },
                {
                    "name": "zeroForOne",
                    "type": "bool",
                    "internalType": "bool"
                }
            ],
            "outputs": [],
            "stateMutability": "nonpayable"
        },
        {
            "type": "function",
            "name": "claimTokensSupply",
            "inputs": [
                {
                    "name": "positionId",
                    "type": "uint256",
                    "internalType": "uint256"
                }
            ],
            "outputs": [
                {
                    "name": "claimsSupply",
                    "type": "uint256",
                    "internalType": "uint256"
                }
            ],
            "stateMutability": "view"
        },
        {
            "type": "function",
            "name": "claimableOutputTokens",
            "inputs": [
                {
                    "name": "positionId",
                    "type": "uint256",
                    "internalType": "uint256"
                }
            ],
            "outputs": [
                {
                    "name": "outputClaimable",
                    "type": "uint256",
                    "internalType": "uint256"
                }
            ],
            "stateMutability": "view"
        },
        {
            "type": "function",
            "name": "getHookPermissions",
            "inputs": [],
            "outputs": [
                {
                    "name": "",
                    "type": "tuple",
                    "internalType": "struct Hooks.Permissions",
                    "components": [
                        {
                            "name": "beforeInitialize",
                            "type": "bool",
                            "internalType": "bool"
                        },
                        {
                            "name": "afterInitialize",
                            "type": "bool",
                            "internalType": "bool"
                        },
                        {
                            "name": "beforeAddLiquidity",
                            "type": "bool",
                            "internalType": "bool"
                        },
                        {
                            "name": "afterAddLiquidity",
                            "type": "bool",
                            "internalType": "bool"
                        },
                        {
                            "name": "beforeRemoveLiquidity",
                            "type": "bool",
                            "internalType": "bool"
                        },
                        {
                            "name": "afterRemoveLiquidity",
                            "type": "bool",
                            "internalType": "bool"
                        },
                        {
                            "name": "beforeSwap",
                            "type": "bool",
                            "internalType": "bool"
                        },
                        {
                            "name": "afterSwap",
                            "type": "bool",
                            "internalType": "bool"
                        },
                        {
                            "name": "beforeDonate",
                            "type": "bool",
                            "internalType": "bool"
                        },
                        {
                            "name": "afterDonate",
                            "type": "bool",
                            "internalType": "bool"
                        },
                        {
                            "name": "beforeSwapReturnDelta",
                            "type": "bool",
                            "internalType": "bool"
                        },
                        {
                            "name": "afterSwapReturnDelta",
                            "type": "bool",
                            "internalType": "bool"
                        },
                        {
                            "name": "afterAddLiquidityReturnDelta",
                            "type": "bool",
                            "internalType": "bool"
                        },
                        {
                            "name": "afterRemoveLiquidityReturnDelta",
                            "type": "bool",
                            "internalType": "bool"
                        }
                    ]
                }
            ],
            "stateMutability": "pure"
        },
        {
            "type": "function",
            "name": "getPositionId",
            "inputs": [
                {
                    "name": "key",
                    "type": "tuple",
                    "internalType": "struct PoolKey",
                    "components": [
                        {
                            "name": "currency0",
                            "type": "address",
                            "internalType": "Currency"
                        },
                        {
                            "name": "currency1",
                            "type": "address",
                            "internalType": "Currency"
                        },
                        {
                            "name": "fee",
                            "type": "uint24",
                            "internalType": "uint24"
                        },
                        {
                            "name": "tickSpacing",
                            "type": "int24",
                            "internalType": "int24"
                        },
                        {
                            "name": "hooks",
                            "type": "address",
                            "internalType": "contract IHooks"
                        }
                    ]
                },
                {
                    "name": "tick",
                    "type": "int24",
                    "internalType": "int24"
                },
                {
                    "name": "zeroForOne",
                    "type": "bool",
                    "internalType": "bool"
                }
            ],
            "outputs": [
                {
                    "name": "",
                    "type": "uint256",
                    "internalType": "uint256"
                }
            ],
            "stateMutability": "pure"
        },
        {
            "type": "function",
            "name": "isApprovedForAll",
            "inputs": [
                {
                    "name": "account",
                    "type": "address",
                    "internalType": "address"
                },
                {
                    "name": "operator",
                    "type": "address",
                    "internalType": "address"
                }
            ],
            "outputs": [
                {
                    "name": "",
                    "type": "bool",
                    "internalType": "bool"
                }
            ],
            "stateMutability": "view"
        },
        {
            "type": "function",
            "name": "lastTicks",
            "inputs": [
                {
                    "name": "poolId",
                    "type": "bytes32",
                    "internalType": "PoolId"
                }
            ],
            "outputs": [
                {
                    "name": "lastTick",
                    "type": "int24",
                    "internalType": "int24"
                }
            ],
            "stateMutability": "view"
        },
        {
            "type": "function",
            "name": "pendingOrders",
            "inputs": [
                {
                    "name": "poolId",
                    "type": "bytes32",
                    "internalType": "PoolId"
                },
                {
                    "name": "tickToSellAt",
                    "type": "int24",
                    "internalType": "int24"
                },
                {
                    "name": "zeroForOne",
                    "type": "bool",
                    "internalType": "bool"
                }
            ],
            "outputs": [
                {
                    "name": "inputAmount",
                    "type": "uint256",
                    "internalType": "uint256"
                }
            ],
            "stateMutability": "view"
        },
        {
            "type": "function",
            "name": "placeOrder",
            "inputs": [
                {
                    "name": "key",
                    "type": "tuple",
                    "internalType": "struct PoolKey",
                    "components": [
                        {
                            "name": "currency0",
                            "type": "address",
                            "internalType": "Currency"
                        },
                        {
                            "name": "currency1",
                            "type": "address",
                            "internalType": "Currency"
                        },
                        {
                            "name": "fee",
                            "type": "uint24",
                            "internalType": "uint24"
                        },
                        {
                            "name": "tickSpacing",
                            "type": "int24",
                            "internalType": "int24"
                        },
                        {
                            "name": "hooks",
                            "type": "address",
                            "internalType": "contract IHooks"
                        }
                    ]
                },
                {
                    "name": "tickToSellAt",
                    "type": "int24",
                    "internalType": "int24"
                },
                {
                    "name": "zeroForOne",
                    "type": "bool",
                    "internalType": "bool"
                },
                {
                    "name": "inputAmount",
                    "type": "uint256",
                    "internalType": "uint256"
                }
            ],
            "outputs": [
                {
                    "name": "",
                    "type": "int24",
                    "internalType": "int24"
                }
            ],
            "stateMutability": "nonpayable"
        },
        {
            "type": "function",
            "name": "poolManager",
            "inputs": [],
            "outputs": [
                {
                    "name": "",
                    "type": "address",
                    "internalType": "contract IPoolManager"
                }
            ],
            "stateMutability": "view"
        },
        {
            "type": "function",
            "name": "redeem",
            "inputs": [
                {
                    "name": "key",
                    "type": "tuple",
                    "internalType": "struct PoolKey",
                    "components": [
                        {
                            "name": "currency0",
                            "type": "address",
                            "internalType": "Currency"
                        },
                        {
                            "name": "currency1",
                            "type": "address",
                            "internalType": "Currency"
                        },
                        {
                            "name": "fee",
                            "type": "uint24",
                            "internalType": "uint24"
                        },
                        {
                            "name": "tickSpacing",
                            "type": "int24",
                            "internalType": "int24"
                        },
                        {
                            "name": "hooks",
                            "type": "address",
                            "internalType": "contract IHooks"
                        }
                    ]
                },
                {
                    "name": "tickToSellAt",
                    "type": "int24",
                    "internalType": "int24"
                },
                {
                    "name": "zeroForOne",
                    "type": "bool",
                    "internalType": "bool"
                },
                {
                    "name": "inputAmountToClaimFor",
                    "type": "uint256",
                    "internalType": "uint256"
                }
            ],
            "outputs": [],
            "stateMutability": "nonpayable"
        },
        {
            "type": "function",
            "name": "safeBatchTransferFrom",
            "inputs": [
                {
                    "name": "from",
                    "type": "address",
                    "internalType": "address"
                },
                {
                    "name": "to",
                    "type": "address",
                    "internalType": "address"
                },
                {
                    "name": "ids",
                    "type": "uint256[]",
                    "internalType": "uint256[]"
                },
                {
                    "name": "values",
                    "type": "uint256[]",
                    "internalType": "uint256[]"
                },
                {
                    "name": "data",
                    "type": "bytes",
                    "internalType": "bytes"
                }
            ],
            "outputs": [],
            "stateMutability": "nonpayable"
        },
        {
            "type": "function",
            "name": "safeTransferFrom",
            "inputs": [
                {
                    "name": "from",
                    "type": "address",
                    "internalType": "address"
                },
                {
                    "name": "to",
                    "type": "address",
                    "internalType": "address"
                },
                {
                    "name": "id",
                    "type": "uint256",
                    "internalType": "uint256"
                },
                {
                    "name": "value",
                    "type": "uint256",
                    "internalType": "uint256"
                },
                {
                    "name": "data",
                    "type": "bytes",
                    "internalType": "bytes"
                }
            ],
            "outputs": [],
            "stateMutability": "nonpayable"
        },
        {
            "type": "function",
            "name": "setApprovalForAll",
            "inputs": [
                {
                    "name": "operator",
                    "type": "address",
                    "internalType": "address"
                },
                {
                    "name": "approved",
                    "type": "bool",
                    "internalType": "bool"
                }
            ],
            "outputs": [],
            "stateMutability": "nonpayable"
        },
        {
            "type": "function",
            "name": "supportsInterface",
            "inputs": [
                {
                    "name": "interfaceId",
                    "type": "bytes4",
                    "internalType": "bytes4"
                }
            ],
            "outputs": [
                {
                    "name": "",
                    "type": "bool",
                    "internalType": "bool"
                }
            ],
            "stateMutability": "view"
        },
        {
            "type": "function",
            "name": "unlockCallback",
            "inputs": [
                {
                    "name": "data",
                    "type": "bytes",
                    "internalType": "bytes"
                }
            ],
            "outputs": [
                {
                    "name": "",
                    "type": "bytes",
                    "internalType": "bytes"
                }
            ],
            "stateMutability": "nonpayable"
        },
        {
            "type": "function",
            "name": "uri",
            "inputs": [
                {
                    "name": "",
                    "type": "uint256",
                    "internalType": "uint256"
                }
            ],
            "outputs": [
                {
                    "name": "",
                    "type": "string",
                    "internalType": "string"
                }
            ],
            "stateMutability": "view"
        },
        {
            "type": "event",
            "name": "ApprovalForAll",
            "inputs": [
                {
                    "name": "account",
                    "type": "address",
                    "indexed": true,
                    "internalType": "address"
                },
                {
                    "name": "operator",
                    "type": "address",
                    "indexed": true,
                    "internalType": "address"
                },
                {
                    "name": "approved",
                    "type": "bool",
                    "indexed": false,
                    "internalType": "bool"
                }
            ],
            "anonymous": false
        },
        {
            "type": "event",
            "name": "TransferBatch",
            "inputs": [
                {
                    "name": "operator",
                    "type": "address",
                    "indexed": true,
                    "internalType": "address"
                },
                {
                    "name": "from",
                    "type": "address",
                    "indexed": true,
                    "internalType": "address"
                },
                {
                    "name": "to",
                    "type": "address",
                    "indexed": true,
                    "internalType": "address"
                },
                {
                    "name": "ids",
                    "type": "uint256[]",
                    "indexed": false,
                    "internalType": "uint256[]"
                },
                {
                    "name": "values",
                    "type": "uint256[]",
                    "indexed": false,
                    "internalType": "uint256[]"
                }
            ],
            "anonymous": false
        },
        {
            "type": "event",
            "name": "TransferSingle",
            "inputs": [
                {
                    "name": "operator",
                    "type": "address",
                    "indexed": true,
                    "internalType": "address"
                },
                {
                    "name": "from",
                    "type": "address",
                    "indexed": true,
                    "internalType": "address"
                },
                {
                    "name": "to",
                    "type": "address",
                    "indexed": true,
                    "internalType": "address"
                },
                {
                    "name": "id",
                    "type": "uint256",
                    "indexed": false,
                    "internalType": "uint256"
                },
                {
                    "name": "value",
                    "type": "uint256",
                    "indexed": false,
                    "internalType": "uint256"
                }
            ],
            "anonymous": false
        },
        {
            "type": "event",
            "name": "URI",
            "inputs": [
                {
                    "name": "value",
                    "type": "string",
                    "indexed": false,
                    "internalType": "string"
                },
                {
                    "name": "id",
                    "type": "uint256",
                    "indexed": true,
                    "internalType": "uint256"
                }
            ],
            "anonymous": false
        },
        {
            "type": "error",
            "name": "ERC1155InsufficientBalance",
            "inputs": [
                {
                    "name": "sender",
                    "type": "address",
                    "internalType": "address"
                },
                {
                    "name": "balance",
                    "type": "uint256",
                    "internalType": "uint256"
                },
                {
                    "name": "needed",
                    "type": "uint256",
                    "internalType": "uint256"
                },
                {
                    "name": "tokenId",
                    "type": "uint256",
                    "internalType": "uint256"
                }
            ]
        },
        {
            "type": "error",
            "name": "ERC1155InvalidApprover",
            "inputs": [
                {
                    "name": "approver",
                    "type": "address",
                    "internalType": "address"
                }
            ]
        },
        {
            "type": "error",
            "name": "ERC1155InvalidArrayLength",
            "inputs": [
                {
                    "name": "idsLength",
                    "type": "uint256",
                    "internalType": "uint256"
                },
                {
                    "name": "valuesLength",
                    "type": "uint256",
                    "internalType": "uint256"
                }
            ]
        },
        {
            "type": "error",
            "name": "ERC1155InvalidOperator",
            "inputs": [
                {
                    "name": "operator",
                    "type": "address",
                    "internalType": "address"
                }
            ]
        },
        {
            "type": "error",
            "name": "ERC1155InvalidReceiver",
            "inputs": [
                {
                    "name": "receiver",
                    "type": "address",
                    "internalType": "address"
                }
            ]
        },
        {
            "type": "error",
            "name": "ERC1155InvalidSender",
            "inputs": [
                {
                    "name": "sender",
                    "type": "address",
                    "internalType": "address"
                }
            ]
        },
        {
            "type": "error",
            "name": "ERC1155MissingApprovalForAll",
            "inputs": [
                {
                    "name": "operator",
                    "type": "address",
                    "internalType": "address"
                },
                {
                    "name": "owner",
                    "type": "address",
                    "internalType": "address"
                }
            ]
        },
        {
            "type": "error",
            "name": "HookNotImplemented",
            "inputs": []
        },
        {
            "type": "error",
            "name": "InvalidOrder",
            "inputs": []
        },
        {
            "type": "error",
            "name": "InvalidPool",
            "inputs": []
        },
        {
            "type": "error",
            "name": "LockFailure",
            "inputs": []
        },
        {
            "type": "error",
            "name": "NotEnoughToClaim",
            "inputs": []
        },
        {
            "type": "error",
            "name": "NotPoolManager",
            "inputs": []
        },
        {
            "type": "error",
            "name": "NotSelf",
            "inputs": []
        },
        {
            "type": "error",
            "name": "NothingToClaim",
            "inputs": []
        }
    ],
    "bytecode": {
        "object": "0x60a060405234801561000f575f80fd5b506040516132ac3803806132ac83398101604081905261002e916102ce565b6001600160a01b038216608052808261004630610058565b506100508161014e565b5050506104db565b61014b81610146604080516101c0810182525f80825260208201819052918101829052606081018290526080810182905260a0810182905260c0810182905260e08101829052610100810182905261012081018290526101408101829052610160810182905261018081018290526101a081019190915250604080516101c0810182525f808252600160208301819052928201819052606082018190526080820181905260a0820181905260c0820181905260e0820192909252610100810182905261012081018290526101408101829052610160810182905261018081018290526101a081019190915290565b61015e565b50565b600261015a8282610421565b5050565b80511515612000831615151415806101825750602081015115156110008316151514155b806101995750604081015115156108008316151514155b806101b05750606081015115156104008316151514155b806101c75750608081015115156102008316151514155b806101de575060a081015115156101008316151514155b806101f4575060c0810151151560808316151514155b8061020a575060e0810151151560408316151514155b806102215750610100810151151560208316151514155b806102385750610120810151151560108316151514155b8061024f5750610140810151151560088316151514155b806102665750610160810151151560048316151514155b8061027d5750610180810151151560028316151514155b8061029457506101a0810151151560018316151514155b1561015a5761015a630732d7b560e51b83815f526001600160a01b03811660045260245ffd5b634e487b7160e01b5f52604160045260245ffd5b5f80604083850312156102df575f80fd5b82516001600160a01b03811681146102f5575f80fd5b60208401519092506001600160401b03811115610310575f80fd5b8301601f81018513610320575f80fd5b80516001600160401b03811115610339576103396102ba565b604051601f8201601f19908116603f011681016001600160401b0381118282101715610367576103676102ba565b60405281815282820160200187101561037e575f80fd5b8160208401602083015e5f602083830101528093505050509250929050565b600181811c908216806103b157607f821691505b6020821081036103cf57634e487b7160e01b5f52602260045260245ffd5b50919050565b601f82111561041c57805f5260205f20601f840160051c810160208510156103fa5750805b601f840160051c820191505b81811015610419575f8155600101610406565b50505b505050565b81516001600160401b0381111561043a5761043a6102ba565b61044e81610448845461039d565b846103d5565b6020601f821160018114610480575f83156104695750848201515b5f19600385901b1c1916600184901b178455610419565b5f84815260208120601f198516915b828110156104af578785015182556020948501946001909201910161048f565b50848210156104cc57868401515f19600387901b60f8161c191681555b50505050600190811b01905550565b608051612d886105245f395f818161053201528181610a320152818161121801528181611b0301528181611c8e01528181611cf501528181611d2e0152611def0152612d885ff3fe608060405234801561000f575f80fd5b50600436106101c5575f3560e01c8063a0dc3f99116100fe578063c4e833ce1161009e578063e4cbfea51161006e578063e4cbfea51461057f578063e985e9c5146105a1578063f242432a146105dc578063fa59cb0c146105ef575f80fd5b8063c4e833ce14610436578063dc4c90d31461052d578063dd02c9641461056c578063e1b4af6914610428575f80fd5b8063a910f80f116100d9578063a910f80f146103c0578063b47b2fb1146103d3578063b5a3391414610409578063b6a8b0fa14610428575f80fd5b8063a0dc3f991461036a578063a22cb4651461037d578063a2dc31b214610390575f80fd5b80633bb76cc1116101695780636c2bbe7e116101445780636c2bbe7e146102fe5780637e8941af1461033157806391dd7346146103575780639f063efc146102fe575f80fd5b80633bb76cc1146102815780634e1273f4146102a0578063575e24b4146102c0575f80fd5b806321d0ee70116101a457806321d0ee7014610232578063259982e5146102325780632eb2c2d61461025e5780633440d82014610273575f80fd5b8062fdd58e146101c957806301ffc9a7146101ef5780630e89341c14610212575b5f80fd5b6101dc6101d7366004611e59565b610602565b6040519081526020015b60405180910390f35b6102026101fd366004611e98565b610629565b60405190151581526020016101e6565b610225610220366004611eb3565b610678565b6040516101e69190611ef8565b610245610240366004611f6e565b61070a565b6040516001600160e01b031990911681526020016101e6565b61027161026c366004612123565b610724565b005b6102456102403660046121d6565b6101dc61028f366004611eb3565b60066020525f908152604090205481565b6102b36102ae366004612230565b6107ae565b6040516101e6919061232f565b6102d36102ce366004612351565b610879565b604080516001600160e01b03199094168452602084019290925262ffffff16908201526060016101e6565b61031161030c3660046123ab565b610895565b604080516001600160e01b031990931683526020830191909152016101e6565b61034461033f366004612459565b6108b0565b60405160029190910b81526020016101e6565b6102256103653660046124a5565b610a25565b6102716103783660046124e4565b610a81565b61027161038b366004612529565b610b9d565b6101dc61039e366004612560565b600460209081525f938452604080852082529284528284209052825290205481565b6102456103ce366004612592565b610bac565b6103e66103e136600461261a565b610bfb565b604080516001600160e01b03199093168352600f9190910b6020830152016101e6565b6101dc610417366004611eb3565b60056020525f908152604090205481565b61024561024036600461267d565b610520604080516101c0810182525f80825260208201819052918101829052606081018290526080810182905260a0810182905260c0810182905260e08101829052610100810182905261012081018290526101408101829052610160810182905261018081018290526101a081019190915250604080516101c0810182525f808252600160208301819052928201819052606082018190526080820181905260a0820181905260c0820181905260e0820192909252610100810182905261012081018290526101408101829052610160810182905261018081018290526101a081019190915290565b6040516101e691906126d7565b6105547f000000000000000000000000000000000000000000000000000000000000000081565b6040516001600160a01b0390911681526020016101e6565b61027161057a366004612459565b610ca1565b61034461058d366004611eb3565b60036020525f908152604090205460020b81565b6102026105af3660046127f8565b6001600160a01b039182165f90815260016020908152604080832093909416825291909152205460ff1690565b6102716105ea366004612824565b610de7565b6101dc6105fd3660046124e4565b610e64565b5f818152602081815260408083206001600160a01b03861684529091529020545b92915050565b5f6001600160e01b03198216636cdb3d1360e11b148061065957506001600160e01b031982166303a24d0760e21b145b8061062357506301ffc9a760e01b6001600160e01b0319831614610623565b6060600280546106879061287c565b80601f01602080910402602001604051908101604052809291908181526020018280546106b39061287c565b80156106fe5780601f106106d5576101008083540402835291602001916106fe565b820191905f5260205f20905b8154815290600101906020018083116106e157829003601f168201915b50505050509050919050565b5f604051630a85dc2960e01b815260040160405180910390fd5b336001600160a01b038616811480159061076357506001600160a01b038087165f9081526001602090815260408083209385168352929052205460ff16155b156107995760405163711bec9160e11b81526001600160a01b038083166004830152871660248201526044015b60405180910390fd5b6107a68686868686610eb7565b505050505050565b606081518351146107df5781518351604051635b05999160e01b815260048101929092526024820152604401610790565b5f835167ffffffffffffffff8111156107fa576107fa611fe5565b604051908082528060200260200182016040528015610823578160200160208202803683370190505b5090505f5b84518110156108715760208082028601015161084c90602080840287010151610602565b82828151811061085e5761085e6128ae565b6020908102919091010152600101610828565b509392505050565b5f805f604051630a85dc2960e01b815260040160405180910390fd5b5f80604051630a85dc2960e01b815260040160405180910390fd5b5f806108cb856108c66080890160608a016128c2565b610f1c565b90508260045f6108ea6108e3368b90038b018b6128ed565b60a0902090565b815260208082019290925260409081015f908120600286900b82528352818120881515825290925281208054909190610924908490612995565b909155505f9050610936878387610e64565b90508360055f8381526020019081526020015f205f8282546109589190612995565b9250508190555061097933828660405180602001604052805f815250610f6c565b5f856109945761098f6040890160208a016129a8565b6109a1565b6109a160208901896129a8565b6040516323b872dd60e01b8152336004820152306024820152604481018790529091506001600160a01b038216906323b872dd906064016020604051808303815f875af11580156109f4573d5f803e3d5ffd5b505050506040513d601f19601f82011682018060405250810190610a1891906129c3565b5091979650505050505050565b6060336001600160a01b037f00000000000000000000000000000000000000000000000000000000000000001614610a705760405163570c108560e11b815260040160405180910390fd5b610a7a8383610fc7565b9392505050565b5f610a96836108c660808701606088016128c2565b90505f610aa4858385610e64565b90505f610ab13383610602565b9050805f03610ad35760405163af61069360e01b815260040160405180910390fd5b8060045f610ae96108e3368b90038b018b6128ed565b815260208082019290925260409081015f908120600288900b82528352818120881515825290925281208054909190610b239084906129de565b90915550505f8281526005602052604081208054839290610b459084906129de565b90915550610b569050338383611060565b5f84610b7157610b6c60408801602089016129a8565b610b7e565b610b7e60208801886129a8565b9050610b946001600160a01b03821633846110c6565b50505050505050565b610ba8338383611162565b5050565b5f83600382610bc36108e3368b90038b018b6128ed565b815260208101919091526040015f20805462ffffff191662ffffff929092169190911790555063a910f80f60e01b9695505050505050565b5f80306001600160a01b03891603610c1e575063b47b2fb160e01b90505f610c96565b60015f5b8115610c4957610c3f89610c3960208b018b6129f1565b156111f6565b9092509050610c22565b8060035f610c5f6108e3368e90038e018e6128ed565b815260208101919091526040015f908120805462ffffff191662ffffff939093169290921790915563b47b2fb160e01b9450925050505b965096945050505050565b5f610cb6846108c660808801606089016128c2565b90505f610cc4868386610e64565b5f8181526006602052604081205491925003610cf3576040516312d37ee560e31b815260040160405180910390fd5b5f610cfe3383610602565b905083811015610d2157604051639378648960e01b815260040160405180910390fd5b5f8281526006602090815260408083205460059092528220549091610d478784846113ae565b90508060065f8781526020019081526020015f205f828254610d6991906129de565b90915550505f8581526005602052604081208054899290610d8b9084906129de565b90915550610d9c9050338689611060565b5f88610db457610daf60208c018c6129a8565b610dc4565b610dc460408c0160208d016129a8565b9050610dda6001600160a01b03821633846110c6565b5050505050505050505050565b336001600160a01b0386168114801590610e2657506001600160a01b038087165f9081526001602090815260408083209385168352929052205460ff16155b15610e575760405163711bec9160e11b81526001600160a01b03808316600483015287166024820152604401610790565b6107a686868686866113c9565b5f610e776108e3368690038601866128ed565b604080516020810192909252600285900b90820152821515606082015260800160408051601f198184030181529190528051602090910120949350505050565b6001600160a01b038416610ee057604051632bfa23e760e11b81525f6004820152602401610790565b6001600160a01b038516610f0857604051626a0d4560e21b81525f6004820152602401610790565b610f158585858585611448565b5050505050565b5f80610f288385612a20565b90505f8460020b128015610f475750610f418385612a58565b60020b15155b15610f5a5780610f5681612a79565b9150505b610f648382612a9a565b949350505050565b6001600160a01b038416610f9557604051632bfa23e760e11b81525f6004820152602401610790565b604080516001808252602082018690528183019081526060820185905260808201909252906107a65f87848487611448565b60605f80306001600160a01b03168585604051610fe5929190612ab9565b5f604051808303815f865af19150503d805f811461101e576040519150601f19603f3d011682016040523d82523d5f602084013e611023565b606091505b509150915081156110375791506106239050565b80515f03611058576040516314815f4760e31b815260040160405180910390fd5b805160208201fd5b6001600160a01b03831661108857604051626a0d4560e21b81525f6004820152602401610790565b604080516001808252602082018590528183019081526060820184905260a082019092525f60808201818152919291610f1591879185908590611448565b5f6001600160a01b0384166110fa575f805f8085875af19050806110f5576110f5638549db5960e01b8461149b565b61115c565b60405163a9059cbb60e01b81526001600160a01b038416600482015282602482015260205f6044835f895af13d15601f3d1160015f511416171691505f81525f60208201525f6040820152508061115c5761115c632c4b17e760e21b8561149b565b50505050565b6001600160a01b03821661118a5760405162ced3e160e81b81525f6004820152602401610790565b6001600160a01b038381165f81815260016020908152604080832094871680845294825291829020805460ff191686151590811790915591519182527f17307eab39ab6107e8899845ad3d59bd9653f200f220920489ca2b5937696c31910160405180910390a3505050565b5f808061123e61120e6108e3368890038801886128ed565b6001600160a01b037f000000000000000000000000000000000000000000000000000000000000000016906114ce565b50509150505f60035f61125b888036038101906108e391906128ed565b815260208101919091526040015f2054600290810b915082900b81121561131857805b8260020b8160020b13611312575f6004816112a16108e3368c90038c018c6128ed565b815260208082019290925260409081015f908120600286900b825283528181208a15158252909252902054905080156112f0576112e088838984611580565b60018495509550505050506113a7565b5061130160808801606089016128c2565b61130b9082612ac8565b905061127e565b506113a0565b805b8260020b8160020b1261139e575f60048161133d6108e3368c90038c018c6128ed565b815260208082019290925260409081015f908120600286900b825283528181208a151582529092529020549050801561137c576112e088838984611580565b5061138d60808801606089016128c2565b6113979082612aed565b905061131a565b505b505f925090505b9250929050565b5f825f1904841183021582026113c2575f80fd5b5091020490565b6001600160a01b0384166113f257604051632bfa23e760e11b81525f6004820152602401610790565b6001600160a01b03851661141a57604051626a0d4560e21b81525f6004820152602401610790565b60408051600180825260208201869052818301908152606082018590526080820190925290610b9487878484875b611454858585856116ac565b6001600160a01b03841615610f15578251339060010361148d57602084810151908401516114868389898585896118bb565b50506107a6565b6107a68187878787876119dc565b3d60405183815282600482015260406024820152816044820152815f606483013e602080601f8401040260640191508181fd5b5f805f805f6114dc86611ac3565b604051631e2eaeaf60e01b8152600481018290529091505f906001600160a01b03891690631e2eaeaf90602401602060405180830381865afa158015611524573d5f803e3d5ffd5b505050506040513d601f19601f820116820180604052508101906115489190612b12565b90506001600160a01b03811695508060a01c60020b945062ffffff8160b81c16935062ffffff8160d01c169250505092959194509250565b5f6115f08560405180606001604052808615158152602001856115a290612b29565b8152602001866115d0576115cb600173fffd8963efd1fc6a506488495d951d5263988d26612b43565b6115e0565b6115e06401000276a36001612b62565b6001600160a01b03169052611aff565b90508160045f6116086108e3368a90038a018a6128ed565b815260208082019290925260409081015f908120600289900b825283528181208715158252909252812080549091906116429084906129de565b909155505f9050611654868686610e64565b90505f8461166e576116668360801d90565b600f0b61167c565b61167883600f0b90565b600f0b5b90508060065f8481526020019081526020015f205f82825461169e9190612995565b909155505050505050505050565b80518251146116db5781518151604051635b05999160e01b815260048101929092526024820152604401610790565b335f5b83518110156117dd576020818102858101820151908501909101516001600160a01b0388161561178f575f828152602081815260408083206001600160a01b038c16845290915290205481811015611769576040516303dee4c560e01b81526001600160a01b038a166004820152602481018290526044810183905260648101849052608401610790565b5f838152602081815260408083206001600160a01b038d16845290915290209082900390555b6001600160a01b038716156117d3575f828152602081815260408083206001600160a01b038b168452909152812080548392906117cd908490612995565b90915550505b50506001016116de565b50825160010361185d5760208301515f906020840151909150856001600160a01b0316876001600160a01b0316846001600160a01b03167fc3d58168c5ae7397731d063d5bbf3d657854427343f4c083240f7aacaa2d0f62858560405161184e929190918252602082015260400190565b60405180910390a45050610f15565b836001600160a01b0316856001600160a01b0316826001600160a01b03167f4a39dc06d4c0dbc64b70af90fd698a233a518aa5d07e595d983b8c0526c8f7fb86866040516118ac929190612b81565b60405180910390a45050505050565b6001600160a01b0384163b156107a65760405163f23a6e6160e01b81526001600160a01b0385169063f23a6e61906118ff9089908990889088908890600401612bae565b6020604051808303815f875af1925050508015611939575060408051601f3d908101601f1916820190925261193691810190612bf5565b60015b6119a0573d808015611966576040519150601f19603f3d011682016040523d82523d5f602084013e61196b565b606091505b5080515f0361199857604051632bfa23e760e11b81526001600160a01b0386166004820152602401610790565b805181602001fd5b6001600160e01b0319811663f23a6e6160e01b14610b9457604051632bfa23e760e11b81526001600160a01b0386166004820152602401610790565b6001600160a01b0384163b156107a65760405163bc197c8160e01b81526001600160a01b0385169063bc197c8190611a209089908990889088908890600401612c10565b6020604051808303815f875af1925050508015611a5a575060408051601f3d908101601f19168201909252611a5791810190612bf5565b60015b611a87573d808015611966576040519150601f19603f3d011682016040523d82523d5f602084013e61196b565b6001600160e01b0319811663bc197c8160e01b14610b9457604051632bfa23e760e11b81526001600160a01b0386166004820152602401610790565b6040515f90611ae2908390600690602001918252602082015260400190565b604051602081830303815290604052805190602001209050919050565b5f807f00000000000000000000000000000000000000000000000000000000000000006001600160a01b031663f3cd914c85856040518363ffffffff1660e01b8152600401611b4f929190612c72565b6020604051808303815f875af1158015611b6b573d5f803e3d5ffd5b505050506040513d601f19601f82011682018060405250810190611b8f9190612b12565b835190915015611c10575f611ba48260801d90565b600f0b1215611bd557611bd5611bbd60208601866129a8565b611bc78360801d90565b611bd090612d25565b611c6f565b5f611be082600f0b90565b600f0b1315611c0b57611c0b611bfc60408601602087016129a8565b611c0683600f0b90565b611db2565b610a7a565b5f611c1b82600f0b90565b600f0b1215611c4157611c41611c3760408601602087016129a8565b611bc783600f0b90565b5f611c4c8260801d90565b600f0b1315610a7a57610a7a611c6560208601866129a8565b611c068360801d90565b604051632961046560e21b81526001600160a01b0383811660048301527f0000000000000000000000000000000000000000000000000000000000000000169063a5841194906024015f604051808303815f87803b158015611ccf575f80fd5b505af1158015611ce1573d5f803e3d5ffd5b50611d2c925050506001600160a01b0383167f00000000000000000000000000000000000000000000000000000000000000006fffffffffffffffffffffffffffffffff84166110c6565b7f00000000000000000000000000000000000000000000000000000000000000006001600160a01b03166311da60b46040518163ffffffff1660e01b81526004016020604051808303815f875af1158015611d89573d5f803e3d5ffd5b505050506040513d601f19601f82011682018060405250810190611dad9190612b12565b505050565b604051630b0d9c0960e01b81526001600160a01b0383811660048301523060248301526fffffffffffffffffffffffffffffffff831660448301527f00000000000000000000000000000000000000000000000000000000000000001690630b0d9c09906064015f604051808303815f87803b158015611e30575f80fd5b505af11580156107a6573d5f803e3d5ffd5b6001600160a01b0381168114611e56575f80fd5b50565b5f8060408385031215611e6a575f80fd5b8235611e7581611e42565b946020939093013593505050565b6001600160e01b031981168114611e56575f80fd5b5f60208284031215611ea8575f80fd5b8135610a7a81611e83565b5f60208284031215611ec3575f80fd5b5035919050565b5f81518084528060208401602086015e5f602082860101526020601f19601f83011685010191505092915050565b602081525f610a7a6020830184611eca565b5f60a08284031215611f1a575f80fd5b50919050565b5f60808284031215611f1a575f80fd5b5f8083601f840112611f40575f80fd5b50813567ffffffffffffffff811115611f57575f80fd5b6020830191508360208285010111156113a7575f80fd5b5f805f805f6101608688031215611f83575f80fd5b8535611f8e81611e42565b9450611f9d8760208801611f0a565b9350611fac8760c08801611f20565b925061014086013567ffffffffffffffff811115611fc8575f80fd5b611fd488828901611f30565b969995985093965092949392505050565b634e487b7160e01b5f52604160045260245ffd5b604051601f8201601f1916810167ffffffffffffffff8111828210171561202257612022611fe5565b604052919050565b5f67ffffffffffffffff82111561204357612043611fe5565b5060051b60200190565b5f82601f83011261205c575f80fd5b813561206f61206a8261202a565b611ff9565b8082825260208201915060208360051b860101925085831115612090575f80fd5b602085015b838110156120ad578035835260209283019201612095565b5095945050505050565b5f82601f8301126120c6575f80fd5b813567ffffffffffffffff8111156120e0576120e0611fe5565b6120f3601f8201601f1916602001611ff9565b818152846020838601011115612107575f80fd5b816020850160208301375f918101602001919091529392505050565b5f805f805f60a08688031215612137575f80fd5b853561214281611e42565b9450602086013561215281611e42565b9350604086013567ffffffffffffffff81111561216d575f80fd5b6121798882890161204d565b935050606086013567ffffffffffffffff811115612195575f80fd5b6121a18882890161204d565b925050608086013567ffffffffffffffff8111156121bd575f80fd5b6121c9888289016120b7565b9150509295509295909350565b5f805f805f61010086880312156121eb575f80fd5b85356121f681611e42565b94506122058760208801611f0a565b935060c086013561221581611e42565b925060e086013567ffffffffffffffff811115611fc8575f80fd5b5f8060408385031215612241575f80fd5b823567ffffffffffffffff811115612257575f80fd5b8301601f81018513612267575f80fd5b803561227561206a8261202a565b8082825260208201915060208360051b850101925087831115612296575f80fd5b6020840193505b828410156122c15783356122b081611e42565b82526020938401939091019061229d565b9450505050602083013567ffffffffffffffff8111156122df575f80fd5b6122eb8582860161204d565b9150509250929050565b5f8151808452602084019350602083015f5b82811015612325578151865260209586019590910190600101612307565b5093949350505050565b602081525f610a7a60208301846122f5565b5f60608284031215611f1a575f80fd5b5f805f805f6101408688031215612366575f80fd5b853561237181611e42565b94506123808760208801611f0a565b935061238f8760c08801612341565b925061012086013567ffffffffffffffff811115611fc8575f80fd5b5f805f805f805f6101a0888a0312156123c2575f80fd5b87356123cd81611e42565b96506123dc8960208a01611f0a565b95506123eb8960c08a01611f20565b94506101408801359350610160880135925061018088013567ffffffffffffffff811115612417575f80fd5b6124238a828b01611f30565b989b979a50959850939692959293505050565b8035600281900b8114612447575f80fd5b919050565b8015158114611e56575f80fd5b5f805f80610100858703121561246d575f80fd5b6124778686611f0a565b935061248560a08601612436565b925060c08501356124958161244c565b9396929550929360e00135925050565b5f80602083850312156124b6575f80fd5b823567ffffffffffffffff8111156124cc575f80fd5b6124d885828601611f30565b90969095509350505050565b5f805f60e084860312156124f6575f80fd5b6125008585611f0a565b925061250e60a08501612436565b915060c084013561251e8161244c565b809150509250925092565b5f806040838503121561253a575f80fd5b823561254581611e42565b915060208301356125558161244c565b809150509250929050565b5f805f60608486031215612572575f80fd5b8335925061258260208501612436565b9150604084013561251e8161244c565b5f805f805f8061012087890312156125a8575f80fd5b86356125b381611e42565b95506125c28860208901611f0a565b945060c08701356125d281611e42565b93506125e060e08801612436565b925061010087013567ffffffffffffffff8111156125fc575f80fd5b61260889828a01611f30565b979a9699509497509295939492505050565b5f805f805f806101608789031215612630575f80fd5b863561263b81611e42565b955061264a8860208901611f0a565b94506126598860c08901612341565b9350610120870135925061014087013567ffffffffffffffff8111156125fc575f80fd5b5f805f805f806101208789031215612693575f80fd5b863561269e81611e42565b95506126ad8860208901611f0a565b945060c0870135935060e0870135925061010087013567ffffffffffffffff8111156125fc575f80fd5b8151151581526101c0810160208301516126f5602084018215159052565b506040830151612709604084018215159052565b50606083015161271d606084018215159052565b506080830151612731608084018215159052565b5060a083015161274560a084018215159052565b5060c083015161275960c084018215159052565b5060e083015161276d60e084018215159052565b5061010083015161278361010084018215159052565b5061012083015161279961012084018215159052565b506101408301516127af61014084018215159052565b506101608301516127c561016084018215159052565b506101808301516127db61018084018215159052565b506101a08301516127f16101a084018215159052565b5092915050565b5f8060408385031215612809575f80fd5b823561281481611e42565b9150602083013561255581611e42565b5f805f805f60a08688031215612838575f80fd5b853561284381611e42565b9450602086013561285381611e42565b93506040860135925060608601359150608086013567ffffffffffffffff8111156121bd575f80fd5b600181811c9082168061289057607f821691505b602082108103611f1a57634e487b7160e01b5f52602260045260245ffd5b634e487b7160e01b5f52603260045260245ffd5b5f602082840312156128d2575f80fd5b610a7a82612436565b803562ffffff81168114612447575f80fd5b5f60a08284031280156128fe575f80fd5b5060405160a0810167ffffffffffffffff8111828210171561292257612922611fe5565b604052823561293081611e42565b8152602083013561294081611e42565b6020820152612951604084016128db565b604082015261296260608401612436565b6060820152608083013561297581611e42565b60808201529392505050565b634e487b7160e01b5f52601160045260245ffd5b8082018082111561062357610623612981565b5f602082840312156129b8575f80fd5b8135610a7a81611e42565b5f602082840312156129d3575f80fd5b8151610a7a8161244c565b8181038181111561062357610623612981565b5f60208284031215612a01575f80fd5b8135610a7a8161244c565b634e487b7160e01b5f52601260045260245ffd5b5f8160020b8360020b80612a3657612a36612a0c565b627fffff1982145f1982141615612a4f57612a4f612981565b90059392505050565b5f8260020b80612a6a57612a6a612a0c565b808360020b0791505092915050565b5f8160020b627fffff198103612a9157612a91612981565b5f190192915050565b5f8260020b8260020b028060020b91508082146127f1576127f1612981565b818382375f9101908152919050565b600281810b9083900b01627fffff8113627fffff198212171561062357610623612981565b600282810b9082900b03627fffff198112627fffff8213171561062357610623612981565b5f60208284031215612b22575f80fd5b5051919050565b5f600160ff1b8201612b3d57612b3d612981565b505f0390565b6001600160a01b03828116828216039081111561062357610623612981565b6001600160a01b03818116838216019081111561062357610623612981565b604081525f612b9360408301856122f5565b8281036020840152612ba581856122f5565b95945050505050565b6001600160a01b03861681526001600160a01b038516602082015283604082015282606082015260a060808201525f612bea60a0830184611eca565b979650505050505050565b5f60208284031215612c05575f80fd5b8151610a7a81611e83565b6001600160a01b03861681526001600160a01b038516602082015260a060408201525f612c4060a08301866122f5565b8281036060840152612c5281866122f5565b90508281036080840152612c668185611eca565b98975050505050505050565b5f8335612c7e81611e42565b6001600160a01b031682526020840135612c9781611e42565b6001600160a01b0316602083015262ffffff612cb5604086016128db565b166040830152612cc760608501612436565b60020b60608301526080840135612cdd81611e42565b6001600160a01b0390811660808401528351151560a0840152602084015160c084015260408401511660e0830152610120610100830152610f6461012083015f815260200190565b5f81600f0b6f7fffffffffffffffffffffffffffffff198103612d4a57612d4a612981565b5f039291505056fea26469706673582212202e5b39fcdccf4d5047622f1058e7fbaa35f8133fb449a4e26931d38e5f7361fb64736f6c634300081a0033",
        "linkReferences": {}
    },
    "methodIdentifiers": {
        "afterAddLiquidity(address,(address,address,uint24,int24,address),(int24,int24,int256,bytes32),int256,int256,bytes)": "9f063efc",
        "afterDonate(address,(address,address,uint24,int24,address),uint256,uint256,bytes)": "e1b4af69",
        "afterInitialize(address,(address,address,uint24,int24,address),uint160,int24,bytes)": "a910f80f",
        "afterRemoveLiquidity(address,(address,address,uint24,int24,address),(int24,int24,int256,bytes32),int256,int256,bytes)": "6c2bbe7e",
        "afterSwap(address,(address,address,uint24,int24,address),(bool,int256,uint160),int256,bytes)": "b47b2fb1",
        "balanceOf(address,uint256)": "00fdd58e",
        "balanceOfBatch(address[],uint256[])": "4e1273f4",
        "beforeAddLiquidity(address,(address,address,uint24,int24,address),(int24,int24,int256,bytes32),bytes)": "259982e5",
        "beforeDonate(address,(address,address,uint24,int24,address),uint256,uint256,bytes)": "b6a8b0fa",
        "beforeInitialize(address,(address,address,uint24,int24,address),uint160,bytes)": "3440d820",
        "beforeRemoveLiquidity(address,(address,address,uint24,int24,address),(int24,int24,int256,bytes32),bytes)": "21d0ee70",
        "beforeSwap(address,(address,address,uint24,int24,address),(bool,int256,uint160),bytes)": "575e24b4",
        "cancelOrder((address,address,uint24,int24,address),int24,bool)": "a0dc3f99",
        "claimTokensSupply(uint256)": "b5a33914",
        "claimableOutputTokens(uint256)": "3bb76cc1",
        "getHookPermissions()": "c4e833ce",
        "getPositionId((address,address,uint24,int24,address),int24,bool)": "fa59cb0c",
        "isApprovedForAll(address,address)": "e985e9c5",
        "lastTicks(bytes32)": "e4cbfea5",
        "pendingOrders(bytes32,int24,bool)": "a2dc31b2",
        "placeOrder((address,address,uint24,int24,address),int24,bool,uint256)": "7e8941af",
        "poolManager()": "dc4c90d3",
        "redeem((address,address,uint24,int24,address),int24,bool,uint256)": "dd02c964",
        "safeBatchTransferFrom(address,address,uint256[],uint256[],bytes)": "2eb2c2d6",
        "safeTransferFrom(address,address,uint256,uint256,bytes)": "f242432a",
        "setApprovalForAll(address,bool)": "a22cb465",
        "supportsInterface(bytes4)": "01ffc9a7",
        "unlockCallback(bytes)": "91dd7346",
        "uri(uint256)": "0e89341c"
    },
    "id": 108
}