{
    "abi": [
        {
            "type": "constructor",
            "inputs": [
                {
                    "name": "_poolManager",
                    "type": "address",
                    "internalType": "contract IPoolManager"
                }
            ],
            "stateMutability": "nonpayable"
        },
        {
            "type": "function",
            "name": "BASE_FEE",
            "inputs": [],
            "outputs": [
                {
                    "name": "",
                    "type": "uint24",
                    "internalType": "uint24"
                }
            ],
            "stateMutability": "view"
        },
        {
            "type": "function",
            "name": "afterAddLiquidity",
            "inputs": [
                {
                    "name": "",
                    "type": "address",
                    "internalType": "address"
                },
                {
                    "name": "",
                    "type": "tuple",
                    "internalType": "struct PoolKey",
                    "components": [
                        {
                            "name": "currency0",
                            "type": "address",
                            "internalType": "Currency"
                        },
                        {
                            "name": "currency1",
                            "type": "address",
                            "internalType": "Currency"
                        },
                        {
                            "name": "fee",
                            "type": "uint24",
                            "internalType": "uint24"
                        },
                        {
                            "name": "tickSpacing",
                            "type": "int24",
                            "internalType": "int24"
                        },
                        {
                            "name": "hooks",
                            "type": "address",
                            "internalType": "contract IHooks"
                        }
                    ]
                },
                {
                    "name": "",
                    "type": "tuple",
                    "internalType": "struct IPoolManager.ModifyLiquidityParams",
                    "components": [
                        {
                            "name": "tickLower",
                            "type": "int24",
                            "internalType": "int24"
                        },
                        {
                            "name": "tickUpper",
                            "type": "int24",
                            "internalType": "int24"
                        },
                        {
                            "name": "liquidityDelta",
                            "type": "int256",
                            "internalType": "int256"
                        },
                        {
                            "name": "salt",
                            "type": "bytes32",
                            "internalType": "bytes32"
                        }
                    ]
                },
                {
                    "name": "",
                    "type": "int256",
                    "internalType": "BalanceDelta"
                },
                {
                    "name": "",
                    "type": "int256",
                    "internalType": "BalanceDelta"
                },
                {
                    "name": "",
                    "type": "bytes",
                    "internalType": "bytes"
                }
            ],
            "outputs": [
                {
                    "name": "",
                    "type": "bytes4",
                    "internalType": "bytes4"
                },
                {
                    "name": "",
                    "type": "int256",
                    "internalType": "BalanceDelta"
                }
            ],
            "stateMutability": "nonpayable"
        },
        {
            "type": "function",
            "name": "afterDonate",
            "inputs": [
                {
                    "name": "",
                    "type": "address",
                    "internalType": "address"
                },
                {
                    "name": "",
                    "type": "tuple",
                    "internalType": "struct PoolKey",
                    "components": [
                        {
                            "name": "currency0",
                            "type": "address",
                            "internalType": "Currency"
                        },
                        {
                            "name": "currency1",
                            "type": "address",
                            "internalType": "Currency"
                        },
                        {
                            "name": "fee",
                            "type": "uint24",
                            "internalType": "uint24"
                        },
                        {
                            "name": "tickSpacing",
                            "type": "int24",
                            "internalType": "int24"
                        },
                        {
                            "name": "hooks",
                            "type": "address",
                            "internalType": "contract IHooks"
                        }
                    ]
                },
                {
                    "name": "",
                    "type": "uint256",
                    "internalType": "uint256"
                },
                {
                    "name": "",
                    "type": "uint256",
                    "internalType": "uint256"
                },
                {
                    "name": "",
                    "type": "bytes",
                    "internalType": "bytes"
                }
            ],
            "outputs": [
                {
                    "name": "",
                    "type": "bytes4",
                    "internalType": "bytes4"
                }
            ],
            "stateMutability": "nonpayable"
        },
        {
            "type": "function",
            "name": "afterInitialize",
            "inputs": [
                {
                    "name": "",
                    "type": "address",
                    "internalType": "address"
                },
                {
                    "name": "",
                    "type": "tuple",
                    "internalType": "struct PoolKey",
                    "components": [
                        {
                            "name": "currency0",
                            "type": "address",
                            "internalType": "Currency"
                        },
                        {
                            "name": "currency1",
                            "type": "address",
                            "internalType": "Currency"
                        },
                        {
                            "name": "fee",
                            "type": "uint24",
                            "internalType": "uint24"
                        },
                        {
                            "name": "tickSpacing",
                            "type": "int24",
                            "internalType": "int24"
                        },
                        {
                            "name": "hooks",
                            "type": "address",
                            "internalType": "contract IHooks"
                        }
                    ]
                },
                {
                    "name": "",
                    "type": "uint160",
                    "internalType": "uint160"
                },
                {
                    "name": "",
                    "type": "int24",
                    "internalType": "int24"
                },
                {
                    "name": "",
                    "type": "bytes",
                    "internalType": "bytes"
                }
            ],
            "outputs": [
                {
                    "name": "",
                    "type": "bytes4",
                    "internalType": "bytes4"
                }
            ],
            "stateMutability": "nonpayable"
        },
        {
            "type": "function",
            "name": "afterRemoveLiquidity",
            "inputs": [
                {
                    "name": "",
                    "type": "address",
                    "internalType": "address"
                },
                {
                    "name": "",
                    "type": "tuple",
                    "internalType": "struct PoolKey",
                    "components": [
                        {
                            "name": "currency0",
                            "type": "address",
                            "internalType": "Currency"
                        },
                        {
                            "name": "currency1",
                            "type": "address",
                            "internalType": "Currency"
                        },
                        {
                            "name": "fee",
                            "type": "uint24",
                            "internalType": "uint24"
                        },
                        {
                            "name": "tickSpacing",
                            "type": "int24",
                            "internalType": "int24"
                        },
                        {
                            "name": "hooks",
                            "type": "address",
                            "internalType": "contract IHooks"
                        }
                    ]
                },
                {
                    "name": "",
                    "type": "tuple",
                    "internalType": "struct IPoolManager.ModifyLiquidityParams",
                    "components": [
                        {
                            "name": "tickLower",
                            "type": "int24",
                            "internalType": "int24"
                        },
                        {
                            "name": "tickUpper",
                            "type": "int24",
                            "internalType": "int24"
                        },
                        {
                            "name": "liquidityDelta",
                            "type": "int256",
                            "internalType": "int256"
                        },
                        {
                            "name": "salt",
                            "type": "bytes32",
                            "internalType": "bytes32"
                        }
                    ]
                },
                {
                    "name": "",
                    "type": "int256",
                    "internalType": "BalanceDelta"
                },
                {
                    "name": "",
                    "type": "int256",
                    "internalType": "BalanceDelta"
                },
                {
                    "name": "",
                    "type": "bytes",
                    "internalType": "bytes"
                }
            ],
            "outputs": [
                {
                    "name": "",
                    "type": "bytes4",
                    "internalType": "bytes4"
                },
                {
                    "name": "",
                    "type": "int256",
                    "internalType": "BalanceDelta"
                }
            ],
            "stateMutability": "nonpayable"
        },
        {
            "type": "function",
            "name": "afterSwap",
            "inputs": [
                {
                    "name": "",
                    "type": "address",
                    "internalType": "address"
                },
                {
                    "name": "",
                    "type": "tuple",
                    "internalType": "struct PoolKey",
                    "components": [
                        {
                            "name": "currency0",
                            "type": "address",
                            "internalType": "Currency"
                        },
                        {
                            "name": "currency1",
                            "type": "address",
                            "internalType": "Currency"
                        },
                        {
                            "name": "fee",
                            "type": "uint24",
                            "internalType": "uint24"
                        },
                        {
                            "name": "tickSpacing",
                            "type": "int24",
                            "internalType": "int24"
                        },
                        {
                            "name": "hooks",
                            "type": "address",
                            "internalType": "contract IHooks"
                        }
                    ]
                },
                {
                    "name": "",
                    "type": "tuple",
                    "internalType": "struct IPoolManager.SwapParams",
                    "components": [
                        {
                            "name": "zeroForOne",
                            "type": "bool",
                            "internalType": "bool"
                        },
                        {
                            "name": "amountSpecified",
                            "type": "int256",
                            "internalType": "int256"
                        },
                        {
                            "name": "sqrtPriceLimitX96",
                            "type": "uint160",
                            "internalType": "uint160"
                        }
                    ]
                },
                {
                    "name": "",
                    "type": "int256",
                    "internalType": "BalanceDelta"
                },
                {
                    "name": "",
                    "type": "bytes",
                    "internalType": "bytes"
                }
            ],
            "outputs": [
                {
                    "name": "",
                    "type": "bytes4",
                    "internalType": "bytes4"
                },
                {
                    "name": "",
                    "type": "int128",
                    "internalType": "int128"
                }
            ],
            "stateMutability": "nonpayable"
        },
        {
            "type": "function",
            "name": "beforeAddLiquidity",
            "inputs": [
                {
                    "name": "",
                    "type": "address",
                    "internalType": "address"
                },
                {
                    "name": "",
                    "type": "tuple",
                    "internalType": "struct PoolKey",
                    "components": [
                        {
                            "name": "currency0",
                            "type": "address",
                            "internalType": "Currency"
                        },
                        {
                            "name": "currency1",
                            "type": "address",
                            "internalType": "Currency"
                        },
                        {
                            "name": "fee",
                            "type": "uint24",
                            "internalType": "uint24"
                        },
                        {
                            "name": "tickSpacing",
                            "type": "int24",
                            "internalType": "int24"
                        },
                        {
                            "name": "hooks",
                            "type": "address",
                            "internalType": "contract IHooks"
                        }
                    ]
                },
                {
                    "name": "",
                    "type": "tuple",
                    "internalType": "struct IPoolManager.ModifyLiquidityParams",
                    "components": [
                        {
                            "name": "tickLower",
                            "type": "int24",
                            "internalType": "int24"
                        },
                        {
                            "name": "tickUpper",
                            "type": "int24",
                            "internalType": "int24"
                        },
                        {
                            "name": "liquidityDelta",
                            "type": "int256",
                            "internalType": "int256"
                        },
                        {
                            "name": "salt",
                            "type": "bytes32",
                            "internalType": "bytes32"
                        }
                    ]
                },
                {
                    "name": "",
                    "type": "bytes",
                    "internalType": "bytes"
                }
            ],
            "outputs": [
                {
                    "name": "",
                    "type": "bytes4",
                    "internalType": "bytes4"
                }
            ],
            "stateMutability": "nonpayable"
        },
        {
            "type": "function",
            "name": "beforeDonate",
            "inputs": [
                {
                    "name": "",
                    "type": "address",
                    "internalType": "address"
                },
                {
                    "name": "",
                    "type": "tuple",
                    "internalType": "struct PoolKey",
                    "components": [
                        {
                            "name": "currency0",
                            "type": "address",
                            "internalType": "Currency"
                        },
                        {
                            "name": "currency1",
                            "type": "address",
                            "internalType": "Currency"
                        },
                        {
                            "name": "fee",
                            "type": "uint24",
                            "internalType": "uint24"
                        },
                        {
                            "name": "tickSpacing",
                            "type": "int24",
                            "internalType": "int24"
                        },
                        {
                            "name": "hooks",
                            "type": "address",
                            "internalType": "contract IHooks"
                        }
                    ]
                },
                {
                    "name": "",
                    "type": "uint256",
                    "internalType": "uint256"
                },
                {
                    "name": "",
                    "type": "uint256",
                    "internalType": "uint256"
                },
                {
                    "name": "",
                    "type": "bytes",
                    "internalType": "bytes"
                }
            ],
            "outputs": [
                {
                    "name": "",
                    "type": "bytes4",
                    "internalType": "bytes4"
                }
            ],
            "stateMutability": "nonpayable"
        },
        {
            "type": "function",
            "name": "beforeInitialize",
            "inputs": [
                {
                    "name": "",
                    "type": "address",
                    "internalType": "address"
                },
                {
                    "name": "key",
                    "type": "tuple",
                    "internalType": "struct PoolKey",
                    "components": [
                        {
                            "name": "currency0",
                            "type": "address",
                            "internalType": "Currency"
                        },
                        {
                            "name": "currency1",
                            "type": "address",
                            "internalType": "Currency"
                        },
                        {
                            "name": "fee",
                            "type": "uint24",
                            "internalType": "uint24"
                        },
                        {
                            "name": "tickSpacing",
                            "type": "int24",
                            "internalType": "int24"
                        },
                        {
                            "name": "hooks",
                            "type": "address",
                            "internalType": "contract IHooks"
                        }
                    ]
                },
                {
                    "name": "",
                    "type": "uint160",
                    "internalType": "uint160"
                },
                {
                    "name": "",
                    "type": "bytes",
                    "internalType": "bytes"
                }
            ],
            "outputs": [
                {
                    "name": "",
                    "type": "bytes4",
                    "internalType": "bytes4"
                }
            ],
            "stateMutability": "pure"
        },
        {
            "type": "function",
            "name": "beforeRemoveLiquidity",
            "inputs": [
                {
                    "name": "",
                    "type": "address",
                    "internalType": "address"
                },
                {
                    "name": "",
                    "type": "tuple",
                    "internalType": "struct PoolKey",
                    "components": [
                        {
                            "name": "currency0",
                            "type": "address",
                            "internalType": "Currency"
                        },
                        {
                            "name": "currency1",
                            "type": "address",
                            "internalType": "Currency"
                        },
                        {
                            "name": "fee",
                            "type": "uint24",
                            "internalType": "uint24"
                        },
                        {
                            "name": "tickSpacing",
                            "type": "int24",
                            "internalType": "int24"
                        },
                        {
                            "name": "hooks",
                            "type": "address",
                            "internalType": "contract IHooks"
                        }
                    ]
                },
                {
                    "name": "",
                    "type": "tuple",
                    "internalType": "struct IPoolManager.ModifyLiquidityParams",
                    "components": [
                        {
                            "name": "tickLower",
                            "type": "int24",
                            "internalType": "int24"
                        },
                        {
                            "name": "tickUpper",
                            "type": "int24",
                            "internalType": "int24"
                        },
                        {
                            "name": "liquidityDelta",
                            "type": "int256",
                            "internalType": "int256"
                        },
                        {
                            "name": "salt",
                            "type": "bytes32",
                            "internalType": "bytes32"
                        }
                    ]
                },
                {
                    "name": "",
                    "type": "bytes",
                    "internalType": "bytes"
                }
            ],
            "outputs": [
                {
                    "name": "",
                    "type": "bytes4",
                    "internalType": "bytes4"
                }
            ],
            "stateMutability": "nonpayable"
        },
        {
            "type": "function",
            "name": "beforeSwap",
            "inputs": [
                {
                    "name": "",
                    "type": "address",
                    "internalType": "address"
                },
                {
                    "name": "key",
                    "type": "tuple",
                    "internalType": "struct PoolKey",
                    "components": [
                        {
                            "name": "currency0",
                            "type": "address",
                            "internalType": "Currency"
                        },
                        {
                            "name": "currency1",
                            "type": "address",
                            "internalType": "Currency"
                        },
                        {
                            "name": "fee",
                            "type": "uint24",
                            "internalType": "uint24"
                        },
                        {
                            "name": "tickSpacing",
                            "type": "int24",
                            "internalType": "int24"
                        },
                        {
                            "name": "hooks",
                            "type": "address",
                            "internalType": "contract IHooks"
                        }
                    ]
                },
                {
                    "name": "",
                    "type": "tuple",
                    "internalType": "struct IPoolManager.SwapParams",
                    "components": [
                        {
                            "name": "zeroForOne",
                            "type": "bool",
                            "internalType": "bool"
                        },
                        {
                            "name": "amountSpecified",
                            "type": "int256",
                            "internalType": "int256"
                        },
                        {
                            "name": "sqrtPriceLimitX96",
                            "type": "uint160",
                            "internalType": "uint160"
                        }
                    ]
                },
                {
                    "name": "",
                    "type": "bytes",
                    "internalType": "bytes"
                }
            ],
            "outputs": [
                {
                    "name": "",
                    "type": "bytes4",
                    "internalType": "bytes4"
                },
                {
                    "name": "",
                    "type": "int256",
                    "internalType": "BeforeSwapDelta"
                },
                {
                    "name": "",
                    "type": "uint24",
                    "internalType": "uint24"
                }
            ],
            "stateMutability": "nonpayable"
        },
        {
            "type": "function",
            "name": "getHookPermissions",
            "inputs": [],
            "outputs": [
                {
                    "name": "",
                    "type": "tuple",
                    "internalType": "struct Hooks.Permissions",
                    "components": [
                        {
                            "name": "beforeInitialize",
                            "type": "bool",
                            "internalType": "bool"
                        },
                        {
                            "name": "afterInitialize",
                            "type": "bool",
                            "internalType": "bool"
                        },
                        {
                            "name": "beforeAddLiquidity",
                            "type": "bool",
                            "internalType": "bool"
                        },
                        {
                            "name": "afterAddLiquidity",
                            "type": "bool",
                            "internalType": "bool"
                        },
                        {
                            "name": "beforeRemoveLiquidity",
                            "type": "bool",
                            "internalType": "bool"
                        },
                        {
                            "name": "afterRemoveLiquidity",
                            "type": "bool",
                            "internalType": "bool"
                        },
                        {
                            "name": "beforeSwap",
                            "type": "bool",
                            "internalType": "bool"
                        },
                        {
                            "name": "afterSwap",
                            "type": "bool",
                            "internalType": "bool"
                        },
                        {
                            "name": "beforeDonate",
                            "type": "bool",
                            "internalType": "bool"
                        },
                        {
                            "name": "afterDonate",
                            "type": "bool",
                            "internalType": "bool"
                        },
                        {
                            "name": "beforeSwapReturnDelta",
                            "type": "bool",
                            "internalType": "bool"
                        },
                        {
                            "name": "afterSwapReturnDelta",
                            "type": "bool",
                            "internalType": "bool"
                        },
                        {
                            "name": "afterAddLiquidityReturnDelta",
                            "type": "bool",
                            "internalType": "bool"
                        },
                        {
                            "name": "afterRemoveLiquidityReturnDelta",
                            "type": "bool",
                            "internalType": "bool"
                        }
                    ]
                }
            ],
            "stateMutability": "pure"
        },
        {
            "type": "function",
            "name": "movingAverageGasPrice",
            "inputs": [],
            "outputs": [
                {
                    "name": "",
                    "type": "uint128",
                    "internalType": "uint128"
                }
            ],
            "stateMutability": "view"
        },
        {
            "type": "function",
            "name": "movingAverageGasPriceCount",
            "inputs": [],
            "outputs": [
                {
                    "name": "",
                    "type": "uint104",
                    "internalType": "uint104"
                }
            ],
            "stateMutability": "view"
        },
        {
            "type": "function",
            "name": "poolManager",
            "inputs": [],
            "outputs": [
                {
                    "name": "",
                    "type": "address",
                    "internalType": "contract IPoolManager"
                }
            ],
            "stateMutability": "view"
        },
        {
            "type": "function",
            "name": "unlockCallback",
            "inputs": [
                {
                    "name": "data",
                    "type": "bytes",
                    "internalType": "bytes"
                }
            ],
            "outputs": [
                {
                    "name": "",
                    "type": "bytes",
                    "internalType": "bytes"
                }
            ],
            "stateMutability": "nonpayable"
        },
        {
            "type": "error",
            "name": "HookNotImplemented",
            "inputs": []
        },
        {
            "type": "error",
            "name": "InvalidPool",
            "inputs": []
        },
        {
            "type": "error",
            "name": "LockFailure",
            "inputs": []
        },
        {
            "type": "error",
            "name": "MustUseDynamicFee",
            "inputs": []
        },
        {
            "type": "error",
            "name": "NotPoolManager",
            "inputs": []
        },
        {
            "type": "error",
            "name": "NotSelf",
            "inputs": []
        }
    ],
    "bytecode": {
        "object": "0x60a060405234801561000f575f80fd5b5060405161147438038061147483398101604081905261002e91610464565b6001600160a01b0381166080528061004530610054565b5061004e610147565b50610571565b6101448161013f604080516101c0810182525f80825260208201819052918101829052606081018290526080810182905260a0810182905260c0810182905260e08101829052610100810182905261012081018290526101408101829052610160810182905261018081018290526101a081019190915250604080516101c08101825260018082525f60208301819052928201839052606082018390526080820183905260a0820183905260c0820181905260e0820152610100810182905261012081018290526101408101829052610160810182905261018081018290526101a081019190915290565b610209565b50565b5f543a9061016690600160801b90046001600160681b031660016104a5565b5f546001600160681b0391821691839161019191600160801b820416906001600160801b03166104c4565b61019b91906104ed565b6101a5919061050c565b5f80546001600160801b0319166001600160801b039290921691909117808255600160801b90046001600160681b03169060106101e183610546565b91906101000a8154816001600160681b0302191690836001600160681b031602179055505050565b61021e6001600160a01b03831661200061043a565b8151151590151514158061024e57506102426001600160a01b03831661100061043a565b15158160200151151514155b8061027557506102696001600160a01b03831661080061043a565b15158160400151151514155b8061029c57506102906001600160a01b03831661040061043a565b15158160600151151514155b806102c357506102b76001600160a01b03831661020061043a565b15158160800151151514155b806102ea57506102de6001600160a01b03831661010061043a565b15158160a00151151514155b8061031057506103046001600160a01b038316608061043a565b15158160c00151151514155b80610336575061032a6001600160a01b038316604061043a565b15158160e00151151514155b8061035d57506103506001600160a01b038316602061043a565b1515816101000151151514155b8061038457506103776001600160a01b038316601061043a565b1515816101200151151514155b806103ab575061039e6001600160a01b038316600861043a565b1515816101400151151514155b806103d257506103c56001600160a01b038316600461043a565b1515816101600151151514155b806103f957506103ec6001600160a01b038316600261043a565b1515816101800151151514155b8061042057506104136001600160a01b038316600161043a565b1515816101a00151151514155b1561043657610436630732d7b560e51b8361044f565b5050565b6001600160a01b038282161615155b92915050565b815f526001600160a01b03811660045260245ffd5b5f60208284031215610474575f80fd5b81516001600160a01b038116811461048a575f80fd5b9392505050565b634e487b7160e01b5f52601160045260245ffd5b6001600160681b03818116838216019081111561044957610449610491565b6001600160801b0381811683821602908116908181146104e6576104e6610491565b5092915050565b6001600160801b03818116838216019081111561044957610449610491565b5f6001600160801b0383168061053057634e487b7160e01b5f52601260045260245ffd5b6001600160801b03929092169190910492915050565b5f6001600160681b0382166002600160681b0319810161056857610568610491565b60010192915050565b608051610edd6105975f395f818161039701528181610466015261050b0152610edd5ff3fe608060405234801561000f575f80fd5b50600436106100fb575f3560e01c80639f063efc11610093578063c4e833ce11610063578063c4e833ce1461026d578063cd2c70e814610361578063dc4c90d314610392578063e1b4af691461025f575f80fd5b80639f063efc1461019e578063a910f80f1461021b578063b47b2fb114610229578063b6a8b0fa1461025f575f80fd5b8063575e24b4116100ce578063575e24b4146101605780636c2bbe7e1461019e57806391dd7346146101d15780639a161daa146101f1575f80fd5b806321d0ee70146100ff578063259982e5146100ff5780633440d820146101305780633d18651e14610143575b5f80fd5b61011261010d366004610806565b6103d1565b6040516001600160e01b031990911681526020015b60405180910390f35b61011261013e36600461087d565b6103eb565b61014c61138881565b60405162ffffff9091168152602001610127565b61017361016e3660046108e7565b610440565b604080516001600160e01b03199094168452602084019290925262ffffff1690820152606001610127565b6101b16101ac366004610941565b6104e3565b604080516001600160e01b03199093168352602083019190915201610127565b6101e46101df3660046109cc565b6104fe565b6040516101279190610a0b565b5f54610203906001600160801b031681565b6040516001600160801b039091168152602001610127565b61011261010d366004610a56565b61023c610237366004610ade565b61055c565b604080516001600160e01b03199093168352600f9190910b602083015201610127565b61011261010d366004610b41565b610354604080516101c0810182525f80825260208201819052918101829052606081018290526080810182905260a0810182905260c0810182905260e08101829052610100810182905261012081018290526101408101829052610160810182905261018081018290526101a081019190915250604080516101c08101825260018082525f60208301819052928201839052606082018390526080820183905260a0820183905260c0820181905260e0820152610100810182905261012081018290526101408101829052610160810182905261018081018290526101a081019190915290565b6040516101279190610b9b565b5f5461037a90600160801b90046001600160681b031681565b6040516001600160681b039091168152602001610127565b6103b97f000000000000000000000000000000000000000000000000000000000000000081565b6040516001600160a01b039091168152602001610127565b5f604051630a85dc2960e01b815260040160405180910390fd5b5f6104116103ff6060870160408801610cce565b62ffffff1662ffffff16628000001490565b61042e576040516315b3d69f60e31b815260040160405180910390fd5b506301a206c160e51b95945050505050565b5f805f8061044c61057c565b604051635275965160e01b81529091506001600160a01b037f0000000000000000000000000000000000000000000000000000000000000000169063527596519061049d908b908590600401610ce7565b5f604051808303815f87803b1580156104b4575f80fd5b505af11580156104c6573d5f803e3d5ffd5b506315d7892d60e21b9c5f9c508c9b509950505050505050505050565b5f80604051630a85dc2960e01b815260040160405180910390fd5b6060336001600160a01b037f000000000000000000000000000000000000000000000000000000000000000016146105495760405163570c108560e11b815260040160405180910390fd5b6105538383610620565b90505b92915050565b5f806105666106b9565b5063b47b2fb160e01b975f975095505050505050565b5f80543a90600a90610598906001600160801b0316600b610d8a565b6105a29190610dc0565b6001600160801b0316816001600160801b031611156105ce576105c86002611388610ded565b91505090565b5f54600a906105e7906001600160801b03166009610d8a565b6105f19190610dc0565b6001600160801b0316816001600160801b03161015610617576105c86113886002610e12565b61138891505090565b60605f80306001600160a01b0316858560405161063e929190610e30565b5f604051808303815f865af19150503d805f8114610677576040519150601f19603f3d011682016040523d82523d5f602084013e61067c565b606091505b509150915081156106905791506105569050565b80515f036106b1576040516314815f4760e31b815260040160405180910390fd5b805160208201fd5b5f543a906106d890600160801b90046001600160681b03166001610e3f565b5f546001600160681b0391821691839161070391600160801b820416906001600160801b0316610d8a565b61070d9190610e5e565b6107179190610dc0565b5f80546fffffffffffffffffffffffffffffffff19166001600160801b039290921691909117808255600160801b90046001600160681b031690601061075c83610e7d565b91906101000a8154816001600160681b0302191690836001600160681b031602179055505050565b6001600160a01b0381168114610798575f80fd5b50565b5f60a082840312156107ab575f80fd5b50919050565b5f608082840312156107ab575f80fd5b5f8083601f8401126107d1575f80fd5b50813567ffffffffffffffff8111156107e8575f80fd5b6020830191508360208285010111156107ff575f80fd5b9250929050565b5f805f805f610160868803121561081b575f80fd5b853561082681610784565b9450610835876020880161079b565b93506108448760c088016107b1565b925061014086013567ffffffffffffffff811115610860575f80fd5b61086c888289016107c1565b969995985093965092949392505050565b5f805f805f6101008688031215610892575f80fd5b853561089d81610784565b94506108ac876020880161079b565b935060c08601356108bc81610784565b925060e086013567ffffffffffffffff811115610860575f80fd5b5f606082840312156107ab575f80fd5b5f805f805f61014086880312156108fc575f80fd5b853561090781610784565b9450610916876020880161079b565b93506109258760c088016108d7565b925061012086013567ffffffffffffffff811115610860575f80fd5b5f805f805f805f6101a0888a031215610958575f80fd5b873561096381610784565b96506109728960208a0161079b565b95506109818960c08a016107b1565b94506101408801359350610160880135925061018088013567ffffffffffffffff8111156109ad575f80fd5b6109b98a828b016107c1565b989b979a50959850939692959293505050565b5f80602083850312156109dd575f80fd5b823567ffffffffffffffff8111156109f3575f80fd5b6109ff858286016107c1565b90969095509350505050565b602081525f82518060208401528060208501604085015e5f604082850101526040601f19601f83011684010191505092915050565b8035600281900b8114610a51575f80fd5b919050565b5f805f805f806101208789031215610a6c575f80fd5b8635610a7781610784565b9550610a86886020890161079b565b945060c0870135610a9681610784565b9350610aa460e08801610a40565b925061010087013567ffffffffffffffff811115610ac0575f80fd5b610acc89828a016107c1565b979a9699509497509295939492505050565b5f805f805f806101608789031215610af4575f80fd5b8635610aff81610784565b9550610b0e886020890161079b565b9450610b1d8860c089016108d7565b9350610120870135925061014087013567ffffffffffffffff811115610ac0575f80fd5b5f805f805f806101208789031215610b57575f80fd5b8635610b6281610784565b9550610b71886020890161079b565b945060c0870135935060e0870135925061010087013567ffffffffffffffff811115610ac0575f80fd5b8151151581526101c081016020830151610bb9602084018215159052565b506040830151610bcd604084018215159052565b506060830151610be1606084018215159052565b506080830151610bf5608084018215159052565b5060a0830151610c0960a084018215159052565b5060c0830151610c1d60c084018215159052565b5060e0830151610c3160e084018215159052565b50610100830151610c4761010084018215159052565b50610120830151610c5d61012084018215159052565b50610140830151610c7361014084018215159052565b50610160830151610c8961016084018215159052565b50610180830151610c9f61018084018215159052565b506101a0830151610cb56101a084018215159052565b5092915050565b803562ffffff81168114610a51575f80fd5b5f60208284031215610cde575f80fd5b61055382610cbc565b60c081018335610cf681610784565b6001600160a01b031682526020840135610d0f81610784565b6001600160a01b0316602083015262ffffff610d2d60408601610cbc565b166040830152610d3f60608501610a40565b60020b60608301526080840135610d5581610784565b6001600160a01b0316608083015262ffffff9290921660a090910152919050565b634e487b7160e01b5f52601160045260245ffd5b6001600160801b038181168382160290811690818114610cb557610cb5610d76565b634e487b7160e01b5f52601260045260245ffd5b5f6001600160801b03831680610dd857610dd8610dac565b806001600160801b0384160491505092915050565b5f62ffffff831680610e0157610e01610dac565b8062ffffff84160491505092915050565b62ffffff8181168382160290811690818114610cb557610cb5610d76565b818382375f9101908152919050565b6001600160681b03818116838216019081111561055657610556610d76565b6001600160801b03818116838216019081111561055657610556610d76565b5f6001600160681b0382166001600160681b038103610e9e57610e9e610d76565b6001019291505056fea2646970667358221220282f8c4ff1f06c452e2179af6529763a6d225533aea3cb1cafa2bbc9a6e359b264736f6c634300081a0033",
        "linkReferences": {}
    },
    "methodIdentifiers": {
        "BASE_FEE()": "3d18651e",
        "afterAddLiquidity(address,(address,address,uint24,int24,address),(int24,int24,int256,bytes32),int256,int256,bytes)": "9f063efc",
        "afterDonate(address,(address,address,uint24,int24,address),uint256,uint256,bytes)": "e1b4af69",
        "afterInitialize(address,(address,address,uint24,int24,address),uint160,int24,bytes)": "a910f80f",
        "afterRemoveLiquidity(address,(address,address,uint24,int24,address),(int24,int24,int256,bytes32),int256,int256,bytes)": "6c2bbe7e",
        "afterSwap(address,(address,address,uint24,int24,address),(bool,int256,uint160),int256,bytes)": "b47b2fb1",
        "beforeAddLiquidity(address,(address,address,uint24,int24,address),(int24,int24,int256,bytes32),bytes)": "259982e5",
        "beforeDonate(address,(address,address,uint24,int24,address),uint256,uint256,bytes)": "b6a8b0fa",
        "beforeInitialize(address,(address,address,uint24,int24,address),uint160,bytes)": "3440d820",
        "beforeRemoveLiquidity(address,(address,address,uint24,int24,address),(int24,int24,int256,bytes32),bytes)": "21d0ee70",
        "beforeSwap(address,(address,address,uint24,int24,address),(bool,int256,uint160),bytes)": "575e24b4",
        "getHookPermissions()": "c4e833ce",
        "movingAverageGasPrice()": "9a161daa",
        "movingAverageGasPriceCount()": "cd2c70e8",
        "poolManager()": "dc4c90d3",
        "unlockCallback(bytes)": "91dd7346"
    },
    "id": 95
}