{
    "abi": [
        {
            "type": "constructor",
            "inputs": [
                {
                    "name": "_manager",
                    "type": "address",
                    "internalType": "contract IPoolManager"
                },
                {
                    "name": "_name",
                    "type": "string",
                    "internalType": "string"
                },
                {
                    "name": "_symbol",
                    "type": "string",
                    "internalType": "string"
                }
            ],
            "stateMutability": "nonpayable"
        },
        {
            "type": "function",
            "name": "DOMAIN_SEPARATOR",
            "inputs": [],
            "outputs": [
                {
                    "name": "",
                    "type": "bytes32",
                    "internalType": "bytes32"
                }
            ],
            "stateMutability": "view"
        },
        {
            "type": "function",
            "name": "POINTS_FOR_REFERRAL",
            "inputs": [],
            "outputs": [
                {
                    "name": "",
                    "type": "uint256",
                    "internalType": "uint256"
                }
            ],
            "stateMutability": "view"
        },
        {
            "type": "function",
            "name": "afterAddLiquidity",
            "inputs": [
                {
                    "name": "",
                    "type": "address",
                    "internalType": "address"
                },
                {
                    "name": "key",
                    "type": "tuple",
                    "internalType": "struct PoolKey",
                    "components": [
                        {
                            "name": "currency0",
                            "type": "address",
                            "internalType": "Currency"
                        },
                        {
                            "name": "currency1",
                            "type": "address",
                            "internalType": "Currency"
                        },
                        {
                            "name": "fee",
                            "type": "uint24",
                            "internalType": "uint24"
                        },
                        {
                            "name": "tickSpacing",
                            "type": "int24",
                            "internalType": "int24"
                        },
                        {
                            "name": "hooks",
                            "type": "address",
                            "internalType": "contract IHooks"
                        }
                    ]
                },
                {
                    "name": "",
                    "type": "tuple",
                    "internalType": "struct IPoolManager.ModifyLiquidityParams",
                    "components": [
                        {
                            "name": "tickLower",
                            "type": "int24",
                            "internalType": "int24"
                        },
                        {
                            "name": "tickUpper",
                            "type": "int24",
                            "internalType": "int24"
                        },
                        {
                            "name": "liquidityDelta",
                            "type": "int256",
                            "internalType": "int256"
                        },
                        {
                            "name": "salt",
                            "type": "bytes32",
                            "internalType": "bytes32"
                        }
                    ]
                },
                {
                    "name": "delta",
                    "type": "int256",
                    "internalType": "BalanceDelta"
                },
                {
                    "name": "delta1",
                    "type": "int256",
                    "internalType": "BalanceDelta"
                },
                {
                    "name": "hookData",
                    "type": "bytes",
                    "internalType": "bytes"
                }
            ],
            "outputs": [
                {
                    "name": "",
                    "type": "bytes4",
                    "internalType": "bytes4"
                },
                {
                    "name": "",
                    "type": "int256",
                    "internalType": "BalanceDelta"
                }
            ],
            "stateMutability": "nonpayable"
        },
        {
            "type": "function",
            "name": "afterDonate",
            "inputs": [
                {
                    "name": "",
                    "type": "address",
                    "internalType": "address"
                },
                {
                    "name": "",
                    "type": "tuple",
                    "internalType": "struct PoolKey",
                    "components": [
                        {
                            "name": "currency0",
                            "type": "address",
                            "internalType": "Currency"
                        },
                        {
                            "name": "currency1",
                            "type": "address",
                            "internalType": "Currency"
                        },
                        {
                            "name": "fee",
                            "type": "uint24",
                            "internalType": "uint24"
                        },
                        {
                            "name": "tickSpacing",
                            "type": "int24",
                            "internalType": "int24"
                        },
                        {
                            "name": "hooks",
                            "type": "address",
                            "internalType": "contract IHooks"
                        }
                    ]
                },
                {
                    "name": "",
                    "type": "uint256",
                    "internalType": "uint256"
                },
                {
                    "name": "",
                    "type": "uint256",
                    "internalType": "uint256"
                },
                {
                    "name": "",
                    "type": "bytes",
                    "internalType": "bytes"
                }
            ],
            "outputs": [
                {
                    "name": "",
                    "type": "bytes4",
                    "internalType": "bytes4"
                }
            ],
            "stateMutability": "nonpayable"
        },
        {
            "type": "function",
            "name": "afterInitialize",
            "inputs": [
                {
                    "name": "",
                    "type": "address",
                    "internalType": "address"
                },
                {
                    "name": "",
                    "type": "tuple",
                    "internalType": "struct PoolKey",
                    "components": [
                        {
                            "name": "currency0",
                            "type": "address",
                            "internalType": "Currency"
                        },
                        {
                            "name": "currency1",
                            "type": "address",
                            "internalType": "Currency"
                        },
                        {
                            "name": "fee",
                            "type": "uint24",
                            "internalType": "uint24"
                        },
                        {
                            "name": "tickSpacing",
                            "type": "int24",
                            "internalType": "int24"
                        },
                        {
                            "name": "hooks",
                            "type": "address",
                            "internalType": "contract IHooks"
                        }
                    ]
                },
                {
                    "name": "",
                    "type": "uint160",
                    "internalType": "uint160"
                },
                {
                    "name": "",
                    "type": "int24",
                    "internalType": "int24"
                },
                {
                    "name": "",
                    "type": "bytes",
                    "internalType": "bytes"
                }
            ],
            "outputs": [
                {
                    "name": "",
                    "type": "bytes4",
                    "internalType": "bytes4"
                }
            ],
            "stateMutability": "nonpayable"
        },
        {
            "type": "function",
            "name": "afterRemoveLiquidity",
            "inputs": [
                {
                    "name": "",
                    "type": "address",
                    "internalType": "address"
                },
                {
                    "name": "",
                    "type": "tuple",
                    "internalType": "struct PoolKey",
                    "components": [
                        {
                            "name": "currency0",
                            "type": "address",
                            "internalType": "Currency"
                        },
                        {
                            "name": "currency1",
                            "type": "address",
                            "internalType": "Currency"
                        },
                        {
                            "name": "fee",
                            "type": "uint24",
                            "internalType": "uint24"
                        },
                        {
                            "name": "tickSpacing",
                            "type": "int24",
                            "internalType": "int24"
                        },
                        {
                            "name": "hooks",
                            "type": "address",
                            "internalType": "contract IHooks"
                        }
                    ]
                },
                {
                    "name": "",
                    "type": "tuple",
                    "internalType": "struct IPoolManager.ModifyLiquidityParams",
                    "components": [
                        {
                            "name": "tickLower",
                            "type": "int24",
                            "internalType": "int24"
                        },
                        {
                            "name": "tickUpper",
                            "type": "int24",
                            "internalType": "int24"
                        },
                        {
                            "name": "liquidityDelta",
                            "type": "int256",
                            "internalType": "int256"
                        },
                        {
                            "name": "salt",
                            "type": "bytes32",
                            "internalType": "bytes32"
                        }
                    ]
                },
                {
                    "name": "",
                    "type": "int256",
                    "internalType": "BalanceDelta"
                },
                {
                    "name": "",
                    "type": "int256",
                    "internalType": "BalanceDelta"
                },
                {
                    "name": "",
                    "type": "bytes",
                    "internalType": "bytes"
                }
            ],
            "outputs": [
                {
                    "name": "",
                    "type": "bytes4",
                    "internalType": "bytes4"
                },
                {
                    "name": "",
                    "type": "int256",
                    "internalType": "BalanceDelta"
                }
            ],
            "stateMutability": "nonpayable"
        },
        {
            "type": "function",
            "name": "afterSwap",
            "inputs": [
                {
                    "name": "",
                    "type": "address",
                    "internalType": "address"
                },
                {
                    "name": "key",
                    "type": "tuple",
                    "internalType": "struct PoolKey",
                    "components": [
                        {
                            "name": "currency0",
                            "type": "address",
                            "internalType": "Currency"
                        },
                        {
                            "name": "currency1",
                            "type": "address",
                            "internalType": "Currency"
                        },
                        {
                            "name": "fee",
                            "type": "uint24",
                            "internalType": "uint24"
                        },
                        {
                            "name": "tickSpacing",
                            "type": "int24",
                            "internalType": "int24"
                        },
                        {
                            "name": "hooks",
                            "type": "address",
                            "internalType": "contract IHooks"
                        }
                    ]
                },
                {
                    "name": "swapParams",
                    "type": "tuple",
                    "internalType": "struct IPoolManager.SwapParams",
                    "components": [
                        {
                            "name": "zeroForOne",
                            "type": "bool",
                            "internalType": "bool"
                        },
                        {
                            "name": "amountSpecified",
                            "type": "int256",
                            "internalType": "int256"
                        },
                        {
                            "name": "sqrtPriceLimitX96",
                            "type": "uint160",
                            "internalType": "uint160"
                        }
                    ]
                },
                {
                    "name": "delta",
                    "type": "int256",
                    "internalType": "BalanceDelta"
                },
                {
                    "name": "hookData",
                    "type": "bytes",
                    "internalType": "bytes"
                }
            ],
            "outputs": [
                {
                    "name": "",
                    "type": "bytes4",
                    "internalType": "bytes4"
                },
                {
                    "name": "",
                    "type": "int128",
                    "internalType": "int128"
                }
            ],
            "stateMutability": "nonpayable"
        },
        {
            "type": "function",
            "name": "allowance",
            "inputs": [
                {
                    "name": "",
                    "type": "address",
                    "internalType": "address"
                },
                {
                    "name": "",
                    "type": "address",
                    "internalType": "address"
                }
            ],
            "outputs": [
                {
                    "name": "",
                    "type": "uint256",
                    "internalType": "uint256"
                }
            ],
            "stateMutability": "view"
        },
        {
            "type": "function",
            "name": "approve",
            "inputs": [
                {
                    "name": "spender",
                    "type": "address",
                    "internalType": "address"
                },
                {
                    "name": "amount",
                    "type": "uint256",
                    "internalType": "uint256"
                }
            ],
            "outputs": [
                {
                    "name": "",
                    "type": "bool",
                    "internalType": "bool"
                }
            ],
            "stateMutability": "nonpayable"
        },
        {
            "type": "function",
            "name": "balanceOf",
            "inputs": [
                {
                    "name": "",
                    "type": "address",
                    "internalType": "address"
                }
            ],
            "outputs": [
                {
                    "name": "",
                    "type": "uint256",
                    "internalType": "uint256"
                }
            ],
            "stateMutability": "view"
        },
        {
            "type": "function",
            "name": "beforeAddLiquidity",
            "inputs": [
                {
                    "name": "",
                    "type": "address",
                    "internalType": "address"
                },
                {
                    "name": "",
                    "type": "tuple",
                    "internalType": "struct PoolKey",
                    "components": [
                        {
                            "name": "currency0",
                            "type": "address",
                            "internalType": "Currency"
                        },
                        {
                            "name": "currency1",
                            "type": "address",
                            "internalType": "Currency"
                        },
                        {
                            "name": "fee",
                            "type": "uint24",
                            "internalType": "uint24"
                        },
                        {
                            "name": "tickSpacing",
                            "type": "int24",
                            "internalType": "int24"
                        },
                        {
                            "name": "hooks",
                            "type": "address",
                            "internalType": "contract IHooks"
                        }
                    ]
                },
                {
                    "name": "",
                    "type": "tuple",
                    "internalType": "struct IPoolManager.ModifyLiquidityParams",
                    "components": [
                        {
                            "name": "tickLower",
                            "type": "int24",
                            "internalType": "int24"
                        },
                        {
                            "name": "tickUpper",
                            "type": "int24",
                            "internalType": "int24"
                        },
                        {
                            "name": "liquidityDelta",
                            "type": "int256",
                            "internalType": "int256"
                        },
                        {
                            "name": "salt",
                            "type": "bytes32",
                            "internalType": "bytes32"
                        }
                    ]
                },
                {
                    "name": "",
                    "type": "bytes",
                    "internalType": "bytes"
                }
            ],
            "outputs": [
                {
                    "name": "",
                    "type": "bytes4",
                    "internalType": "bytes4"
                }
            ],
            "stateMutability": "nonpayable"
        },
        {
            "type": "function",
            "name": "beforeDonate",
            "inputs": [
                {
                    "name": "",
                    "type": "address",
                    "internalType": "address"
                },
                {
                    "name": "",
                    "type": "tuple",
                    "internalType": "struct PoolKey",
                    "components": [
                        {
                            "name": "currency0",
                            "type": "address",
                            "internalType": "Currency"
                        },
                        {
                            "name": "currency1",
                            "type": "address",
                            "internalType": "Currency"
                        },
                        {
                            "name": "fee",
                            "type": "uint24",
                            "internalType": "uint24"
                        },
                        {
                            "name": "tickSpacing",
                            "type": "int24",
                            "internalType": "int24"
                        },
                        {
                            "name": "hooks",
                            "type": "address",
                            "internalType": "contract IHooks"
                        }
                    ]
                },
                {
                    "name": "",
                    "type": "uint256",
                    "internalType": "uint256"
                },
                {
                    "name": "",
                    "type": "uint256",
                    "internalType": "uint256"
                },
                {
                    "name": "",
                    "type": "bytes",
                    "internalType": "bytes"
                }
            ],
            "outputs": [
                {
                    "name": "",
                    "type": "bytes4",
                    "internalType": "bytes4"
                }
            ],
            "stateMutability": "nonpayable"
        },
        {
            "type": "function",
            "name": "beforeInitialize",
            "inputs": [
                {
                    "name": "",
                    "type": "address",
                    "internalType": "address"
                },
                {
                    "name": "",
                    "type": "tuple",
                    "internalType": "struct PoolKey",
                    "components": [
                        {
                            "name": "currency0",
                            "type": "address",
                            "internalType": "Currency"
                        },
                        {
                            "name": "currency1",
                            "type": "address",
                            "internalType": "Currency"
                        },
                        {
                            "name": "fee",
                            "type": "uint24",
                            "internalType": "uint24"
                        },
                        {
                            "name": "tickSpacing",
                            "type": "int24",
                            "internalType": "int24"
                        },
                        {
                            "name": "hooks",
                            "type": "address",
                            "internalType": "contract IHooks"
                        }
                    ]
                },
                {
                    "name": "",
                    "type": "uint160",
                    "internalType": "uint160"
                },
                {
                    "name": "",
                    "type": "bytes",
                    "internalType": "bytes"
                }
            ],
            "outputs": [
                {
                    "name": "",
                    "type": "bytes4",
                    "internalType": "bytes4"
                }
            ],
            "stateMutability": "nonpayable"
        },
        {
            "type": "function",
            "name": "beforeRemoveLiquidity",
            "inputs": [
                {
                    "name": "",
                    "type": "address",
                    "internalType": "address"
                },
                {
                    "name": "",
                    "type": "tuple",
                    "internalType": "struct PoolKey",
                    "components": [
                        {
                            "name": "currency0",
                            "type": "address",
                            "internalType": "Currency"
                        },
                        {
                            "name": "currency1",
                            "type": "address",
                            "internalType": "Currency"
                        },
                        {
                            "name": "fee",
                            "type": "uint24",
                            "internalType": "uint24"
                        },
                        {
                            "name": "tickSpacing",
                            "type": "int24",
                            "internalType": "int24"
                        },
                        {
                            "name": "hooks",
                            "type": "address",
                            "internalType": "contract IHooks"
                        }
                    ]
                },
                {
                    "name": "",
                    "type": "tuple",
                    "internalType": "struct IPoolManager.ModifyLiquidityParams",
                    "components": [
                        {
                            "name": "tickLower",
                            "type": "int24",
                            "internalType": "int24"
                        },
                        {
                            "name": "tickUpper",
                            "type": "int24",
                            "internalType": "int24"
                        },
                        {
                            "name": "liquidityDelta",
                            "type": "int256",
                            "internalType": "int256"
                        },
                        {
                            "name": "salt",
                            "type": "bytes32",
                            "internalType": "bytes32"
                        }
                    ]
                },
                {
                    "name": "",
                    "type": "bytes",
                    "internalType": "bytes"
                }
            ],
            "outputs": [
                {
                    "name": "",
                    "type": "bytes4",
                    "internalType": "bytes4"
                }
            ],
            "stateMutability": "nonpayable"
        },
        {
            "type": "function",
            "name": "beforeSwap",
            "inputs": [
                {
                    "name": "",
                    "type": "address",
                    "internalType": "address"
                },
                {
                    "name": "",
                    "type": "tuple",
                    "internalType": "struct PoolKey",
                    "components": [
                        {
                            "name": "currency0",
                            "type": "address",
                            "internalType": "Currency"
                        },
                        {
                            "name": "currency1",
                            "type": "address",
                            "internalType": "Currency"
                        },
                        {
                            "name": "fee",
                            "type": "uint24",
                            "internalType": "uint24"
                        },
                        {
                            "name": "tickSpacing",
                            "type": "int24",
                            "internalType": "int24"
                        },
                        {
                            "name": "hooks",
                            "type": "address",
                            "internalType": "contract IHooks"
                        }
                    ]
                },
                {
                    "name": "",
                    "type": "tuple",
                    "internalType": "struct IPoolManager.SwapParams",
                    "components": [
                        {
                            "name": "zeroForOne",
                            "type": "bool",
                            "internalType": "bool"
                        },
                        {
                            "name": "amountSpecified",
                            "type": "int256",
                            "internalType": "int256"
                        },
                        {
                            "name": "sqrtPriceLimitX96",
                            "type": "uint160",
                            "internalType": "uint160"
                        }
                    ]
                },
                {
                    "name": "",
                    "type": "bytes",
                    "internalType": "bytes"
                }
            ],
            "outputs": [
                {
                    "name": "",
                    "type": "bytes4",
                    "internalType": "bytes4"
                },
                {
                    "name": "",
                    "type": "int256",
                    "internalType": "BeforeSwapDelta"
                },
                {
                    "name": "",
                    "type": "uint24",
                    "internalType": "uint24"
                }
            ],
            "stateMutability": "nonpayable"
        },
        {
            "type": "function",
            "name": "decimals",
            "inputs": [],
            "outputs": [
                {
                    "name": "",
                    "type": "uint8",
                    "internalType": "uint8"
                }
            ],
            "stateMutability": "view"
        },
        {
            "type": "function",
            "name": "getHookData",
            "inputs": [
                {
                    "name": "referrer",
                    "type": "address",
                    "internalType": "address"
                },
                {
                    "name": "referree",
                    "type": "address",
                    "internalType": "address"
                }
            ],
            "outputs": [
                {
                    "name": "",
                    "type": "bytes",
                    "internalType": "bytes"
                }
            ],
            "stateMutability": "pure"
        },
        {
            "type": "function",
            "name": "getHookPermissions",
            "inputs": [],
            "outputs": [
                {
                    "name": "",
                    "type": "tuple",
                    "internalType": "struct Hooks.Permissions",
                    "components": [
                        {
                            "name": "beforeInitialize",
                            "type": "bool",
                            "internalType": "bool"
                        },
                        {
                            "name": "afterInitialize",
                            "type": "bool",
                            "internalType": "bool"
                        },
                        {
                            "name": "beforeAddLiquidity",
                            "type": "bool",
                            "internalType": "bool"
                        },
                        {
                            "name": "afterAddLiquidity",
                            "type": "bool",
                            "internalType": "bool"
                        },
                        {
                            "name": "beforeRemoveLiquidity",
                            "type": "bool",
                            "internalType": "bool"
                        },
                        {
                            "name": "afterRemoveLiquidity",
                            "type": "bool",
                            "internalType": "bool"
                        },
                        {
                            "name": "beforeSwap",
                            "type": "bool",
                            "internalType": "bool"
                        },
                        {
                            "name": "afterSwap",
                            "type": "bool",
                            "internalType": "bool"
                        },
                        {
                            "name": "beforeDonate",
                            "type": "bool",
                            "internalType": "bool"
                        },
                        {
                            "name": "afterDonate",
                            "type": "bool",
                            "internalType": "bool"
                        },
                        {
                            "name": "beforeSwapReturnDelta",
                            "type": "bool",
                            "internalType": "bool"
                        },
                        {
                            "name": "afterSwapReturnDelta",
                            "type": "bool",
                            "internalType": "bool"
                        },
                        {
                            "name": "afterAddLiquidityReturnDelta",
                            "type": "bool",
                            "internalType": "bool"
                        },
                        {
                            "name": "afterRemoveLiquidityReturnDelta",
                            "type": "bool",
                            "internalType": "bool"
                        }
                    ]
                }
            ],
            "stateMutability": "pure"
        },
        {
            "type": "function",
            "name": "name",
            "inputs": [],
            "outputs": [
                {
                    "name": "",
                    "type": "string",
                    "internalType": "string"
                }
            ],
            "stateMutability": "view"
        },
        {
            "type": "function",
            "name": "nonces",
            "inputs": [
                {
                    "name": "",
                    "type": "address",
                    "internalType": "address"
                }
            ],
            "outputs": [
                {
                    "name": "",
                    "type": "uint256",
                    "internalType": "uint256"
                }
            ],
            "stateMutability": "view"
        },
        {
            "type": "function",
            "name": "permit",
            "inputs": [
                {
                    "name": "owner",
                    "type": "address",
                    "internalType": "address"
                },
                {
                    "name": "spender",
                    "type": "address",
                    "internalType": "address"
                },
                {
                    "name": "value",
                    "type": "uint256",
                    "internalType": "uint256"
                },
                {
                    "name": "deadline",
                    "type": "uint256",
                    "internalType": "uint256"
                },
                {
                    "name": "v",
                    "type": "uint8",
                    "internalType": "uint8"
                },
                {
                    "name": "r",
                    "type": "bytes32",
                    "internalType": "bytes32"
                },
                {
                    "name": "s",
                    "type": "bytes32",
                    "internalType": "bytes32"
                }
            ],
            "outputs": [],
            "stateMutability": "nonpayable"
        },
        {
            "type": "function",
            "name": "poolManager",
            "inputs": [],
            "outputs": [
                {
                    "name": "",
                    "type": "address",
                    "internalType": "contract IPoolManager"
                }
            ],
            "stateMutability": "view"
        },
        {
            "type": "function",
            "name": "referredBy",
            "inputs": [
                {
                    "name": "",
                    "type": "address",
                    "internalType": "address"
                }
            ],
            "outputs": [
                {
                    "name": "",
                    "type": "address",
                    "internalType": "address"
                }
            ],
            "stateMutability": "view"
        },
        {
            "type": "function",
            "name": "symbol",
            "inputs": [],
            "outputs": [
                {
                    "name": "",
                    "type": "string",
                    "internalType": "string"
                }
            ],
            "stateMutability": "view"
        },
        {
            "type": "function",
            "name": "totalSupply",
            "inputs": [],
            "outputs": [
                {
                    "name": "",
                    "type": "uint256",
                    "internalType": "uint256"
                }
            ],
            "stateMutability": "view"
        },
        {
            "type": "function",
            "name": "transfer",
            "inputs": [
                {
                    "name": "to",
                    "type": "address",
                    "internalType": "address"
                },
                {
                    "name": "amount",
                    "type": "uint256",
                    "internalType": "uint256"
                }
            ],
            "outputs": [
                {
                    "name": "",
                    "type": "bool",
                    "internalType": "bool"
                }
            ],
            "stateMutability": "nonpayable"
        },
        {
            "type": "function",
            "name": "transferFrom",
            "inputs": [
                {
                    "name": "from",
                    "type": "address",
                    "internalType": "address"
                },
                {
                    "name": "to",
                    "type": "address",
                    "internalType": "address"
                },
                {
                    "name": "amount",
                    "type": "uint256",
                    "internalType": "uint256"
                }
            ],
            "outputs": [
                {
                    "name": "",
                    "type": "bool",
                    "internalType": "bool"
                }
            ],
            "stateMutability": "nonpayable"
        },
        {
            "type": "function",
            "name": "unlockCallback",
            "inputs": [
                {
                    "name": "data",
                    "type": "bytes",
                    "internalType": "bytes"
                }
            ],
            "outputs": [
                {
                    "name": "",
                    "type": "bytes",
                    "internalType": "bytes"
                }
            ],
            "stateMutability": "nonpayable"
        },
        {
            "type": "event",
            "name": "Approval",
            "inputs": [
                {
                    "name": "owner",
                    "type": "address",
                    "indexed": true,
                    "internalType": "address"
                },
                {
                    "name": "spender",
                    "type": "address",
                    "indexed": true,
                    "internalType": "address"
                },
                {
                    "name": "amount",
                    "type": "uint256",
                    "indexed": false,
                    "internalType": "uint256"
                }
            ],
            "anonymous": false
        },
        {
            "type": "event",
            "name": "Transfer",
            "inputs": [
                {
                    "name": "from",
                    "type": "address",
                    "indexed": true,
                    "internalType": "address"
                },
                {
                    "name": "to",
                    "type": "address",
                    "indexed": true,
                    "internalType": "address"
                },
                {
                    "name": "amount",
                    "type": "uint256",
                    "indexed": false,
                    "internalType": "uint256"
                }
            ],
            "anonymous": false
        },
        {
            "type": "error",
            "name": "HookNotImplemented",
            "inputs": []
        },
        {
            "type": "error",
            "name": "InvalidPool",
            "inputs": []
        },
        {
            "type": "error",
            "name": "LockFailure",
            "inputs": []
        },
        {
            "type": "error",
            "name": "NotPoolManager",
            "inputs": []
        },
        {
            "type": "error",
            "name": "NotSelf",
            "inputs": []
        }
    ],
    "bytecode": {
        "object": "0x610100604052348015610010575f80fd5b50604051611e04380380611e0483398101604081905261002f91610413565b6001600160a01b038316608052818160128561004a30610086565b505f6100568482610519565b5060016100638382610519565b5060ff811660a0524660c052610077610179565b60e05250610644945050505050565b61017681610171604080516101c0810182525f80825260208201819052918101829052606081018290526080810182905260a0810182905260c0810182905260e08101829052610100810182905261012081018290526101408101829052610160810182905261018081018290526101a081019190915250604080516101c0810182525f808252602082018190529181018290526001606082018190526080820183905260a0820183905260c0820183905260e0820152610100810182905261012081018290526101408101829052610160810182905261018081018290526101a081019190915290565b610211565b50565b5f7f8b73c3c69bb8fe3d512ecc4cf759cc79239f7b179b0ffacaa9a75d522b39400f5f6040516101a991906105d3565b6040805191829003822060208301939093528101919091527fc89efdaa54c0f20c7adf612882df0950f5a951637e0307cdcb4c672f298b8bc660608201524660808201523060a082015260c00160405160208183030381529060405280519060200120905090565b80511515612000831615151415806102355750602081015115156110008316151514155b8061024c5750604081015115156108008316151514155b806102635750606081015115156104008316151514155b8061027a5750608081015115156102008316151514155b80610291575060a081015115156101008316151514155b806102a7575060c0810151151560808316151514155b806102bd575060e0810151151560408316151514155b806102d45750610100810151151560208316151514155b806102eb5750610120810151151560108316151514155b806103025750610140810151151560088316151514155b806103195750610160810151151560048316151514155b806103305750610180810151151560028316151514155b8061034757506101a0810151151560018316151514155b1561035d5761035d630732d7b560e51b83610361565b5050565b815f526001600160a01b03811660045260245ffd5b634e487b7160e01b5f52604160045260245ffd5b5f82601f830112610399575f80fd5b81516001600160401b038111156103b2576103b2610376565b604051601f8201601f19908116603f011681016001600160401b03811182821017156103e0576103e0610376565b6040528181528382016020018510156103f7575f80fd5b8160208501602083015e5f918101602001919091529392505050565b5f805f60608486031215610425575f80fd5b83516001600160a01b038116811461043b575f80fd5b60208501519093506001600160401b03811115610456575f80fd5b6104628682870161038a565b604086015190935090506001600160401b0381111561047f575f80fd5b61048b8682870161038a565b9150509250925092565b600181811c908216806104a957607f821691505b6020821081036104c757634e487b7160e01b5f52602260045260245ffd5b50919050565b601f82111561051457805f5260205f20601f840160051c810160208510156104f25750805b601f840160051c820191505b81811015610511575f81556001016104fe565b50505b505050565b81516001600160401b0381111561053257610532610376565b610546816105408454610495565b846104cd565b6020601f821160018114610578575f83156105615750848201515b5f19600385901b1c1916600184901b178455610511565b5f84815260208120601f198516915b828110156105a75787850151825560209485019460019092019101610587565b50848210156105c457868401515f19600387901b60f8161c191681555b50505050600190811b01905550565b5f8083546105e081610495565b6001821680156105f7576001811461060c57610639565b60ff1983168652811515820286019350610639565b865f5260205f205f5b8381101561063157815488820152600190910190602001610615565b505081860193505b509195945050505050565b60805160a05160c05160e05161178661067e5f395f61080501525f6107d001525f61029901525f8181610583015261086b01526117865ff3fe608060405234801561000f575f80fd5b50600436106101bb575f3560e01c80637ecebe00116100f3578063b47b2fb111610093578063d505accf1161006e578063d505accf14610569578063dc4c90d31461057e578063dd62ed3e146105a5578063e1b4af6914610467575f80fd5b8063b47b2fb114610431578063b6a8b0fa14610467578063c4e833ce14610475575f80fd5b80639f063efc116100ce5780639f063efc146103bd578063a9059cbb146103d0578063a90f8e9a146103e3578063a910f80f14610423575f80fd5b80637ecebe001461038357806391dd7346146103a257806395d89b41146103b5575f80fd5b8063313ce5671161015e578063458658291161013957806345865829146102e3578063575e24b4146102f35780636c2bbe7e1461033157806370a0823114610364575f80fd5b8063313ce567146102945780633440d820146102cd5780633644e515146102db575f80fd5b806318160ddd1161019957806318160ddd1461023e57806321d0ee701461025557806323b872dd14610281578063259982e514610255575f80fd5b806306fdde03146101bf578063095ea7b3146101dd5780631783e86514610200575b5f80fd5b6101c76105cf565b6040516101d49190610f82565b60405180910390f35b6101f06101eb366004610fab565b61065a565b60405190151581526020016101d4565b6101c761020e366004610fd5565b604080516001600160a01b0393841660208201529190921681830152815180820383018152606090910190915290565b61024760025481565b6040519081526020016101d4565b610268610263366004611077565b6106c6565b6040516001600160e01b031990911681526020016101d4565b6101f061028f3660046110ee565b6106e0565b6102bb7f000000000000000000000000000000000000000000000000000000000000000081565b60405160ff90911681526020016101d4565b61026861026336600461112c565b6102476107cd565b610247681b1ae4d6e2ef50000081565b610306610301366004611196565b610827565b604080516001600160e01b03199094168452602084019290925262ffffff16908201526060016101d4565b61034461033f3660046111f0565b610843565b604080516001600160e01b031990931683526020830191909152016101d4565b61024761037236600461127b565b60036020525f908152604090205481565b61024761039136600461127b565b60056020525f908152604090205481565b6101c76103b0366004611296565b61085e565b6101c76108ba565b6103446103cb3660046111f0565b6108c7565b6101f06103de366004610fab565b61093a565b61040b6103f136600461127b565b60066020525f90815260409020546001600160a01b031681565b6040516001600160a01b0390911681526020016101d4565b6102686102633660046112d5565b61044461043f366004611365565b6109b0565b604080516001600160e01b03199093168352600f9190910b6020830152016101d4565b6102686102633660046113c8565b61055c604080516101c0810182525f80825260208201819052918101829052606081018290526080810182905260a0810182905260c0810182905260e08101829052610100810182905261012081018290526101408101829052610160810182905261018081018290526101a081019190915250604080516101c0810182525f808252602082018190529181018290526001606082018190526080820183905260a0820183905260c0820183905260e0820152610100810182905261012081018290526101408101829052610160810182905261018081018290526101a081019190915290565b6040516101d49190611422565b61057c610577366004611543565b610a63565b005b61040b7f000000000000000000000000000000000000000000000000000000000000000081565b6102476105b3366004610fd5565b600460209081525f928352604080842090915290825290205481565b5f80546105db906115b4565b80601f0160208091040260200160405190810160405280929190818152602001828054610607906115b4565b80156106525780601f1061062957610100808354040283529160200191610652565b820191905f5260205f20905b81548152906001019060200180831161063557829003601f168201915b505050505081565b335f8181526004602090815260408083206001600160a01b038716808552925280832085905551919290917f8c5be1e5ebec7d5bd14f71427d1e84f3dd0314c0f7b2291e5b200ac8c7c3b925906106b49086815260200190565b60405180910390a35060015b92915050565b5f604051630a85dc2960e01b815260040160405180910390fd5b6001600160a01b0383165f9081526004602090815260408083203384529091528120545f1981146107395761071583826115fa565b6001600160a01b0386165f9081526004602090815260408083203384529091529020555b6001600160a01b0385165f90815260036020526040812080548592906107609084906115fa565b90915550506001600160a01b038085165f81815260036020526040908190208054870190555190918716907fddf252ad1be2c89b69c2b068fc378daa952ba7f163c4a11628f55a4df523b3ef906107ba9087815260200190565b60405180910390a3506001949350505050565b5f7f00000000000000000000000000000000000000000000000000000000000000004614610802576107fd610cb5565b905090565b507f000000000000000000000000000000000000000000000000000000000000000090565b5f805f604051630a85dc2960e01b815260040160405180910390fd5b5f80604051630a85dc2960e01b815260040160405180910390fd5b6060336001600160a01b037f000000000000000000000000000000000000000000000000000000000000000016146108a95760405163570c108560e11b815260040160405180910390fd5b6108b38383610d4d565b9392505050565b600180546105db906115b4565b5f806108e66108d960208a018a61127b565b6001600160a01b03161590565b6108fb57506327c18fbf60e21b90508461092e565b5f6109068760801d90565b61090f9061160d565b600f0b905061091f858583610de6565b506327c18fbf60e21b91508590505b97509795505050505050565b335f9081526003602052604081208054839190839061095a9084906115fa565b90915550506001600160a01b0383165f81815260036020526040908190208054850190555133907fddf252ad1be2c89b69c2b068fc378daa952ba7f163c4a11628f55a4df523b3ef906106b49086815260200190565b5f806109c26108d9602089018961127b565b6109d7575063b47b2fb160e01b90505f610a58565b6109e4602087018761163a565b6109f9575063b47b2fb160e01b90505f610a58565b5f80876020013512610a2057610a0f8660801d90565b610a189061160d565b600f0b610a2d565b610a2d6020880135611659565b90505f610a3b600583611673565b9050610a48868683610de6565b5063b47b2fb160e01b92505f9150505b965096945050505050565b42841015610ab85760405162461bcd60e51b815260206004820152601760248201527f5045524d49545f444541444c494e455f4558504952454400000000000000000060448201526064015b60405180910390fd5b5f6001610ac36107cd565b6001600160a01b038a81165f8181526005602090815260409182902080546001810190915582517f6e71edae12b1b97f4d1f60370fef10105fa2faae0126114a169c64845d6126c98184015280840194909452938d166060840152608083018c905260a083019390935260c08083018b90528151808403909101815260e08301909152805192019190912061190160f01b6101008301526101028201929092526101228101919091526101420160408051601f1981840301815282825280516020918201205f84529083018083525260ff871690820152606081018590526080810184905260a0016020604051602081039080840390855afa158015610bcb573d5f803e3d5ffd5b5050604051601f1901519150506001600160a01b03811615801590610c015750876001600160a01b0316816001600160a01b0316145b610c4d5760405162461bcd60e51b815260206004820152600e60248201527f494e56414c49445f5349474e45520000000000000000000000000000000000006044820152606401610aaf565b6001600160a01b039081165f9081526004602090815260408083208a8516808552908352928190208990555188815291928a16917f8c5be1e5ebec7d5bd14f71427d1e84f3dd0314c0f7b2291e5b200ac8c7c3b925910160405180910390a350505050505050565b5f7f8b73c3c69bb8fe3d512ecc4cf759cc79239f7b179b0ffacaa9a75d522b39400f5f604051610ce59190611692565b6040805191829003822060208301939093528101919091527fc89efdaa54c0f20c7adf612882df0950f5a951637e0307cdcb4c672f298b8bc660608201524660808201523060a082015260c00160405160208183030381529060405280519060200120905090565b60605f80306001600160a01b03168585604051610d6b92919061172e565b5f604051808303815f865af19150503d805f8114610da4576040519150601f19603f3d011682016040523d82523d5f602084013e610da9565b606091505b50915091508115610dbd5791506106c09050565b80515f03610dde576040516314815f4760e31b815260040160405180910390fd5b805160208201fd5b5f829003610df357505050565b5f80610e0184860186610fd5565b90925090506001600160a01b038116610e1b575050505050565b6001600160a01b038181165f9081526006602052604090205416158015610e4a57506001600160a01b03821615155b15610ea7576001600160a01b038181165f90815260066020526040902080547fffffffffffffffffffffffff000000000000000000000000000000000000000016918416919091179055610ea782681b1ae4d6e2ef500000610eeb565b6001600160a01b038181165f908152600660205260409020541615610eda57610eda82610ed5600a86611673565b610eeb565b610ee48184610eeb565b5050505050565b8060025f828254610efc919061173d565b90915550506001600160a01b0382165f818152600360209081526040808320805486019055518481527fddf252ad1be2c89b69c2b068fc378daa952ba7f163c4a11628f55a4df523b3ef910160405180910390a35050565b5f81518084528060208401602086015e5f602082860101526020601f19601f83011685010191505092915050565b602081525f6108b36020830184610f54565b6001600160a01b0381168114610fa8575f80fd5b50565b5f8060408385031215610fbc575f80fd5b8235610fc781610f94565b946020939093013593505050565b5f8060408385031215610fe6575f80fd5b8235610ff181610f94565b9150602083013561100181610f94565b809150509250929050565b5f60a0828403121561101c575f80fd5b50919050565b5f6080828403121561101c575f80fd5b5f8083601f840112611042575f80fd5b50813567ffffffffffffffff811115611059575f80fd5b602083019150836020828501011115611070575f80fd5b9250929050565b5f805f805f610160868803121561108c575f80fd5b853561109781610f94565b94506110a6876020880161100c565b93506110b58760c08801611022565b925061014086013567ffffffffffffffff8111156110d1575f80fd5b6110dd88828901611032565b969995985093965092949392505050565b5f805f60608486031215611100575f80fd5b833561110b81610f94565b9250602084013561111b81610f94565b929592945050506040919091013590565b5f805f805f6101008688031215611141575f80fd5b853561114c81610f94565b945061115b876020880161100c565b935060c086013561116b81610f94565b925060e086013567ffffffffffffffff8111156110d1575f80fd5b5f6060828403121561101c575f80fd5b5f805f805f61014086880312156111ab575f80fd5b85356111b681610f94565b94506111c5876020880161100c565b93506111d48760c08801611186565b925061012086013567ffffffffffffffff8111156110d1575f80fd5b5f805f805f805f6101a0888a031215611207575f80fd5b873561121281610f94565b96506112218960208a0161100c565b95506112308960c08a01611022565b94506101408801359350610160880135925061018088013567ffffffffffffffff81111561125c575f80fd5b6112688a828b01611032565b989b979a50959850939692959293505050565b5f6020828403121561128b575f80fd5b81356108b381610f94565b5f80602083850312156112a7575f80fd5b823567ffffffffffffffff8111156112bd575f80fd5b6112c985828601611032565b90969095509350505050565b5f805f805f8061012087890312156112eb575f80fd5b86356112f681610f94565b9550611305886020890161100c565b945060c087013561131581610f94565b935060e0870135600281900b811461132b575f80fd5b925061010087013567ffffffffffffffff811115611347575f80fd5b61135389828a01611032565b979a9699509497509295939492505050565b5f805f805f80610160878903121561137b575f80fd5b863561138681610f94565b9550611395886020890161100c565b94506113a48860c08901611186565b9350610120870135925061014087013567ffffffffffffffff811115611347575f80fd5b5f805f805f8061012087890312156113de575f80fd5b86356113e981610f94565b95506113f8886020890161100c565b945060c0870135935060e0870135925061010087013567ffffffffffffffff811115611347575f80fd5b8151151581526101c081016020830151611440602084018215159052565b506040830151611454604084018215159052565b506060830151611468606084018215159052565b50608083015161147c608084018215159052565b5060a083015161149060a084018215159052565b5060c08301516114a460c084018215159052565b5060e08301516114b860e084018215159052565b506101008301516114ce61010084018215159052565b506101208301516114e461012084018215159052565b506101408301516114fa61014084018215159052565b5061016083015161151061016084018215159052565b5061018083015161152661018084018215159052565b506101a083015161153c6101a084018215159052565b5092915050565b5f805f805f805f60e0888a031215611559575f80fd5b873561156481610f94565b9650602088013561157481610f94565b95506040880135945060608801359350608088013560ff81168114611597575f80fd5b9699959850939692959460a0840135945060c09093013592915050565b600181811c908216806115c857607f821691505b60208210810361101c57634e487b7160e01b5f52602260045260245ffd5b634e487b7160e01b5f52601160045260245ffd5b818103818111156106c0576106c06115e6565b5f81600f0b6f7fffffffffffffffffffffffffffffff198103611632576116326115e6565b5f0392915050565b5f6020828403121561164a575f80fd5b813580151581146108b3575f80fd5b5f600160ff1b820161166d5761166d6115e6565b505f0390565b5f8261168d57634e487b7160e01b5f52601260045260245ffd5b500490565b5f8083545f8160011c905060018216806116ad57607f821691505b6020821081036116cb57634e487b7160e01b5f52602260045260245ffd5b8080156116df57600181146116f457611722565b60ff1984168752821515830287019450611722565b5f888152602090205f5b8481101561171a578154898201526001909101906020016116fe565b505082870194505b50929695505050505050565b818382375f9101908152919050565b808201808211156106c0576106c06115e656fea2646970667358221220d716b562e923de6d65b3b209ec9a67b04d4c7ea0304f1281f0d0c45a337a251464736f6c634300081a0033",
        "linkReferences": {}
    },
    "methodIdentifiers": {
        "DOMAIN_SEPARATOR()": "3644e515",
        "POINTS_FOR_REFERRAL()": "45865829",
        "afterAddLiquidity(address,(address,address,uint24,int24,address),(int24,int24,int256,bytes32),int256,int256,bytes)": "9f063efc",
        "afterDonate(address,(address,address,uint24,int24,address),uint256,uint256,bytes)": "e1b4af69",
        "afterInitialize(address,(address,address,uint24,int24,address),uint160,int24,bytes)": "a910f80f",
        "afterRemoveLiquidity(address,(address,address,uint24,int24,address),(int24,int24,int256,bytes32),int256,int256,bytes)": "6c2bbe7e",
        "afterSwap(address,(address,address,uint24,int24,address),(bool,int256,uint160),int256,bytes)": "b47b2fb1",
        "allowance(address,address)": "dd62ed3e",
        "approve(address,uint256)": "095ea7b3",
        "balanceOf(address)": "70a08231",
        "beforeAddLiquidity(address,(address,address,uint24,int24,address),(int24,int24,int256,bytes32),bytes)": "259982e5",
        "beforeDonate(address,(address,address,uint24,int24,address),uint256,uint256,bytes)": "b6a8b0fa",
        "beforeInitialize(address,(address,address,uint24,int24,address),uint160,bytes)": "3440d820",
        "beforeRemoveLiquidity(address,(address,address,uint24,int24,address),(int24,int24,int256,bytes32),bytes)": "21d0ee70",
        "beforeSwap(address,(address,address,uint24,int24,address),(bool,int256,uint160),bytes)": "575e24b4",
        "decimals()": "313ce567",
        "getHookData(address,address)": "1783e865",
        "getHookPermissions()": "c4e833ce",
        "name()": "06fdde03",
        "nonces(address)": "7ecebe00",
        "permit(address,address,uint256,uint256,uint8,bytes32,bytes32)": "d505accf",
        "poolManager()": "dc4c90d3",
        "referredBy(address)": "a90f8e9a",
        "symbol()": "95d89b41",
        "totalSupply()": "18160ddd",
        "transfer(address,uint256)": "a9059cbb",
        "transferFrom(address,address,uint256)": "23b872dd",
        "unlockCallback(bytes)": "91dd7346"
    },
    "id": 95
}