{
    "abi": [
        {
            "type": "constructor",
            "inputs": [
                {
                    "name": "_manager",
                    "type": "address",
                    "internalType": "contract IPoolManager"
                },
                {
                    "name": "_uri",
                    "type": "string",
                    "internalType": "string"
                }
            ],
            "stateMutability": "nonpayable"
        },
        {
            "type": "function",
            "name": "afterAddLiquidity",
            "inputs": [
                {
                    "name": "",
                    "type": "address",
                    "internalType": "address"
                },
                {
                    "name": "",
                    "type": "tuple",
                    "internalType": "struct PoolKey",
                    "components": [
                        {
                            "name": "currency0",
                            "type": "address",
                            "internalType": "Currency"
                        },
                        {
                            "name": "currency1",
                            "type": "address",
                            "internalType": "Currency"
                        },
                        {
                            "name": "fee",
                            "type": "uint24",
                            "internalType": "uint24"
                        },
                        {
                            "name": "tickSpacing",
                            "type": "int24",
                            "internalType": "int24"
                        },
                        {
                            "name": "hooks",
                            "type": "address",
                            "internalType": "contract IHooks"
                        }
                    ]
                },
                {
                    "name": "",
                    "type": "tuple",
                    "internalType": "struct IPoolManager.ModifyLiquidityParams",
                    "components": [
                        {
                            "name": "tickLower",
                            "type": "int24",
                            "internalType": "int24"
                        },
                        {
                            "name": "tickUpper",
                            "type": "int24",
                            "internalType": "int24"
                        },
                        {
                            "name": "liquidityDelta",
                            "type": "int256",
                            "internalType": "int256"
                        },
                        {
                            "name": "salt",
                            "type": "bytes32",
                            "internalType": "bytes32"
                        }
                    ]
                },
                {
                    "name": "",
                    "type": "int256",
                    "internalType": "BalanceDelta"
                },
                {
                    "name": "",
                    "type": "int256",
                    "internalType": "BalanceDelta"
                },
                {
                    "name": "",
                    "type": "bytes",
                    "internalType": "bytes"
                }
            ],
            "outputs": [
                {
                    "name": "",
                    "type": "bytes4",
                    "internalType": "bytes4"
                },
                {
                    "name": "",
                    "type": "int256",
                    "internalType": "BalanceDelta"
                }
            ],
            "stateMutability": "nonpayable"
        },
        {
            "type": "function",
            "name": "afterDonate",
            "inputs": [
                {
                    "name": "",
                    "type": "address",
                    "internalType": "address"
                },
                {
                    "name": "",
                    "type": "tuple",
                    "internalType": "struct PoolKey",
                    "components": [
                        {
                            "name": "currency0",
                            "type": "address",
                            "internalType": "Currency"
                        },
                        {
                            "name": "currency1",
                            "type": "address",
                            "internalType": "Currency"
                        },
                        {
                            "name": "fee",
                            "type": "uint24",
                            "internalType": "uint24"
                        },
                        {
                            "name": "tickSpacing",
                            "type": "int24",
                            "internalType": "int24"
                        },
                        {
                            "name": "hooks",
                            "type": "address",
                            "internalType": "contract IHooks"
                        }
                    ]
                },
                {
                    "name": "",
                    "type": "uint256",
                    "internalType": "uint256"
                },
                {
                    "name": "",
                    "type": "uint256",
                    "internalType": "uint256"
                },
                {
                    "name": "",
                    "type": "bytes",
                    "internalType": "bytes"
                }
            ],
            "outputs": [
                {
                    "name": "",
                    "type": "bytes4",
                    "internalType": "bytes4"
                }
            ],
            "stateMutability": "nonpayable"
        },
        {
            "type": "function",
            "name": "afterInitialize",
            "inputs": [
                {
                    "name": "",
                    "type": "address",
                    "internalType": "address"
                },
                {
                    "name": "key",
                    "type": "tuple",
                    "internalType": "struct PoolKey",
                    "components": [
                        {
                            "name": "currency0",
                            "type": "address",
                            "internalType": "Currency"
                        },
                        {
                            "name": "currency1",
                            "type": "address",
                            "internalType": "Currency"
                        },
                        {
                            "name": "fee",
                            "type": "uint24",
                            "internalType": "uint24"
                        },
                        {
                            "name": "tickSpacing",
                            "type": "int24",
                            "internalType": "int24"
                        },
                        {
                            "name": "hooks",
                            "type": "address",
                            "internalType": "contract IHooks"
                        }
                    ]
                },
                {
                    "name": "",
                    "type": "uint160",
                    "internalType": "uint160"
                },
                {
                    "name": "tick",
                    "type": "int24",
                    "internalType": "int24"
                }
            ],
            "outputs": [
                {
                    "name": "",
                    "type": "bytes4",
                    "internalType": "bytes4"
                }
            ],
            "stateMutability": "nonpayable"
        },
        {
            "type": "function",
            "name": "afterRemoveLiquidity",
            "inputs": [
                {
                    "name": "",
                    "type": "address",
                    "internalType": "address"
                },
                {
                    "name": "",
                    "type": "tuple",
                    "internalType": "struct PoolKey",
                    "components": [
                        {
                            "name": "currency0",
                            "type": "address",
                            "internalType": "Currency"
                        },
                        {
                            "name": "currency1",
                            "type": "address",
                            "internalType": "Currency"
                        },
                        {
                            "name": "fee",
                            "type": "uint24",
                            "internalType": "uint24"
                        },
                        {
                            "name": "tickSpacing",
                            "type": "int24",
                            "internalType": "int24"
                        },
                        {
                            "name": "hooks",
                            "type": "address",
                            "internalType": "contract IHooks"
                        }
                    ]
                },
                {
                    "name": "",
                    "type": "tuple",
                    "internalType": "struct IPoolManager.ModifyLiquidityParams",
                    "components": [
                        {
                            "name": "tickLower",
                            "type": "int24",
                            "internalType": "int24"
                        },
                        {
                            "name": "tickUpper",
                            "type": "int24",
                            "internalType": "int24"
                        },
                        {
                            "name": "liquidityDelta",
                            "type": "int256",
                            "internalType": "int256"
                        },
                        {
                            "name": "salt",
                            "type": "bytes32",
                            "internalType": "bytes32"
                        }
                    ]
                },
                {
                    "name": "",
                    "type": "int256",
                    "internalType": "BalanceDelta"
                },
                {
                    "name": "",
                    "type": "int256",
                    "internalType": "BalanceDelta"
                },
                {
                    "name": "",
                    "type": "bytes",
                    "internalType": "bytes"
                }
            ],
            "outputs": [
                {
                    "name": "",
                    "type": "bytes4",
                    "internalType": "bytes4"
                },
                {
                    "name": "",
                    "type": "int256",
                    "internalType": "BalanceDelta"
                }
            ],
            "stateMutability": "nonpayable"
        },
        {
            "type": "function",
            "name": "afterSwap",
            "inputs": [
                {
                    "name": "sender",
                    "type": "address",
                    "internalType": "address"
                },
                {
                    "name": "key",
                    "type": "tuple",
                    "internalType": "struct PoolKey",
                    "components": [
                        {
                            "name": "currency0",
                            "type": "address",
                            "internalType": "Currency"
                        },
                        {
                            "name": "currency1",
                            "type": "address",
                            "internalType": "Currency"
                        },
                        {
                            "name": "fee",
                            "type": "uint24",
                            "internalType": "uint24"
                        },
                        {
                            "name": "tickSpacing",
                            "type": "int24",
                            "internalType": "int24"
                        },
                        {
                            "name": "hooks",
                            "type": "address",
                            "internalType": "contract IHooks"
                        }
                    ]
                },
                {
                    "name": "params",
                    "type": "tuple",
                    "internalType": "struct IPoolManager.SwapParams",
                    "components": [
                        {
                            "name": "zeroForOne",
                            "type": "bool",
                            "internalType": "bool"
                        },
                        {
                            "name": "amountSpecified",
                            "type": "int256",
                            "internalType": "int256"
                        },
                        {
                            "name": "sqrtPriceLimitX96",
                            "type": "uint160",
                            "internalType": "uint160"
                        }
                    ]
                },
                {
                    "name": "",
                    "type": "int256",
                    "internalType": "BalanceDelta"
                },
                {
                    "name": "",
                    "type": "bytes",
                    "internalType": "bytes"
                }
            ],
            "outputs": [
                {
                    "name": "",
                    "type": "bytes4",
                    "internalType": "bytes4"
                },
                {
                    "name": "",
                    "type": "int128",
                    "internalType": "int128"
                }
            ],
            "stateMutability": "nonpayable"
        },
        {
            "type": "function",
            "name": "balanceOf",
            "inputs": [
                {
                    "name": "account",
                    "type": "address",
                    "internalType": "address"
                },
                {
                    "name": "id",
                    "type": "uint256",
                    "internalType": "uint256"
                }
            ],
            "outputs": [
                {
                    "name": "",
                    "type": "uint256",
                    "internalType": "uint256"
                }
            ],
            "stateMutability": "view"
        },
        {
            "type": "function",
            "name": "balanceOfBatch",
            "inputs": [
                {
                    "name": "accounts",
                    "type": "address[]",
                    "internalType": "address[]"
                },
                {
                    "name": "ids",
                    "type": "uint256[]",
                    "internalType": "uint256[]"
                }
            ],
            "outputs": [
                {
                    "name": "",
                    "type": "uint256[]",
                    "internalType": "uint256[]"
                }
            ],
            "stateMutability": "view"
        },
        {
            "type": "function",
            "name": "beforeAddLiquidity",
            "inputs": [
                {
                    "name": "",
                    "type": "address",
                    "internalType": "address"
                },
                {
                    "name": "",
                    "type": "tuple",
                    "internalType": "struct PoolKey",
                    "components": [
                        {
                            "name": "currency0",
                            "type": "address",
                            "internalType": "Currency"
                        },
                        {
                            "name": "currency1",
                            "type": "address",
                            "internalType": "Currency"
                        },
                        {
                            "name": "fee",
                            "type": "uint24",
                            "internalType": "uint24"
                        },
                        {
                            "name": "tickSpacing",
                            "type": "int24",
                            "internalType": "int24"
                        },
                        {
                            "name": "hooks",
                            "type": "address",
                            "internalType": "contract IHooks"
                        }
                    ]
                },
                {
                    "name": "",
                    "type": "tuple",
                    "internalType": "struct IPoolManager.ModifyLiquidityParams",
                    "components": [
                        {
                            "name": "tickLower",
                            "type": "int24",
                            "internalType": "int24"
                        },
                        {
                            "name": "tickUpper",
                            "type": "int24",
                            "internalType": "int24"
                        },
                        {
                            "name": "liquidityDelta",
                            "type": "int256",
                            "internalType": "int256"
                        },
                        {
                            "name": "salt",
                            "type": "bytes32",
                            "internalType": "bytes32"
                        }
                    ]
                },
                {
                    "name": "",
                    "type": "bytes",
                    "internalType": "bytes"
                }
            ],
            "outputs": [
                {
                    "name": "",
                    "type": "bytes4",
                    "internalType": "bytes4"
                }
            ],
            "stateMutability": "nonpayable"
        },
        {
            "type": "function",
            "name": "beforeDonate",
            "inputs": [
                {
                    "name": "",
                    "type": "address",
                    "internalType": "address"
                },
                {
                    "name": "",
                    "type": "tuple",
                    "internalType": "struct PoolKey",
                    "components": [
                        {
                            "name": "currency0",
                            "type": "address",
                            "internalType": "Currency"
                        },
                        {
                            "name": "currency1",
                            "type": "address",
                            "internalType": "Currency"
                        },
                        {
                            "name": "fee",
                            "type": "uint24",
                            "internalType": "uint24"
                        },
                        {
                            "name": "tickSpacing",
                            "type": "int24",
                            "internalType": "int24"
                        },
                        {
                            "name": "hooks",
                            "type": "address",
                            "internalType": "contract IHooks"
                        }
                    ]
                },
                {
                    "name": "",
                    "type": "uint256",
                    "internalType": "uint256"
                },
                {
                    "name": "",
                    "type": "uint256",
                    "internalType": "uint256"
                },
                {
                    "name": "",
                    "type": "bytes",
                    "internalType": "bytes"
                }
            ],
            "outputs": [
                {
                    "name": "",
                    "type": "bytes4",
                    "internalType": "bytes4"
                }
            ],
            "stateMutability": "nonpayable"
        },
        {
            "type": "function",
            "name": "beforeInitialize",
            "inputs": [
                {
                    "name": "",
                    "type": "address",
                    "internalType": "address"
                },
                {
                    "name": "",
                    "type": "tuple",
                    "internalType": "struct PoolKey",
                    "components": [
                        {
                            "name": "currency0",
                            "type": "address",
                            "internalType": "Currency"
                        },
                        {
                            "name": "currency1",
                            "type": "address",
                            "internalType": "Currency"
                        },
                        {
                            "name": "fee",
                            "type": "uint24",
                            "internalType": "uint24"
                        },
                        {
                            "name": "tickSpacing",
                            "type": "int24",
                            "internalType": "int24"
                        },
                        {
                            "name": "hooks",
                            "type": "address",
                            "internalType": "contract IHooks"
                        }
                    ]
                },
                {
                    "name": "",
                    "type": "uint160",
                    "internalType": "uint160"
                }
            ],
            "outputs": [
                {
                    "name": "",
                    "type": "bytes4",
                    "internalType": "bytes4"
                }
            ],
            "stateMutability": "nonpayable"
        },
        {
            "type": "function",
            "name": "beforeRemoveLiquidity",
            "inputs": [
                {
                    "name": "",
                    "type": "address",
                    "internalType": "address"
                },
                {
                    "name": "",
                    "type": "tuple",
                    "internalType": "struct PoolKey",
                    "components": [
                        {
                            "name": "currency0",
                            "type": "address",
                            "internalType": "Currency"
                        },
                        {
                            "name": "currency1",
                            "type": "address",
                            "internalType": "Currency"
                        },
                        {
                            "name": "fee",
                            "type": "uint24",
                            "internalType": "uint24"
                        },
                        {
                            "name": "tickSpacing",
                            "type": "int24",
                            "internalType": "int24"
                        },
                        {
                            "name": "hooks",
                            "type": "address",
                            "internalType": "contract IHooks"
                        }
                    ]
                },
                {
                    "name": "",
                    "type": "tuple",
                    "internalType": "struct IPoolManager.ModifyLiquidityParams",
                    "components": [
                        {
                            "name": "tickLower",
                            "type": "int24",
                            "internalType": "int24"
                        },
                        {
                            "name": "tickUpper",
                            "type": "int24",
                            "internalType": "int24"
                        },
                        {
                            "name": "liquidityDelta",
                            "type": "int256",
                            "internalType": "int256"
                        },
                        {
                            "name": "salt",
                            "type": "bytes32",
                            "internalType": "bytes32"
                        }
                    ]
                },
                {
                    "name": "",
                    "type": "bytes",
                    "internalType": "bytes"
                }
            ],
            "outputs": [
                {
                    "name": "",
                    "type": "bytes4",
                    "internalType": "bytes4"
                }
            ],
            "stateMutability": "nonpayable"
        },
        {
            "type": "function",
            "name": "beforeSwap",
            "inputs": [
                {
                    "name": "",
                    "type": "address",
                    "internalType": "address"
                },
                {
                    "name": "",
                    "type": "tuple",
                    "internalType": "struct PoolKey",
                    "components": [
                        {
                            "name": "currency0",
                            "type": "address",
                            "internalType": "Currency"
                        },
                        {
                            "name": "currency1",
                            "type": "address",
                            "internalType": "Currency"
                        },
                        {
                            "name": "fee",
                            "type": "uint24",
                            "internalType": "uint24"
                        },
                        {
                            "name": "tickSpacing",
                            "type": "int24",
                            "internalType": "int24"
                        },
                        {
                            "name": "hooks",
                            "type": "address",
                            "internalType": "contract IHooks"
                        }
                    ]
                },
                {
                    "name": "",
                    "type": "tuple",
                    "internalType": "struct IPoolManager.SwapParams",
                    "components": [
                        {
                            "name": "zeroForOne",
                            "type": "bool",
                            "internalType": "bool"
                        },
                        {
                            "name": "amountSpecified",
                            "type": "int256",
                            "internalType": "int256"
                        },
                        {
                            "name": "sqrtPriceLimitX96",
                            "type": "uint160",
                            "internalType": "uint160"
                        }
                    ]
                },
                {
                    "name": "",
                    "type": "bytes",
                    "internalType": "bytes"
                }
            ],
            "outputs": [
                {
                    "name": "",
                    "type": "bytes4",
                    "internalType": "bytes4"
                },
                {
                    "name": "",
                    "type": "int256",
                    "internalType": "BeforeSwapDelta"
                },
                {
                    "name": "",
                    "type": "uint24",
                    "internalType": "uint24"
                }
            ],
            "stateMutability": "nonpayable"
        },
        {
            "type": "function",
            "name": "cancelOrder",
            "inputs": [
                {
                    "name": "key",
                    "type": "tuple",
                    "internalType": "struct PoolKey",
                    "components": [
                        {
                            "name": "currency0",
                            "type": "address",
                            "internalType": "Currency"
                        },
                        {
                            "name": "currency1",
                            "type": "address",
                            "internalType": "Currency"
                        },
                        {
                            "name": "fee",
                            "type": "uint24",
                            "internalType": "uint24"
                        },
                        {
                            "name": "tickSpacing",
                            "type": "int24",
                            "internalType": "int24"
                        },
                        {
                            "name": "hooks",
                            "type": "address",
                            "internalType": "contract IHooks"
                        }
                    ]
                },
                {
                    "name": "tickToSellAt",
                    "type": "int24",
                    "internalType": "int24"
                },
                {
                    "name": "zeroForOne",
                    "type": "bool",
                    "internalType": "bool"
                }
            ],
            "outputs": [],
            "stateMutability": "nonpayable"
        },
        {
            "type": "function",
            "name": "claimTokensSupply",
            "inputs": [
                {
                    "name": "positionId",
                    "type": "uint256",
                    "internalType": "uint256"
                }
            ],
            "outputs": [
                {
                    "name": "claimsSupply",
                    "type": "uint256",
                    "internalType": "uint256"
                }
            ],
            "stateMutability": "view"
        },
        {
            "type": "function",
            "name": "claimableOutputTokens",
            "inputs": [
                {
                    "name": "positionId",
                    "type": "uint256",
                    "internalType": "uint256"
                }
            ],
            "outputs": [
                {
                    "name": "outputClaimable",
                    "type": "uint256",
                    "internalType": "uint256"
                }
            ],
            "stateMutability": "view"
        },
        {
            "type": "function",
            "name": "getHookPermissions",
            "inputs": [],
            "outputs": [
                {
                    "name": "",
                    "type": "tuple",
                    "internalType": "struct Hooks.Permissions",
                    "components": [
                        {
                            "name": "beforeInitialize",
                            "type": "bool",
                            "internalType": "bool"
                        },
                        {
                            "name": "afterInitialize",
                            "type": "bool",
                            "internalType": "bool"
                        },
                        {
                            "name": "beforeAddLiquidity",
                            "type": "bool",
                            "internalType": "bool"
                        },
                        {
                            "name": "afterAddLiquidity",
                            "type": "bool",
                            "internalType": "bool"
                        },
                        {
                            "name": "beforeRemoveLiquidity",
                            "type": "bool",
                            "internalType": "bool"
                        },
                        {
                            "name": "afterRemoveLiquidity",
                            "type": "bool",
                            "internalType": "bool"
                        },
                        {
                            "name": "beforeSwap",
                            "type": "bool",
                            "internalType": "bool"
                        },
                        {
                            "name": "afterSwap",
                            "type": "bool",
                            "internalType": "bool"
                        },
                        {
                            "name": "beforeDonate",
                            "type": "bool",
                            "internalType": "bool"
                        },
                        {
                            "name": "afterDonate",
                            "type": "bool",
                            "internalType": "bool"
                        },
                        {
                            "name": "beforeSwapReturnDelta",
                            "type": "bool",
                            "internalType": "bool"
                        },
                        {
                            "name": "afterSwapReturnDelta",
                            "type": "bool",
                            "internalType": "bool"
                        },
                        {
                            "name": "afterAddLiquidityReturnDelta",
                            "type": "bool",
                            "internalType": "bool"
                        },
                        {
                            "name": "afterRemoveLiquidityReturnDelta",
                            "type": "bool",
                            "internalType": "bool"
                        }
                    ]
                }
            ],
            "stateMutability": "pure"
        },
        {
            "type": "function",
            "name": "getPositionId",
            "inputs": [
                {
                    "name": "key",
                    "type": "tuple",
                    "internalType": "struct PoolKey",
                    "components": [
                        {
                            "name": "currency0",
                            "type": "address",
                            "internalType": "Currency"
                        },
                        {
                            "name": "currency1",
                            "type": "address",
                            "internalType": "Currency"
                        },
                        {
                            "name": "fee",
                            "type": "uint24",
                            "internalType": "uint24"
                        },
                        {
                            "name": "tickSpacing",
                            "type": "int24",
                            "internalType": "int24"
                        },
                        {
                            "name": "hooks",
                            "type": "address",
                            "internalType": "contract IHooks"
                        }
                    ]
                },
                {
                    "name": "tick",
                    "type": "int24",
                    "internalType": "int24"
                },
                {
                    "name": "zeroForOne",
                    "type": "bool",
                    "internalType": "bool"
                }
            ],
            "outputs": [
                {
                    "name": "",
                    "type": "uint256",
                    "internalType": "uint256"
                }
            ],
            "stateMutability": "pure"
        },
        {
            "type": "function",
            "name": "isApprovedForAll",
            "inputs": [
                {
                    "name": "account",
                    "type": "address",
                    "internalType": "address"
                },
                {
                    "name": "operator",
                    "type": "address",
                    "internalType": "address"
                }
            ],
            "outputs": [
                {
                    "name": "",
                    "type": "bool",
                    "internalType": "bool"
                }
            ],
            "stateMutability": "view"
        },
        {
            "type": "function",
            "name": "lastTicks",
            "inputs": [
                {
                    "name": "poolId",
                    "type": "bytes32",
                    "internalType": "PoolId"
                }
            ],
            "outputs": [
                {
                    "name": "lastTick",
                    "type": "int24",
                    "internalType": "int24"
                }
            ],
            "stateMutability": "view"
        },
        {
            "type": "function",
            "name": "pendingOrders",
            "inputs": [
                {
                    "name": "poolId",
                    "type": "bytes32",
                    "internalType": "PoolId"
                },
                {
                    "name": "tickToSellAt",
                    "type": "int24",
                    "internalType": "int24"
                },
                {
                    "name": "zeroForOne",
                    "type": "bool",
                    "internalType": "bool"
                }
            ],
            "outputs": [
                {
                    "name": "inputAmount",
                    "type": "uint256",
                    "internalType": "uint256"
                }
            ],
            "stateMutability": "view"
        },
        {
            "type": "function",
            "name": "placeOrder",
            "inputs": [
                {
                    "name": "key",
                    "type": "tuple",
                    "internalType": "struct PoolKey",
                    "components": [
                        {
                            "name": "currency0",
                            "type": "address",
                            "internalType": "Currency"
                        },
                        {
                            "name": "currency1",
                            "type": "address",
                            "internalType": "Currency"
                        },
                        {
                            "name": "fee",
                            "type": "uint24",
                            "internalType": "uint24"
                        },
                        {
                            "name": "tickSpacing",
                            "type": "int24",
                            "internalType": "int24"
                        },
                        {
                            "name": "hooks",
                            "type": "address",
                            "internalType": "contract IHooks"
                        }
                    ]
                },
                {
                    "name": "tickToSellAt",
                    "type": "int24",
                    "internalType": "int24"
                },
                {
                    "name": "zeroForOne",
                    "type": "bool",
                    "internalType": "bool"
                },
                {
                    "name": "inputAmount",
                    "type": "uint256",
                    "internalType": "uint256"
                }
            ],
            "outputs": [
                {
                    "name": "",
                    "type": "int24",
                    "internalType": "int24"
                }
            ],
            "stateMutability": "nonpayable"
        },
        {
            "type": "function",
            "name": "poolManager",
            "inputs": [],
            "outputs": [
                {
                    "name": "",
                    "type": "address",
                    "internalType": "contract IPoolManager"
                }
            ],
            "stateMutability": "view"
        },
        {
            "type": "function",
            "name": "redeem",
            "inputs": [
                {
                    "name": "key",
                    "type": "tuple",
                    "internalType": "struct PoolKey",
                    "components": [
                        {
                            "name": "currency0",
                            "type": "address",
                            "internalType": "Currency"
                        },
                        {
                            "name": "currency1",
                            "type": "address",
                            "internalType": "Currency"
                        },
                        {
                            "name": "fee",
                            "type": "uint24",
                            "internalType": "uint24"
                        },
                        {
                            "name": "tickSpacing",
                            "type": "int24",
                            "internalType": "int24"
                        },
                        {
                            "name": "hooks",
                            "type": "address",
                            "internalType": "contract IHooks"
                        }
                    ]
                },
                {
                    "name": "tickToSellAt",
                    "type": "int24",
                    "internalType": "int24"
                },
                {
                    "name": "zeroForOne",
                    "type": "bool",
                    "internalType": "bool"
                },
                {
                    "name": "inputAmountToClaimFor",
                    "type": "uint256",
                    "internalType": "uint256"
                }
            ],
            "outputs": [],
            "stateMutability": "nonpayable"
        },
        {
            "type": "function",
            "name": "safeBatchTransferFrom",
            "inputs": [
                {
                    "name": "from",
                    "type": "address",
                    "internalType": "address"
                },
                {
                    "name": "to",
                    "type": "address",
                    "internalType": "address"
                },
                {
                    "name": "ids",
                    "type": "uint256[]",
                    "internalType": "uint256[]"
                },
                {
                    "name": "values",
                    "type": "uint256[]",
                    "internalType": "uint256[]"
                },
                {
                    "name": "data",
                    "type": "bytes",
                    "internalType": "bytes"
                }
            ],
            "outputs": [],
            "stateMutability": "nonpayable"
        },
        {
            "type": "function",
            "name": "safeTransferFrom",
            "inputs": [
                {
                    "name": "from",
                    "type": "address",
                    "internalType": "address"
                },
                {
                    "name": "to",
                    "type": "address",
                    "internalType": "address"
                },
                {
                    "name": "id",
                    "type": "uint256",
                    "internalType": "uint256"
                },
                {
                    "name": "value",
                    "type": "uint256",
                    "internalType": "uint256"
                },
                {
                    "name": "data",
                    "type": "bytes",
                    "internalType": "bytes"
                }
            ],
            "outputs": [],
            "stateMutability": "nonpayable"
        },
        {
            "type": "function",
            "name": "setApprovalForAll",
            "inputs": [
                {
                    "name": "operator",
                    "type": "address",
                    "internalType": "address"
                },
                {
                    "name": "approved",
                    "type": "bool",
                    "internalType": "bool"
                }
            ],
            "outputs": [],
            "stateMutability": "nonpayable"
        },
        {
            "type": "function",
            "name": "supportsInterface",
            "inputs": [
                {
                    "name": "interfaceId",
                    "type": "bytes4",
                    "internalType": "bytes4"
                }
            ],
            "outputs": [
                {
                    "name": "",
                    "type": "bool",
                    "internalType": "bool"
                }
            ],
            "stateMutability": "view"
        },
        {
            "type": "function",
            "name": "unlockCallback",
            "inputs": [
                {
                    "name": "data",
                    "type": "bytes",
                    "internalType": "bytes"
                }
            ],
            "outputs": [
                {
                    "name": "",
                    "type": "bytes",
                    "internalType": "bytes"
                }
            ],
            "stateMutability": "nonpayable"
        },
        {
            "type": "function",
            "name": "uri",
            "inputs": [
                {
                    "name": "",
                    "type": "uint256",
                    "internalType": "uint256"
                }
            ],
            "outputs": [
                {
                    "name": "",
                    "type": "string",
                    "internalType": "string"
                }
            ],
            "stateMutability": "view"
        },
        {
            "type": "event",
            "name": "ApprovalForAll",
            "inputs": [
                {
                    "name": "account",
                    "type": "address",
                    "indexed": true,
                    "internalType": "address"
                },
                {
                    "name": "operator",
                    "type": "address",
                    "indexed": true,
                    "internalType": "address"
                },
                {
                    "name": "approved",
                    "type": "bool",
                    "indexed": false,
                    "internalType": "bool"
                }
            ],
            "anonymous": false
        },
        {
            "type": "event",
            "name": "TransferBatch",
            "inputs": [
                {
                    "name": "operator",
                    "type": "address",
                    "indexed": true,
                    "internalType": "address"
                },
                {
                    "name": "from",
                    "type": "address",
                    "indexed": true,
                    "internalType": "address"
                },
                {
                    "name": "to",
                    "type": "address",
                    "indexed": true,
                    "internalType": "address"
                },
                {
                    "name": "ids",
                    "type": "uint256[]",
                    "indexed": false,
                    "internalType": "uint256[]"
                },
                {
                    "name": "values",
                    "type": "uint256[]",
                    "indexed": false,
                    "internalType": "uint256[]"
                }
            ],
            "anonymous": false
        },
        {
            "type": "event",
            "name": "TransferSingle",
            "inputs": [
                {
                    "name": "operator",
                    "type": "address",
                    "indexed": true,
                    "internalType": "address"
                },
                {
                    "name": "from",
                    "type": "address",
                    "indexed": true,
                    "internalType": "address"
                },
                {
                    "name": "to",
                    "type": "address",
                    "indexed": true,
                    "internalType": "address"
                },
                {
                    "name": "id",
                    "type": "uint256",
                    "indexed": false,
                    "internalType": "uint256"
                },
                {
                    "name": "value",
                    "type": "uint256",
                    "indexed": false,
                    "internalType": "uint256"
                }
            ],
            "anonymous": false
        },
        {
            "type": "event",
            "name": "URI",
            "inputs": [
                {
                    "name": "value",
                    "type": "string",
                    "indexed": false,
                    "internalType": "string"
                },
                {
                    "name": "id",
                    "type": "uint256",
                    "indexed": true,
                    "internalType": "uint256"
                }
            ],
            "anonymous": false
        },
        {
            "type": "error",
            "name": "ERC1155InsufficientBalance",
            "inputs": [
                {
                    "name": "sender",
                    "type": "address",
                    "internalType": "address"
                },
                {
                    "name": "balance",
                    "type": "uint256",
                    "internalType": "uint256"
                },
                {
                    "name": "needed",
                    "type": "uint256",
                    "internalType": "uint256"
                },
                {
                    "name": "tokenId",
                    "type": "uint256",
                    "internalType": "uint256"
                }
            ]
        },
        {
            "type": "error",
            "name": "ERC1155InvalidApprover",
            "inputs": [
                {
                    "name": "approver",
                    "type": "address",
                    "internalType": "address"
                }
            ]
        },
        {
            "type": "error",
            "name": "ERC1155InvalidArrayLength",
            "inputs": [
                {
                    "name": "idsLength",
                    "type": "uint256",
                    "internalType": "uint256"
                },
                {
                    "name": "valuesLength",
                    "type": "uint256",
                    "internalType": "uint256"
                }
            ]
        },
        {
            "type": "error",
            "name": "ERC1155InvalidOperator",
            "inputs": [
                {
                    "name": "operator",
                    "type": "address",
                    "internalType": "address"
                }
            ]
        },
        {
            "type": "error",
            "name": "ERC1155InvalidReceiver",
            "inputs": [
                {
                    "name": "receiver",
                    "type": "address",
                    "internalType": "address"
                }
            ]
        },
        {
            "type": "error",
            "name": "ERC1155InvalidSender",
            "inputs": [
                {
                    "name": "sender",
                    "type": "address",
                    "internalType": "address"
                }
            ]
        },
        {
            "type": "error",
            "name": "ERC1155MissingApprovalForAll",
            "inputs": [
                {
                    "name": "operator",
                    "type": "address",
                    "internalType": "address"
                },
                {
                    "name": "owner",
                    "type": "address",
                    "internalType": "address"
                }
            ]
        },
        {
            "type": "error",
            "name": "HookNotImplemented",
            "inputs": []
        },
        {
            "type": "error",
            "name": "InvalidOrder",
            "inputs": []
        },
        {
            "type": "error",
            "name": "InvalidPool",
            "inputs": []
        },
        {
            "type": "error",
            "name": "LockFailure",
            "inputs": []
        },
        {
            "type": "error",
            "name": "NotEnoughToClaim",
            "inputs": []
        },
        {
            "type": "error",
            "name": "NotPoolManager",
            "inputs": []
        },
        {
            "type": "error",
            "name": "NotSelf",
            "inputs": []
        },
        {
            "type": "error",
            "name": "NothingToClaim",
            "inputs": []
        }
    ],
    "bytecode": {
        "object": "0x60a060405234801561000f575f80fd5b5060405161327938038061327983398101604081905261002e916102ce565b6001600160a01b038216608052808261004630610058565b506100508161014e565b5050506104db565b61014b81610146604080516101c0810182525f80825260208201819052918101829052606081018290526080810182905260a0810182905260c0810182905260e08101829052610100810182905261012081018290526101408101829052610160810182905261018081018290526101a081019190915250604080516101c0810182525f808252600160208301819052928201819052606082018190526080820181905260a0820181905260c0820181905260e0820192909252610100810182905261012081018290526101408101829052610160810182905261018081018290526101a081019190915290565b61015e565b50565b600261015a8282610421565b5050565b80511515612000831615151415806101825750602081015115156110008316151514155b806101995750604081015115156108008316151514155b806101b05750606081015115156104008316151514155b806101c75750608081015115156102008316151514155b806101de575060a081015115156101008316151514155b806101f4575060c0810151151560808316151514155b8061020a575060e0810151151560408316151514155b806102215750610100810151151560208316151514155b806102385750610120810151151560108316151514155b8061024f5750610140810151151560088316151514155b806102665750610160810151151560048316151514155b8061027d5750610180810151151560028316151514155b8061029457506101a0810151151560018316151514155b1561015a5761015a630732d7b560e51b83815f526001600160a01b03811660045260245ffd5b634e487b7160e01b5f52604160045260245ffd5b5f80604083850312156102df575f80fd5b82516001600160a01b03811681146102f5575f80fd5b60208401519092506001600160401b03811115610310575f80fd5b8301601f81018513610320575f80fd5b80516001600160401b03811115610339576103396102ba565b604051601f8201601f19908116603f011681016001600160401b0381118282101715610367576103676102ba565b60405281815282820160200187101561037e575f80fd5b8160208401602083015e5f602083830101528093505050509250929050565b600181811c908216806103b157607f821691505b6020821081036103cf57634e487b7160e01b5f52602260045260245ffd5b50919050565b601f82111561041c57805f5260205f20601f840160051c810160208510156103fa5750805b601f840160051c820191505b81811015610419575f8155600101610406565b50505b505050565b81516001600160401b0381111561043a5761043a6102ba565b61044e81610448845461039d565b846103d5565b6020601f821160018114610480575f83156104695750848201515b5f19600385901b1c1916600184901b178455610419565b5f84815260208120601f198516915b828110156104af578785015182556020948501946001909201910161048f565b50848210156104cc57868401515f19600387901b60f8161c191681555b50505050600190811b01905550565b608051612d556105245f395f818161052401528181610a7f0152818161121601528181611b0101528181611c8c01528181611cf301528181611d2c0152611ded0152612d555ff3fe608060405234801561000f575f80fd5b50600436106101c5575f3560e01c8063a0dc3f99116100fe578063dc4c90d31161009e578063e4cbfea51161006e578063e4cbfea51461057f578063e985e9c5146105a1578063f242432a146105dc578063fa59cb0c146105ef575f80fd5b8063dc4c90d31461051f578063dc98354e1461055e578063dd02c9641461056c578063e1b4af691461041a575f80fd5b8063b47b2fb1116100d9578063b47b2fb1146103c5578063b5a33914146103fb578063b6a8b0fa1461041a578063c4e833ce14610428575f80fd5b8063a0dc3f991461036f578063a22cb46514610382578063a2dc31b214610395575f80fd5b80634e1273f4116101695780636fe7e6eb116101445780636fe7e6eb146103235780637e8941af1461033657806391dd73461461035c5780639f063efc146102f0575f80fd5b80634e1273f414610292578063575e24b4146102b25780636c2bbe7e146102f0575f80fd5b806321d0ee70116101a457806321d0ee7014610232578063259982e5146102325780632eb2c2d61461025e5780633bb76cc114610273575f80fd5b8062fdd58e146101c957806301ffc9a7146101ef5780630e89341c14610212575b5f80fd5b6101dc6101d7366004611e57565b610602565b6040519081526020015b60405180910390f35b6102026101fd366004611e96565b610629565b60405190151581526020016101e6565b610225610220366004611eb1565b610678565b6040516101e69190611ef6565b610245610240366004611f6c565b61070a565b6040516001600160e01b031990911681526020016101e6565b61027161026c366004612121565b610724565b005b6101dc610281366004611eb1565b60066020525f908152604090205481565b6102a56102a03660046121d4565b6107ae565b6040516101e691906122d3565b6102c56102c03660046122f5565b610879565b604080516001600160e01b03199094168452602084019290925262ffffff16908201526060016101e6565b6103036102fe36600461234f565b610895565b604080516001600160e01b031990931683526020830191909152016101e6565b6102456103313660046123f0565b6108b0565b610349610344366004612454565b610904565b60405160029190910b81526020016101e6565b61022561036a3660046124a0565b610a72565b61027161037d3660046124df565b610ace565b610271610390366004612524565b610bea565b6101dc6103a336600461255b565b600460209081525f938452604080852082529284528284209052825290205481565b6103d86103d336600461258d565b610bf9565b604080516001600160e01b03199093168352600f9190910b6020830152016101e6565b6101dc610409366004611eb1565b60056020525f908152604090205481565b61024561024036600461260e565b610512604080516101c0810182525f80825260208201819052918101829052606081018290526080810182905260a0810182905260c0810182905260e08101829052610100810182905261012081018290526101408101829052610160810182905261018081018290526101a081019190915250604080516101c0810182525f808252600160208301819052928201819052606082018190526080820181905260a0820181905260c0820181905260e0820192909252610100810182905261012081018290526101408101829052610160810182905261018081018290526101a081019190915290565b6040516101e69190612668565b6105467f000000000000000000000000000000000000000000000000000000000000000081565b6040516001600160a01b0390911681526020016101e6565b610245610240366004612789565b61027161057a366004612454565b610c9f565b61034961058d366004611eb1565b60036020525f908152604090205460020b81565b6102026105af3660046127c5565b6001600160a01b039182165f90815260016020908152604080832093909416825291909152205460ff1690565b6102716105ea3660046127f1565b610de5565b6101dc6105fd3660046124df565b610e62565b5f818152602081815260408083206001600160a01b03861684529091529020545b92915050565b5f6001600160e01b03198216636cdb3d1360e11b148061065957506001600160e01b031982166303a24d0760e21b145b8061062357506301ffc9a760e01b6001600160e01b0319831614610623565b60606002805461068790612849565b80601f01602080910402602001604051908101604052809291908181526020018280546106b390612849565b80156106fe5780601f106106d5576101008083540402835291602001916106fe565b820191905f5260205f20905b8154815290600101906020018083116106e157829003601f168201915b50505050509050919050565b5f604051630a85dc2960e01b815260040160405180910390fd5b336001600160a01b038616811480159061076357506001600160a01b038087165f9081526001602090815260408083209385168352929052205460ff16155b156107995760405163711bec9160e11b81526001600160a01b038083166004830152871660248201526044015b60405180910390fd5b6107a68686868686610eb5565b505050505050565b606081518351146107df5781518351604051635b05999160e01b815260048101929092526024820152604401610790565b5f835167ffffffffffffffff8111156107fa576107fa611fe3565b604051908082528060200260200182016040528015610823578160200160208202803683370190505b5090505f5b84518110156108715760208082028601015161084c90602080840287010151610602565b82828151811061085e5761085e61287b565b6020908102919091010152600101610828565b509392505050565b5f805f604051630a85dc2960e01b815260040160405180910390fd5b5f80604051630a85dc2960e01b815260040160405180910390fd5b5f816003826108ce6108c7368990038901896128a1565b60a0902090565b815260208101919091526040015f20805462ffffff191662ffffff9290921691909117905550636fe7e6eb60e01b949350505050565b5f8061091f8561091a6080890160608a01612935565b610f1a565b90508260045f6109376108c7368b90038b018b6128a1565b815260208082019290925260409081015f908120600286900b82528352818120881515825290925281208054909190610971908490612962565b909155505f9050610983878387610e62565b90508360055f8381526020019081526020015f205f8282546109a59190612962565b925050819055506109c633828660405180602001604052805f815250610f6a565b5f856109e1576109dc6040890160208a01612975565b6109ee565b6109ee6020890189612975565b6040516323b872dd60e01b8152336004820152306024820152604481018790529091506001600160a01b038216906323b872dd906064016020604051808303815f875af1158015610a41573d5f803e3d5ffd5b505050506040513d601f19601f82011682018060405250810190610a659190612990565b5091979650505050505050565b6060336001600160a01b037f00000000000000000000000000000000000000000000000000000000000000001614610abd5760405163570c108560e11b815260040160405180910390fd5b610ac78383610fc5565b9392505050565b5f610ae38361091a6080870160608801612935565b90505f610af1858385610e62565b90505f610afe3383610602565b9050805f03610b205760405163af61069360e01b815260040160405180910390fd5b8060045f610b366108c7368b90038b018b6128a1565b815260208082019290925260409081015f908120600288900b82528352818120881515825290925281208054909190610b709084906129ab565b90915550505f8281526005602052604081208054839290610b929084906129ab565b90915550610ba3905033838361105e565b5f84610bbe57610bb96040880160208901612975565b610bcb565b610bcb6020880188612975565b9050610be16001600160a01b03821633846110c4565b50505050505050565b610bf5338383611160565b5050565b5f80306001600160a01b03891603610c1c575063b47b2fb160e01b90505f610c94565b60015f5b8115610c4757610c3d89610c3760208b018b6129be565b156111f4565b9092509050610c20565b8060035f610c5d6108c7368e90038e018e6128a1565b815260208101919091526040015f908120805462ffffff191662ffffff939093169290921790915563b47b2fb160e01b9450925050505b965096945050505050565b5f610cb48461091a6080880160608901612935565b90505f610cc2868386610e62565b5f8181526006602052604081205491925003610cf1576040516312d37ee560e31b815260040160405180910390fd5b5f610cfc3383610602565b905083811015610d1f57604051639378648960e01b815260040160405180910390fd5b5f8281526006602090815260408083205460059092528220549091610d458784846113ac565b90508060065f8781526020019081526020015f205f828254610d6791906129ab565b90915550505f8581526005602052604081208054899290610d899084906129ab565b90915550610d9a905033868961105e565b5f88610db257610dad60208c018c612975565b610dc2565b610dc260408c0160208d01612975565b9050610dd86001600160a01b03821633846110c4565b5050505050505050505050565b336001600160a01b0386168114801590610e2457506001600160a01b038087165f9081526001602090815260408083209385168352929052205460ff16155b15610e555760405163711bec9160e11b81526001600160a01b03808316600483015287166024820152604401610790565b6107a686868686866113c7565b5f610e756108c7368690038601866128a1565b604080516020810192909252600285900b90820152821515606082015260800160408051601f198184030181529190528051602090910120949350505050565b6001600160a01b038416610ede57604051632bfa23e760e11b81525f6004820152602401610790565b6001600160a01b038516610f0657604051626a0d4560e21b81525f6004820152602401610790565b610f138585858585611446565b5050505050565b5f80610f2683856129ed565b90505f8460020b128015610f455750610f3f8385612a25565b60020b15155b15610f585780610f5481612a46565b9150505b610f628382612a67565b949350505050565b6001600160a01b038416610f9357604051632bfa23e760e11b81525f6004820152602401610790565b604080516001808252602082018690528183019081526060820185905260808201909252906107a65f87848487611446565b60605f80306001600160a01b03168585604051610fe3929190612a86565b5f604051808303815f865af19150503d805f811461101c576040519150601f19603f3d011682016040523d82523d5f602084013e611021565b606091505b509150915081156110355791506106239050565b80515f03611056576040516314815f4760e31b815260040160405180910390fd5b805160208201fd5b6001600160a01b03831661108657604051626a0d4560e21b81525f6004820152602401610790565b604080516001808252602082018590528183019081526060820184905260a082019092525f60808201818152919291610f1391879185908590611446565b5f6001600160a01b0384166110f8575f805f8085875af19050806110f3576110f3638549db5960e01b84611499565b61115a565b60405163a9059cbb60e01b81526001600160a01b038416600482015282602482015260205f6044835f895af13d15601f3d1160015f511416171691505f81525f60208201525f6040820152508061115a5761115a632c4b17e760e21b85611499565b50505050565b6001600160a01b0382166111885760405162ced3e160e81b81525f6004820152602401610790565b6001600160a01b038381165f81815260016020908152604080832094871680845294825291829020805460ff191686151590811790915591519182527f17307eab39ab6107e8899845ad3d59bd9653f200f220920489ca2b5937696c31910160405180910390a3505050565b5f808061123c61120c6108c7368890038801886128a1565b6001600160a01b037f000000000000000000000000000000000000000000000000000000000000000016906114cc565b50509150505f60035f611259888036038101906108c791906128a1565b815260208101919091526040015f2054600290810b915082900b81121561131657805b8260020b8160020b13611310575f60048161129f6108c7368c90038c018c6128a1565b815260208082019290925260409081015f908120600286900b825283528181208a15158252909252902054905080156112ee576112de8883898461157e565b60018495509550505050506113a5565b506112ff6080880160608901612935565b6113099082612a95565b905061127c565b5061139e565b805b8260020b8160020b1261139c575f60048161133b6108c7368c90038c018c6128a1565b815260208082019290925260409081015f908120600286900b825283528181208a151582529092529020549050801561137a576112de8883898461157e565b5061138b6080880160608901612935565b6113959082612aba565b9050611318565b505b505f925090505b9250929050565b5f825f1904841183021582026113c0575f80fd5b5091020490565b6001600160a01b0384166113f057604051632bfa23e760e11b81525f6004820152602401610790565b6001600160a01b03851661141857604051626a0d4560e21b81525f6004820152602401610790565b60408051600180825260208201869052818301908152606082018590526080820190925290610be187878484875b611452858585856116aa565b6001600160a01b03841615610f13578251339060010361148b57602084810151908401516114848389898585896118b9565b50506107a6565b6107a68187878787876119da565b3d60405183815282600482015260406024820152816044820152815f606483013e602080601f8401040260640191508181fd5b5f805f805f6114da86611ac1565b604051631e2eaeaf60e01b8152600481018290529091505f906001600160a01b03891690631e2eaeaf90602401602060405180830381865afa158015611522573d5f803e3d5ffd5b505050506040513d601f19601f820116820180604052508101906115469190612adf565b90506001600160a01b03811695508060a01c60020b945062ffffff8160b81c16935062ffffff8160d01c169250505092959194509250565b5f6115ee8560405180606001604052808615158152602001856115a090612af6565b8152602001866115ce576115c9600173fffd8963efd1fc6a506488495d951d5263988d26612b10565b6115de565b6115de6401000276a36001612b2f565b6001600160a01b03169052611afd565b90508160045f6116066108c7368a90038a018a6128a1565b815260208082019290925260409081015f908120600289900b825283528181208715158252909252812080549091906116409084906129ab565b909155505f9050611652868686610e62565b90505f8461166c576116648360801d90565b600f0b61167a565b61167683600f0b90565b600f0b5b90508060065f8481526020019081526020015f205f82825461169c9190612962565b909155505050505050505050565b80518251146116d95781518151604051635b05999160e01b815260048101929092526024820152604401610790565b335f5b83518110156117db576020818102858101820151908501909101516001600160a01b0388161561178d575f828152602081815260408083206001600160a01b038c16845290915290205481811015611767576040516303dee4c560e01b81526001600160a01b038a166004820152602481018290526044810183905260648101849052608401610790565b5f838152602081815260408083206001600160a01b038d16845290915290209082900390555b6001600160a01b038716156117d1575f828152602081815260408083206001600160a01b038b168452909152812080548392906117cb908490612962565b90915550505b50506001016116dc565b50825160010361185b5760208301515f906020840151909150856001600160a01b0316876001600160a01b0316846001600160a01b03167fc3d58168c5ae7397731d063d5bbf3d657854427343f4c083240f7aacaa2d0f62858560405161184c929190918252602082015260400190565b60405180910390a45050610f13565b836001600160a01b0316856001600160a01b0316826001600160a01b03167f4a39dc06d4c0dbc64b70af90fd698a233a518aa5d07e595d983b8c0526c8f7fb86866040516118aa929190612b4e565b60405180910390a45050505050565b6001600160a01b0384163b156107a65760405163f23a6e6160e01b81526001600160a01b0385169063f23a6e61906118fd9089908990889088908890600401612b7b565b6020604051808303815f875af1925050508015611937575060408051601f3d908101601f1916820190925261193491810190612bc2565b60015b61199e573d808015611964576040519150601f19603f3d011682016040523d82523d5f602084013e611969565b606091505b5080515f0361199657604051632bfa23e760e11b81526001600160a01b0386166004820152602401610790565b805181602001fd5b6001600160e01b0319811663f23a6e6160e01b14610be157604051632bfa23e760e11b81526001600160a01b0386166004820152602401610790565b6001600160a01b0384163b156107a65760405163bc197c8160e01b81526001600160a01b0385169063bc197c8190611a1e9089908990889088908890600401612bdd565b6020604051808303815f875af1925050508015611a58575060408051601f3d908101601f19168201909252611a5591810190612bc2565b60015b611a85573d808015611964576040519150601f19603f3d011682016040523d82523d5f602084013e611969565b6001600160e01b0319811663bc197c8160e01b14610be157604051632bfa23e760e11b81526001600160a01b0386166004820152602401610790565b6040515f90611ae0908390600690602001918252602082015260400190565b604051602081830303815290604052805190602001209050919050565b5f807f00000000000000000000000000000000000000000000000000000000000000006001600160a01b031663f3cd914c85856040518363ffffffff1660e01b8152600401611b4d929190612c3f565b6020604051808303815f875af1158015611b69573d5f803e3d5ffd5b505050506040513d601f19601f82011682018060405250810190611b8d9190612adf565b835190915015611c0e575f611ba28260801d90565b600f0b1215611bd357611bd3611bbb6020860186612975565b611bc58360801d90565b611bce90612cf2565b611c6d565b5f611bde82600f0b90565b600f0b1315611c0957611c09611bfa6040860160208701612975565b611c0483600f0b90565b611db0565b610ac7565b5f611c1982600f0b90565b600f0b1215611c3f57611c3f611c356040860160208701612975565b611bc583600f0b90565b5f611c4a8260801d90565b600f0b1315610ac757610ac7611c636020860186612975565b611c048360801d90565b604051632961046560e21b81526001600160a01b0383811660048301527f0000000000000000000000000000000000000000000000000000000000000000169063a5841194906024015f604051808303815f87803b158015611ccd575f80fd5b505af1158015611cdf573d5f803e3d5ffd5b50611d2a925050506001600160a01b0383167f00000000000000000000000000000000000000000000000000000000000000006fffffffffffffffffffffffffffffffff84166110c4565b7f00000000000000000000000000000000000000000000000000000000000000006001600160a01b03166311da60b46040518163ffffffff1660e01b81526004016020604051808303815f875af1158015611d87573d5f803e3d5ffd5b505050506040513d601f19601f82011682018060405250810190611dab9190612adf565b505050565b604051630b0d9c0960e01b81526001600160a01b0383811660048301523060248301526fffffffffffffffffffffffffffffffff831660448301527f00000000000000000000000000000000000000000000000000000000000000001690630b0d9c09906064015f604051808303815f87803b158015611e2e575f80fd5b505af11580156107a6573d5f803e3d5ffd5b6001600160a01b0381168114611e54575f80fd5b50565b5f8060408385031215611e68575f80fd5b8235611e7381611e40565b946020939093013593505050565b6001600160e01b031981168114611e54575f80fd5b5f60208284031215611ea6575f80fd5b8135610ac781611e81565b5f60208284031215611ec1575f80fd5b5035919050565b5f81518084528060208401602086015e5f602082860101526020601f19601f83011685010191505092915050565b602081525f610ac76020830184611ec8565b5f60a08284031215611f18575f80fd5b50919050565b5f60808284031215611f18575f80fd5b5f8083601f840112611f3e575f80fd5b50813567ffffffffffffffff811115611f55575f80fd5b6020830191508360208285010111156113a5575f80fd5b5f805f805f6101608688031215611f81575f80fd5b8535611f8c81611e40565b9450611f9b8760208801611f08565b9350611faa8760c08801611f1e565b925061014086013567ffffffffffffffff811115611fc6575f80fd5b611fd288828901611f2e565b969995985093965092949392505050565b634e487b7160e01b5f52604160045260245ffd5b604051601f8201601f1916810167ffffffffffffffff8111828210171561202057612020611fe3565b604052919050565b5f67ffffffffffffffff82111561204157612041611fe3565b5060051b60200190565b5f82601f83011261205a575f80fd5b813561206d61206882612028565b611ff7565b8082825260208201915060208360051b86010192508583111561208e575f80fd5b602085015b838110156120ab578035835260209283019201612093565b5095945050505050565b5f82601f8301126120c4575f80fd5b813567ffffffffffffffff8111156120de576120de611fe3565b6120f1601f8201601f1916602001611ff7565b818152846020838601011115612105575f80fd5b816020850160208301375f918101602001919091529392505050565b5f805f805f60a08688031215612135575f80fd5b853561214081611e40565b9450602086013561215081611e40565b9350604086013567ffffffffffffffff81111561216b575f80fd5b6121778882890161204b565b935050606086013567ffffffffffffffff811115612193575f80fd5b61219f8882890161204b565b925050608086013567ffffffffffffffff8111156121bb575f80fd5b6121c7888289016120b5565b9150509295509295909350565b5f80604083850312156121e5575f80fd5b823567ffffffffffffffff8111156121fb575f80fd5b8301601f8101851361220b575f80fd5b803561221961206882612028565b8082825260208201915060208360051b85010192508783111561223a575f80fd5b6020840193505b8284101561226557833561225481611e40565b825260209384019390910190612241565b9450505050602083013567ffffffffffffffff811115612283575f80fd5b61228f8582860161204b565b9150509250929050565b5f8151808452602084019350602083015f5b828110156122c95781518652602095860195909101906001016122ab565b5093949350505050565b602081525f610ac76020830184612299565b5f60608284031215611f18575f80fd5b5f805f805f610140868803121561230a575f80fd5b853561231581611e40565b94506123248760208801611f08565b93506123338760c088016122e5565b925061012086013567ffffffffffffffff811115611fc6575f80fd5b5f805f805f805f6101a0888a031215612366575f80fd5b873561237181611e40565b96506123808960208a01611f08565b955061238f8960c08a01611f1e565b94506101408801359350610160880135925061018088013567ffffffffffffffff8111156123bb575f80fd5b6123c78a828b01611f2e565b989b979a50959850939692959293505050565b8035600281900b81146123eb575f80fd5b919050565b5f805f806101008587031215612404575f80fd5b843561240f81611e40565b935061241e8660208701611f08565b925060c085013561242e81611e40565b915061243c60e086016123da565b905092959194509250565b8015158114611e54575f80fd5b5f805f806101008587031215612468575f80fd5b6124728686611f08565b935061248060a086016123da565b925060c085013561249081612447565b9396929550929360e00135925050565b5f80602083850312156124b1575f80fd5b823567ffffffffffffffff8111156124c7575f80fd5b6124d385828601611f2e565b90969095509350505050565b5f805f60e084860312156124f1575f80fd5b6124fb8585611f08565b925061250960a085016123da565b915060c084013561251981612447565b809150509250925092565b5f8060408385031215612535575f80fd5b823561254081611e40565b9150602083013561255081612447565b809150509250929050565b5f805f6060848603121561256d575f80fd5b8335925061257d602085016123da565b9150604084013561251981612447565b5f805f805f8061016087890312156125a3575f80fd5b86356125ae81611e40565b95506125bd8860208901611f08565b94506125cc8860c089016122e5565b9350610120870135925061014087013567ffffffffffffffff8111156125f0575f80fd5b6125fc89828a01611f2e565b979a9699509497509295939492505050565b5f805f805f806101208789031215612624575f80fd5b863561262f81611e40565b955061263e8860208901611f08565b945060c0870135935060e0870135925061010087013567ffffffffffffffff8111156125f0575f80fd5b8151151581526101c081016020830151612686602084018215159052565b50604083015161269a604084018215159052565b5060608301516126ae606084018215159052565b5060808301516126c2608084018215159052565b5060a08301516126d660a084018215159052565b5060c08301516126ea60c084018215159052565b5060e08301516126fe60e084018215159052565b5061010083015161271461010084018215159052565b5061012083015161272a61012084018215159052565b5061014083015161274061014084018215159052565b5061016083015161275661016084018215159052565b5061018083015161276c61018084018215159052565b506101a08301516127826101a084018215159052565b5092915050565b5f805f60e0848603121561279b575f80fd5b83356127a681611e40565b92506127b58560208601611f08565b915060c084013561251981611e40565b5f80604083850312156127d6575f80fd5b82356127e181611e40565b9150602083013561255081611e40565b5f805f805f60a08688031215612805575f80fd5b853561281081611e40565b9450602086013561282081611e40565b93506040860135925060608601359150608086013567ffffffffffffffff8111156121bb575f80fd5b600181811c9082168061285d57607f821691505b602082108103611f1857634e487b7160e01b5f52602260045260245ffd5b634e487b7160e01b5f52603260045260245ffd5b803562ffffff811681146123eb575f80fd5b5f60a08284031280156128b2575f80fd5b5060405160a0810167ffffffffffffffff811182821017156128d6576128d6611fe3565b60405282356128e481611e40565b815260208301356128f481611e40565b60208201526129056040840161288f565b6040820152612916606084016123da565b6060820152608083013561292981611e40565b60808201529392505050565b5f60208284031215612945575f80fd5b610ac7826123da565b634e487b7160e01b5f52601160045260245ffd5b808201808211156106235761062361294e565b5f60208284031215612985575f80fd5b8135610ac781611e40565b5f602082840312156129a0575f80fd5b8151610ac781612447565b818103818111156106235761062361294e565b5f602082840312156129ce575f80fd5b8135610ac781612447565b634e487b7160e01b5f52601260045260245ffd5b5f8160020b8360020b80612a0357612a036129d9565b627fffff1982145f1982141615612a1c57612a1c61294e565b90059392505050565b5f8260020b80612a3757612a376129d9565b808360020b0791505092915050565b5f8160020b627fffff198103612a5e57612a5e61294e565b5f190192915050565b5f8260020b8260020b028060020b91508082146127825761278261294e565b818382375f9101908152919050565b600281810b9083900b01627fffff8113627fffff19821217156106235761062361294e565b600282810b9082900b03627fffff198112627fffff821317156106235761062361294e565b5f60208284031215612aef575f80fd5b5051919050565b5f600160ff1b8201612b0a57612b0a61294e565b505f0390565b6001600160a01b0382811682821603908111156106235761062361294e565b6001600160a01b0381811683821601908111156106235761062361294e565b604081525f612b606040830185612299565b8281036020840152612b728185612299565b95945050505050565b6001600160a01b03861681526001600160a01b038516602082015283604082015282606082015260a060808201525f612bb760a0830184611ec8565b979650505050505050565b5f60208284031215612bd2575f80fd5b8151610ac781611e81565b6001600160a01b03861681526001600160a01b038516602082015260a060408201525f612c0d60a0830186612299565b8281036060840152612c1f8186612299565b90508281036080840152612c338185611ec8565b98975050505050505050565b5f8335612c4b81611e40565b6001600160a01b031682526020840135612c6481611e40565b6001600160a01b0316602083015262ffffff612c826040860161288f565b166040830152612c94606085016123da565b60020b60608301526080840135612caa81611e40565b6001600160a01b0390811660808401528351151560a0840152602084015160c084015260408401511660e0830152610120610100830152610f6261012083015f815260200190565b5f81600f0b6f7fffffffffffffffffffffffffffffff198103612d1757612d1761294e565b5f039291505056fea26469706673582212208f0cfd1f6d1cb082fe0febb0d2edef78f2d7058538522ee0606c72040e25b85364736f6c634300081a0033",
        "linkReferences": {}
    },
    "methodIdentifiers": {
        "afterAddLiquidity(address,(address,address,uint24,int24,address),(int24,int24,int256,bytes32),int256,int256,bytes)": "9f063efc",
        "afterDonate(address,(address,address,uint24,int24,address),uint256,uint256,bytes)": "e1b4af69",
        "afterInitialize(address,(address,address,uint24,int24,address),uint160,int24)": "6fe7e6eb",
        "afterRemoveLiquidity(address,(address,address,uint24,int24,address),(int24,int24,int256,bytes32),int256,int256,bytes)": "6c2bbe7e",
        "afterSwap(address,(address,address,uint24,int24,address),(bool,int256,uint160),int256,bytes)": "b47b2fb1",
        "balanceOf(address,uint256)": "00fdd58e",
        "balanceOfBatch(address[],uint256[])": "4e1273f4",
        "beforeAddLiquidity(address,(address,address,uint24,int24,address),(int24,int24,int256,bytes32),bytes)": "259982e5",
        "beforeDonate(address,(address,address,uint24,int24,address),uint256,uint256,bytes)": "b6a8b0fa",
        "beforeInitialize(address,(address,address,uint24,int24,address),uint160)": "dc98354e",
        "beforeRemoveLiquidity(address,(address,address,uint24,int24,address),(int24,int24,int256,bytes32),bytes)": "21d0ee70",
        "beforeSwap(address,(address,address,uint24,int24,address),(bool,int256,uint160),bytes)": "575e24b4",
        "cancelOrder((address,address,uint24,int24,address),int24,bool)": "a0dc3f99",
        "claimTokensSupply(uint256)": "b5a33914",
        "claimableOutputTokens(uint256)": "3bb76cc1",
        "getHookPermissions()": "c4e833ce",
        "getPositionId((address,address,uint24,int24,address),int24,bool)": "fa59cb0c",
        "isApprovedForAll(address,address)": "e985e9c5",
        "lastTicks(bytes32)": "e4cbfea5",
        "pendingOrders(bytes32,int24,bool)": "a2dc31b2",
        "placeOrder((address,address,uint24,int24,address),int24,bool,uint256)": "7e8941af",
        "poolManager()": "dc4c90d3",
        "redeem((address,address,uint24,int24,address),int24,bool,uint256)": "dd02c964",
        "safeBatchTransferFrom(address,address,uint256[],uint256[],bytes)": "2eb2c2d6",
        "safeTransferFrom(address,address,uint256,uint256,bytes)": "f242432a",
        "setApprovalForAll(address,bool)": "a22cb465",
        "supportsInterface(bytes4)": "01ffc9a7",
        "unlockCallback(bytes)": "91dd7346",
        "uri(uint256)": "0e89341c"
    },
    "id": 109
}