{
    "abi": [
        {
            "type": "constructor",
            "inputs": [
                {
                    "name": "_poolManager",
                    "type": "address",
                    "internalType": "contract IPoolManager"
                }
            ],
            "stateMutability": "nonpayable"
        },
        {
            "type": "function",
            "name": "BASE_FEE",
            "inputs": [],
            "outputs": [
                {
                    "name": "",
                    "type": "uint24",
                    "internalType": "uint24"
                }
            ],
            "stateMutability": "view"
        },
        {
            "type": "function",
            "name": "afterAddLiquidity",
            "inputs": [
                {
                    "name": "",
                    "type": "address",
                    "internalType": "address"
                },
                {
                    "name": "",
                    "type": "tuple",
                    "internalType": "struct PoolKey",
                    "components": [
                        {
                            "name": "currency0",
                            "type": "address",
                            "internalType": "Currency"
                        },
                        {
                            "name": "currency1",
                            "type": "address",
                            "internalType": "Currency"
                        },
                        {
                            "name": "fee",
                            "type": "uint24",
                            "internalType": "uint24"
                        },
                        {
                            "name": "tickSpacing",
                            "type": "int24",
                            "internalType": "int24"
                        },
                        {
                            "name": "hooks",
                            "type": "address",
                            "internalType": "contract IHooks"
                        }
                    ]
                },
                {
                    "name": "",
                    "type": "tuple",
                    "internalType": "struct IPoolManager.ModifyLiquidityParams",
                    "components": [
                        {
                            "name": "tickLower",
                            "type": "int24",
                            "internalType": "int24"
                        },
                        {
                            "name": "tickUpper",
                            "type": "int24",
                            "internalType": "int24"
                        },
                        {
                            "name": "liquidityDelta",
                            "type": "int256",
                            "internalType": "int256"
                        },
                        {
                            "name": "salt",
                            "type": "bytes32",
                            "internalType": "bytes32"
                        }
                    ]
                },
                {
                    "name": "",
                    "type": "int256",
                    "internalType": "BalanceDelta"
                },
                {
                    "name": "",
                    "type": "int256",
                    "internalType": "BalanceDelta"
                },
                {
                    "name": "",
                    "type": "bytes",
                    "internalType": "bytes"
                }
            ],
            "outputs": [
                {
                    "name": "",
                    "type": "bytes4",
                    "internalType": "bytes4"
                },
                {
                    "name": "",
                    "type": "int256",
                    "internalType": "BalanceDelta"
                }
            ],
            "stateMutability": "nonpayable"
        },
        {
            "type": "function",
            "name": "afterDonate",
            "inputs": [
                {
                    "name": "",
                    "type": "address",
                    "internalType": "address"
                },
                {
                    "name": "",
                    "type": "tuple",
                    "internalType": "struct PoolKey",
                    "components": [
                        {
                            "name": "currency0",
                            "type": "address",
                            "internalType": "Currency"
                        },
                        {
                            "name": "currency1",
                            "type": "address",
                            "internalType": "Currency"
                        },
                        {
                            "name": "fee",
                            "type": "uint24",
                            "internalType": "uint24"
                        },
                        {
                            "name": "tickSpacing",
                            "type": "int24",
                            "internalType": "int24"
                        },
                        {
                            "name": "hooks",
                            "type": "address",
                            "internalType": "contract IHooks"
                        }
                    ]
                },
                {
                    "name": "",
                    "type": "uint256",
                    "internalType": "uint256"
                },
                {
                    "name": "",
                    "type": "uint256",
                    "internalType": "uint256"
                },
                {
                    "name": "",
                    "type": "bytes",
                    "internalType": "bytes"
                }
            ],
            "outputs": [
                {
                    "name": "",
                    "type": "bytes4",
                    "internalType": "bytes4"
                }
            ],
            "stateMutability": "nonpayable"
        },
        {
            "type": "function",
            "name": "afterInitialize",
            "inputs": [
                {
                    "name": "",
                    "type": "address",
                    "internalType": "address"
                },
                {
                    "name": "",
                    "type": "tuple",
                    "internalType": "struct PoolKey",
                    "components": [
                        {
                            "name": "currency0",
                            "type": "address",
                            "internalType": "Currency"
                        },
                        {
                            "name": "currency1",
                            "type": "address",
                            "internalType": "Currency"
                        },
                        {
                            "name": "fee",
                            "type": "uint24",
                            "internalType": "uint24"
                        },
                        {
                            "name": "tickSpacing",
                            "type": "int24",
                            "internalType": "int24"
                        },
                        {
                            "name": "hooks",
                            "type": "address",
                            "internalType": "contract IHooks"
                        }
                    ]
                },
                {
                    "name": "",
                    "type": "uint160",
                    "internalType": "uint160"
                },
                {
                    "name": "",
                    "type": "int24",
                    "internalType": "int24"
                }
            ],
            "outputs": [
                {
                    "name": "",
                    "type": "bytes4",
                    "internalType": "bytes4"
                }
            ],
            "stateMutability": "nonpayable"
        },
        {
            "type": "function",
            "name": "afterRemoveLiquidity",
            "inputs": [
                {
                    "name": "",
                    "type": "address",
                    "internalType": "address"
                },
                {
                    "name": "",
                    "type": "tuple",
                    "internalType": "struct PoolKey",
                    "components": [
                        {
                            "name": "currency0",
                            "type": "address",
                            "internalType": "Currency"
                        },
                        {
                            "name": "currency1",
                            "type": "address",
                            "internalType": "Currency"
                        },
                        {
                            "name": "fee",
                            "type": "uint24",
                            "internalType": "uint24"
                        },
                        {
                            "name": "tickSpacing",
                            "type": "int24",
                            "internalType": "int24"
                        },
                        {
                            "name": "hooks",
                            "type": "address",
                            "internalType": "contract IHooks"
                        }
                    ]
                },
                {
                    "name": "",
                    "type": "tuple",
                    "internalType": "struct IPoolManager.ModifyLiquidityParams",
                    "components": [
                        {
                            "name": "tickLower",
                            "type": "int24",
                            "internalType": "int24"
                        },
                        {
                            "name": "tickUpper",
                            "type": "int24",
                            "internalType": "int24"
                        },
                        {
                            "name": "liquidityDelta",
                            "type": "int256",
                            "internalType": "int256"
                        },
                        {
                            "name": "salt",
                            "type": "bytes32",
                            "internalType": "bytes32"
                        }
                    ]
                },
                {
                    "name": "",
                    "type": "int256",
                    "internalType": "BalanceDelta"
                },
                {
                    "name": "",
                    "type": "int256",
                    "internalType": "BalanceDelta"
                },
                {
                    "name": "",
                    "type": "bytes",
                    "internalType": "bytes"
                }
            ],
            "outputs": [
                {
                    "name": "",
                    "type": "bytes4",
                    "internalType": "bytes4"
                },
                {
                    "name": "",
                    "type": "int256",
                    "internalType": "BalanceDelta"
                }
            ],
            "stateMutability": "nonpayable"
        },
        {
            "type": "function",
            "name": "afterSwap",
            "inputs": [
                {
                    "name": "",
                    "type": "address",
                    "internalType": "address"
                },
                {
                    "name": "",
                    "type": "tuple",
                    "internalType": "struct PoolKey",
                    "components": [
                        {
                            "name": "currency0",
                            "type": "address",
                            "internalType": "Currency"
                        },
                        {
                            "name": "currency1",
                            "type": "address",
                            "internalType": "Currency"
                        },
                        {
                            "name": "fee",
                            "type": "uint24",
                            "internalType": "uint24"
                        },
                        {
                            "name": "tickSpacing",
                            "type": "int24",
                            "internalType": "int24"
                        },
                        {
                            "name": "hooks",
                            "type": "address",
                            "internalType": "contract IHooks"
                        }
                    ]
                },
                {
                    "name": "",
                    "type": "tuple",
                    "internalType": "struct IPoolManager.SwapParams",
                    "components": [
                        {
                            "name": "zeroForOne",
                            "type": "bool",
                            "internalType": "bool"
                        },
                        {
                            "name": "amountSpecified",
                            "type": "int256",
                            "internalType": "int256"
                        },
                        {
                            "name": "sqrtPriceLimitX96",
                            "type": "uint160",
                            "internalType": "uint160"
                        }
                    ]
                },
                {
                    "name": "",
                    "type": "int256",
                    "internalType": "BalanceDelta"
                },
                {
                    "name": "",
                    "type": "bytes",
                    "internalType": "bytes"
                }
            ],
            "outputs": [
                {
                    "name": "",
                    "type": "bytes4",
                    "internalType": "bytes4"
                },
                {
                    "name": "",
                    "type": "int128",
                    "internalType": "int128"
                }
            ],
            "stateMutability": "nonpayable"
        },
        {
            "type": "function",
            "name": "beforeAddLiquidity",
            "inputs": [
                {
                    "name": "",
                    "type": "address",
                    "internalType": "address"
                },
                {
                    "name": "",
                    "type": "tuple",
                    "internalType": "struct PoolKey",
                    "components": [
                        {
                            "name": "currency0",
                            "type": "address",
                            "internalType": "Currency"
                        },
                        {
                            "name": "currency1",
                            "type": "address",
                            "internalType": "Currency"
                        },
                        {
                            "name": "fee",
                            "type": "uint24",
                            "internalType": "uint24"
                        },
                        {
                            "name": "tickSpacing",
                            "type": "int24",
                            "internalType": "int24"
                        },
                        {
                            "name": "hooks",
                            "type": "address",
                            "internalType": "contract IHooks"
                        }
                    ]
                },
                {
                    "name": "",
                    "type": "tuple",
                    "internalType": "struct IPoolManager.ModifyLiquidityParams",
                    "components": [
                        {
                            "name": "tickLower",
                            "type": "int24",
                            "internalType": "int24"
                        },
                        {
                            "name": "tickUpper",
                            "type": "int24",
                            "internalType": "int24"
                        },
                        {
                            "name": "liquidityDelta",
                            "type": "int256",
                            "internalType": "int256"
                        },
                        {
                            "name": "salt",
                            "type": "bytes32",
                            "internalType": "bytes32"
                        }
                    ]
                },
                {
                    "name": "",
                    "type": "bytes",
                    "internalType": "bytes"
                }
            ],
            "outputs": [
                {
                    "name": "",
                    "type": "bytes4",
                    "internalType": "bytes4"
                }
            ],
            "stateMutability": "nonpayable"
        },
        {
            "type": "function",
            "name": "beforeDonate",
            "inputs": [
                {
                    "name": "",
                    "type": "address",
                    "internalType": "address"
                },
                {
                    "name": "",
                    "type": "tuple",
                    "internalType": "struct PoolKey",
                    "components": [
                        {
                            "name": "currency0",
                            "type": "address",
                            "internalType": "Currency"
                        },
                        {
                            "name": "currency1",
                            "type": "address",
                            "internalType": "Currency"
                        },
                        {
                            "name": "fee",
                            "type": "uint24",
                            "internalType": "uint24"
                        },
                        {
                            "name": "tickSpacing",
                            "type": "int24",
                            "internalType": "int24"
                        },
                        {
                            "name": "hooks",
                            "type": "address",
                            "internalType": "contract IHooks"
                        }
                    ]
                },
                {
                    "name": "",
                    "type": "uint256",
                    "internalType": "uint256"
                },
                {
                    "name": "",
                    "type": "uint256",
                    "internalType": "uint256"
                },
                {
                    "name": "",
                    "type": "bytes",
                    "internalType": "bytes"
                }
            ],
            "outputs": [
                {
                    "name": "",
                    "type": "bytes4",
                    "internalType": "bytes4"
                }
            ],
            "stateMutability": "nonpayable"
        },
        {
            "type": "function",
            "name": "beforeInitialize",
            "inputs": [
                {
                    "name": "",
                    "type": "address",
                    "internalType": "address"
                },
                {
                    "name": "key",
                    "type": "tuple",
                    "internalType": "struct PoolKey",
                    "components": [
                        {
                            "name": "currency0",
                            "type": "address",
                            "internalType": "Currency"
                        },
                        {
                            "name": "currency1",
                            "type": "address",
                            "internalType": "Currency"
                        },
                        {
                            "name": "fee",
                            "type": "uint24",
                            "internalType": "uint24"
                        },
                        {
                            "name": "tickSpacing",
                            "type": "int24",
                            "internalType": "int24"
                        },
                        {
                            "name": "hooks",
                            "type": "address",
                            "internalType": "contract IHooks"
                        }
                    ]
                },
                {
                    "name": "",
                    "type": "uint160",
                    "internalType": "uint160"
                }
            ],
            "outputs": [
                {
                    "name": "",
                    "type": "bytes4",
                    "internalType": "bytes4"
                }
            ],
            "stateMutability": "nonpayable"
        },
        {
            "type": "function",
            "name": "beforeRemoveLiquidity",
            "inputs": [
                {
                    "name": "",
                    "type": "address",
                    "internalType": "address"
                },
                {
                    "name": "",
                    "type": "tuple",
                    "internalType": "struct PoolKey",
                    "components": [
                        {
                            "name": "currency0",
                            "type": "address",
                            "internalType": "Currency"
                        },
                        {
                            "name": "currency1",
                            "type": "address",
                            "internalType": "Currency"
                        },
                        {
                            "name": "fee",
                            "type": "uint24",
                            "internalType": "uint24"
                        },
                        {
                            "name": "tickSpacing",
                            "type": "int24",
                            "internalType": "int24"
                        },
                        {
                            "name": "hooks",
                            "type": "address",
                            "internalType": "contract IHooks"
                        }
                    ]
                },
                {
                    "name": "",
                    "type": "tuple",
                    "internalType": "struct IPoolManager.ModifyLiquidityParams",
                    "components": [
                        {
                            "name": "tickLower",
                            "type": "int24",
                            "internalType": "int24"
                        },
                        {
                            "name": "tickUpper",
                            "type": "int24",
                            "internalType": "int24"
                        },
                        {
                            "name": "liquidityDelta",
                            "type": "int256",
                            "internalType": "int256"
                        },
                        {
                            "name": "salt",
                            "type": "bytes32",
                            "internalType": "bytes32"
                        }
                    ]
                },
                {
                    "name": "",
                    "type": "bytes",
                    "internalType": "bytes"
                }
            ],
            "outputs": [
                {
                    "name": "",
                    "type": "bytes4",
                    "internalType": "bytes4"
                }
            ],
            "stateMutability": "nonpayable"
        },
        {
            "type": "function",
            "name": "beforeSwap",
            "inputs": [
                {
                    "name": "",
                    "type": "address",
                    "internalType": "address"
                },
                {
                    "name": "key",
                    "type": "tuple",
                    "internalType": "struct PoolKey",
                    "components": [
                        {
                            "name": "currency0",
                            "type": "address",
                            "internalType": "Currency"
                        },
                        {
                            "name": "currency1",
                            "type": "address",
                            "internalType": "Currency"
                        },
                        {
                            "name": "fee",
                            "type": "uint24",
                            "internalType": "uint24"
                        },
                        {
                            "name": "tickSpacing",
                            "type": "int24",
                            "internalType": "int24"
                        },
                        {
                            "name": "hooks",
                            "type": "address",
                            "internalType": "contract IHooks"
                        }
                    ]
                },
                {
                    "name": "",
                    "type": "tuple",
                    "internalType": "struct IPoolManager.SwapParams",
                    "components": [
                        {
                            "name": "zeroForOne",
                            "type": "bool",
                            "internalType": "bool"
                        },
                        {
                            "name": "amountSpecified",
                            "type": "int256",
                            "internalType": "int256"
                        },
                        {
                            "name": "sqrtPriceLimitX96",
                            "type": "uint160",
                            "internalType": "uint160"
                        }
                    ]
                },
                {
                    "name": "",
                    "type": "bytes",
                    "internalType": "bytes"
                }
            ],
            "outputs": [
                {
                    "name": "",
                    "type": "bytes4",
                    "internalType": "bytes4"
                },
                {
                    "name": "",
                    "type": "int256",
                    "internalType": "BeforeSwapDelta"
                },
                {
                    "name": "",
                    "type": "uint24",
                    "internalType": "uint24"
                }
            ],
            "stateMutability": "nonpayable"
        },
        {
            "type": "function",
            "name": "getHookPermissions",
            "inputs": [],
            "outputs": [
                {
                    "name": "",
                    "type": "tuple",
                    "internalType": "struct Hooks.Permissions",
                    "components": [
                        {
                            "name": "beforeInitialize",
                            "type": "bool",
                            "internalType": "bool"
                        },
                        {
                            "name": "afterInitialize",
                            "type": "bool",
                            "internalType": "bool"
                        },
                        {
                            "name": "beforeAddLiquidity",
                            "type": "bool",
                            "internalType": "bool"
                        },
                        {
                            "name": "afterAddLiquidity",
                            "type": "bool",
                            "internalType": "bool"
                        },
                        {
                            "name": "beforeRemoveLiquidity",
                            "type": "bool",
                            "internalType": "bool"
                        },
                        {
                            "name": "afterRemoveLiquidity",
                            "type": "bool",
                            "internalType": "bool"
                        },
                        {
                            "name": "beforeSwap",
                            "type": "bool",
                            "internalType": "bool"
                        },
                        {
                            "name": "afterSwap",
                            "type": "bool",
                            "internalType": "bool"
                        },
                        {
                            "name": "beforeDonate",
                            "type": "bool",
                            "internalType": "bool"
                        },
                        {
                            "name": "afterDonate",
                            "type": "bool",
                            "internalType": "bool"
                        },
                        {
                            "name": "beforeSwapReturnDelta",
                            "type": "bool",
                            "internalType": "bool"
                        },
                        {
                            "name": "afterSwapReturnDelta",
                            "type": "bool",
                            "internalType": "bool"
                        },
                        {
                            "name": "afterAddLiquidityReturnDelta",
                            "type": "bool",
                            "internalType": "bool"
                        },
                        {
                            "name": "afterRemoveLiquidityReturnDelta",
                            "type": "bool",
                            "internalType": "bool"
                        }
                    ]
                }
            ],
            "stateMutability": "pure"
        },
        {
            "type": "function",
            "name": "movingAverageGasPrice",
            "inputs": [],
            "outputs": [
                {
                    "name": "",
                    "type": "uint128",
                    "internalType": "uint128"
                }
            ],
            "stateMutability": "view"
        },
        {
            "type": "function",
            "name": "movingAverageGasPriceCount",
            "inputs": [],
            "outputs": [
                {
                    "name": "",
                    "type": "uint104",
                    "internalType": "uint104"
                }
            ],
            "stateMutability": "view"
        },
        {
            "type": "function",
            "name": "poolManager",
            "inputs": [],
            "outputs": [
                {
                    "name": "",
                    "type": "address",
                    "internalType": "contract IPoolManager"
                }
            ],
            "stateMutability": "view"
        },
        {
            "type": "function",
            "name": "unlockCallback",
            "inputs": [
                {
                    "name": "data",
                    "type": "bytes",
                    "internalType": "bytes"
                }
            ],
            "outputs": [
                {
                    "name": "",
                    "type": "bytes",
                    "internalType": "bytes"
                }
            ],
            "stateMutability": "nonpayable"
        },
        {
            "type": "error",
            "name": "HookNotImplemented",
            "inputs": []
        },
        {
            "type": "error",
            "name": "InvalidPool",
            "inputs": []
        },
        {
            "type": "error",
            "name": "LockFailure",
            "inputs": []
        },
        {
            "type": "error",
            "name": "MustUseDynamicFee",
            "inputs": []
        },
        {
            "type": "error",
            "name": "NotPoolManager",
            "inputs": []
        },
        {
            "type": "error",
            "name": "NotSelf",
            "inputs": []
        }
    ],
    "bytecode": {
        "object": "0x60a060405234801561000f575f80fd5b5060405161144c38038061144c83398101604081905261002e91610464565b6001600160a01b0381166080528061004530610054565b5061004e610147565b50610571565b6101448161013f604080516101c0810182525f80825260208201819052918101829052606081018290526080810182905260a0810182905260c0810182905260e08101829052610100810182905261012081018290526101408101829052610160810182905261018081018290526101a081019190915250604080516101c08101825260018082525f60208301819052928201839052606082018390526080820183905260a0820183905260c0820181905260e0820152610100810182905261012081018290526101408101829052610160810182905261018081018290526101a081019190915290565b610209565b50565b5f543a9061016690600160801b90046001600160681b031660016104a5565b5f546001600160681b0391821691839161019191600160801b820416906001600160801b03166104c4565b61019b91906104ed565b6101a5919061050c565b5f80546001600160801b0319166001600160801b039290921691909117808255600160801b90046001600160681b03169060106101e183610546565b91906101000a8154816001600160681b0302191690836001600160681b031602179055505050565b61021e6001600160a01b03831661200061043a565b8151151590151514158061024e57506102426001600160a01b03831661100061043a565b15158160200151151514155b8061027557506102696001600160a01b03831661080061043a565b15158160400151151514155b8061029c57506102906001600160a01b03831661040061043a565b15158160600151151514155b806102c357506102b76001600160a01b03831661020061043a565b15158160800151151514155b806102ea57506102de6001600160a01b03831661010061043a565b15158160a00151151514155b8061031057506103046001600160a01b038316608061043a565b15158160c00151151514155b80610336575061032a6001600160a01b038316604061043a565b15158160e00151151514155b8061035d57506103506001600160a01b038316602061043a565b1515816101000151151514155b8061038457506103776001600160a01b038316601061043a565b1515816101200151151514155b806103ab575061039e6001600160a01b038316600861043a565b1515816101400151151514155b806103d257506103c56001600160a01b038316600461043a565b1515816101600151151514155b806103f957506103ec6001600160a01b038316600261043a565b1515816101800151151514155b8061042057506104136001600160a01b038316600161043a565b1515816101a00151151514155b1561043657610436630732d7b560e51b8361044f565b5050565b6001600160a01b038282161615155b92915050565b815f526001600160a01b03811660045260245ffd5b5f60208284031215610474575f80fd5b81516001600160a01b038116811461048a575f80fd5b9392505050565b634e487b7160e01b5f52601160045260245ffd5b6001600160681b03818116838216019081111561044957610449610491565b6001600160801b0381811683821602908116908181146104e6576104e6610491565b5092915050565b6001600160801b03818116838216019081111561044957610449610491565b5f6001600160801b0383168061053057634e487b7160e01b5f52601260045260245ffd5b6001600160801b03929092169190910492915050565b5f6001600160681b0382166002600160681b0319810161056857610568610491565b60010192915050565b608051610eb56105975f395f81816103840152818161041101526104b60152610eb55ff3fe608060405234801561000f575f80fd5b50600436106100fb575f3560e01c80639f063efc11610093578063cd2c70e811610063578063cd2c70e81461034e578063dc4c90d31461037f578063dc98354e146103be578063e1b4af691461024c575f80fd5b80639f063efc1461018b578063b47b2fb114610216578063b6a8b0fa1461024c578063c4e833ce1461025a575f80fd5b80636c2bbe7e116100ce5780636c2bbe7e1461018b5780636fe7e6eb146101be57806391dd7346146101cc5780639a161daa146101ec575f80fd5b806321d0ee70146100ff578063259982e5146100ff5780633d18651e14610130578063575e24b41461014d575b5f80fd5b61011261010d366004610804565b6103d1565b6040516001600160e01b031990911681526020015b60405180910390f35b61013961138881565b60405162ffffff9091168152602001610127565b61016061015b36600461088b565b6103eb565b604080516001600160e01b03199094168452602084019290925262ffffff1690820152606001610127565b61019e6101993660046108e5565b61048e565b604080516001600160e01b03199093168352602083019190915201610127565b61011261010d366004610986565b6101df6101da3660046109dd565b6104a9565b6040516101279190610a1c565b5f546101fe906001600160801b031681565b6040516001600160801b039091168152602001610127565b610229610224366004610a51565b610507565b604080516001600160e01b03199093168352600f9190910b602083015201610127565b61011261010d366004610ad2565b610341604080516101c0810182525f80825260208201819052918101829052606081018290526080810182905260a0810182905260c0810182905260e08101829052610100810182905261012081018290526101408101829052610160810182905261018081018290526101a081019190915250604080516101c08101825260018082525f60208301819052928201839052606082018390526080820183905260a0820183905260c0820181905260e0820152610100810182905261012081018290526101408101829052610160810182905261018081018290526101a081019190915290565b6040516101279190610b2c565b5f5461036790600160801b90046001600160681b031681565b6040516001600160681b039091168152602001610127565b6103a67f000000000000000000000000000000000000000000000000000000000000000081565b6040516001600160a01b039091168152602001610127565b6101126103cc366004610c4d565b610527565b5f604051630a85dc2960e01b815260040160405180910390fd5b5f805f806103f761057a565b604051635275965160e01b81529091506001600160a01b037f00000000000000000000000000000000000000000000000000000000000000001690635275965190610448908b908590600401610ca6565b5f604051808303815f87803b15801561045f575f80fd5b505af1158015610471573d5f803e3d5ffd5b506315d7892d60e21b9c5f9c508c9b509950505050505050505050565b5f80604051630a85dc2960e01b815260040160405180910390fd5b6060336001600160a01b037f000000000000000000000000000000000000000000000000000000000000000016146104f45760405163570c108560e11b815260040160405180910390fd5b6104fe838361061e565b90505b92915050565b5f806105116106b7565b5063b47b2fb160e01b975f975095505050505050565b5f61054d61053b6060850160408601610d35565b62ffffff1662ffffff16628000001490565b61056a576040516315b3d69f60e31b815260040160405180910390fd5b50636e4c1aa760e11b9392505050565b5f80543a90600a90610596906001600160801b0316600b610d62565b6105a09190610d98565b6001600160801b0316816001600160801b031611156105cc576105c66002611388610dc5565b91505090565b5f54600a906105e5906001600160801b03166009610d62565b6105ef9190610d98565b6001600160801b0316816001600160801b03161015610615576105c66113886002610dea565b61138891505090565b60605f80306001600160a01b0316858560405161063c929190610e08565b5f604051808303815f865af19150503d805f8114610675576040519150601f19603f3d011682016040523d82523d5f602084013e61067a565b606091505b5091509150811561068e5791506105019050565b80515f036106af576040516314815f4760e31b815260040160405180910390fd5b805160208201fd5b5f543a906106d690600160801b90046001600160681b03166001610e17565b5f546001600160681b0391821691839161070191600160801b820416906001600160801b0316610d62565b61070b9190610e36565b6107159190610d98565b5f80546fffffffffffffffffffffffffffffffff19166001600160801b039290921691909117808255600160801b90046001600160681b031690601061075a83610e55565b91906101000a8154816001600160681b0302191690836001600160681b031602179055505050565b6001600160a01b0381168114610796575f80fd5b50565b5f60a082840312156107a9575f80fd5b50919050565b5f608082840312156107a9575f80fd5b5f8083601f8401126107cf575f80fd5b50813567ffffffffffffffff8111156107e6575f80fd5b6020830191508360208285010111156107fd575f80fd5b9250929050565b5f805f805f6101608688031215610819575f80fd5b853561082481610782565b94506108338760208801610799565b93506108428760c088016107af565b925061014086013567ffffffffffffffff81111561085e575f80fd5b61086a888289016107bf565b969995985093965092949392505050565b5f606082840312156107a9575f80fd5b5f805f805f61014086880312156108a0575f80fd5b85356108ab81610782565b94506108ba8760208801610799565b93506108c98760c0880161087b565b925061012086013567ffffffffffffffff81111561085e575f80fd5b5f805f805f805f6101a0888a0312156108fc575f80fd5b873561090781610782565b96506109168960208a01610799565b95506109258960c08a016107af565b94506101408801359350610160880135925061018088013567ffffffffffffffff811115610951575f80fd5b61095d8a828b016107bf565b989b979a50959850939692959293505050565b8035600281900b8114610981575f80fd5b919050565b5f805f80610100858703121561099a575f80fd5b84356109a581610782565b93506109b48660208701610799565b925060c08501356109c481610782565b91506109d260e08601610970565b905092959194509250565b5f80602083850312156109ee575f80fd5b823567ffffffffffffffff811115610a04575f80fd5b610a10858286016107bf565b90969095509350505050565b602081525f82518060208401528060208501604085015e5f604082850101526040601f19601f83011684010191505092915050565b5f805f805f806101608789031215610a67575f80fd5b8635610a7281610782565b9550610a818860208901610799565b9450610a908860c0890161087b565b9350610120870135925061014087013567ffffffffffffffff811115610ab4575f80fd5b610ac089828a016107bf565b979a9699509497509295939492505050565b5f805f805f806101208789031215610ae8575f80fd5b8635610af381610782565b9550610b028860208901610799565b945060c0870135935060e0870135925061010087013567ffffffffffffffff811115610ab4575f80fd5b8151151581526101c081016020830151610b4a602084018215159052565b506040830151610b5e604084018215159052565b506060830151610b72606084018215159052565b506080830151610b86608084018215159052565b5060a0830151610b9a60a084018215159052565b5060c0830151610bae60c084018215159052565b5060e0830151610bc260e084018215159052565b50610100830151610bd861010084018215159052565b50610120830151610bee61012084018215159052565b50610140830151610c0461014084018215159052565b50610160830151610c1a61016084018215159052565b50610180830151610c3061018084018215159052565b506101a0830151610c466101a084018215159052565b5092915050565b5f805f60e08486031215610c5f575f80fd5b8335610c6a81610782565b9250610c798560208601610799565b915060c0840135610c8981610782565b809150509250925092565b803562ffffff81168114610981575f80fd5b60c081018335610cb581610782565b6001600160a01b031682526020840135610cce81610782565b6001600160a01b0316602083015262ffffff610cec60408601610c94565b166040830152610cfe60608501610970565b60020b60608301526080840135610d1481610782565b6001600160a01b0316608083015262ffffff9290921660a090910152919050565b5f60208284031215610d45575f80fd5b6104fe82610c94565b634e487b7160e01b5f52601160045260245ffd5b6001600160801b038181168382160290811690818114610c4657610c46610d4e565b634e487b7160e01b5f52601260045260245ffd5b5f6001600160801b03831680610db057610db0610d84565b806001600160801b0384160491505092915050565b5f62ffffff831680610dd957610dd9610d84565b8062ffffff84160491505092915050565b62ffffff8181168382160290811690818114610c4657610c46610d4e565b818382375f9101908152919050565b6001600160681b03818116838216019081111561050157610501610d4e565b6001600160801b03818116838216019081111561050157610501610d4e565b5f6001600160681b0382166001600160681b038103610e7657610e76610d4e565b6001019291505056fea26469706673582212207f1def5f763fe96c83d72c6611b665c2a9d825f6a20b302d854a63721428834064736f6c634300081a0033",
        "linkReferences": {}
    },
    "methodIdentifiers": {
        "BASE_FEE()": "3d18651e",
        "afterAddLiquidity(address,(address,address,uint24,int24,address),(int24,int24,int256,bytes32),int256,int256,bytes)": "9f063efc",
        "afterDonate(address,(address,address,uint24,int24,address),uint256,uint256,bytes)": "e1b4af69",
        "afterInitialize(address,(address,address,uint24,int24,address),uint160,int24)": "6fe7e6eb",
        "afterRemoveLiquidity(address,(address,address,uint24,int24,address),(int24,int24,int256,bytes32),int256,int256,bytes)": "6c2bbe7e",
        "afterSwap(address,(address,address,uint24,int24,address),(bool,int256,uint160),int256,bytes)": "b47b2fb1",
        "beforeAddLiquidity(address,(address,address,uint24,int24,address),(int24,int24,int256,bytes32),bytes)": "259982e5",
        "beforeDonate(address,(address,address,uint24,int24,address),uint256,uint256,bytes)": "b6a8b0fa",
        "beforeInitialize(address,(address,address,uint24,int24,address),uint160)": "dc98354e",
        "beforeRemoveLiquidity(address,(address,address,uint24,int24,address),(int24,int24,int256,bytes32),bytes)": "21d0ee70",
        "beforeSwap(address,(address,address,uint24,int24,address),(bool,int256,uint160),bytes)": "575e24b4",
        "getHookPermissions()": "c4e833ce",
        "movingAverageGasPrice()": "9a161daa",
        "movingAverageGasPriceCount()": "cd2c70e8",
        "poolManager()": "dc4c90d3",
        "unlockCallback(bytes)": "91dd7346"
    },
    "id": 107
}