{"abi":[{"type":"constructor","inputs":[{"name":"_poolManager","type":"address","internalType":"contract IPoolManager"}],"stateMutability":"nonpayable"},{"type":"function","name":"afterAddLiquidity","inputs":[{"name":"","type":"address","internalType":"address"},{"name":"","type":"tuple","internalType":"struct PoolKey","components":[{"name":"currency0","type":"address","internalType":"Currency"},{"name":"currency1","type":"address","internalType":"Currency"},{"name":"fee","type":"uint24","internalType":"uint24"},{"name":"tickSpacing","type":"int24","internalType":"int24"},{"name":"hooks","type":"address","internalType":"contract IHooks"}]},{"name":"","type":"tuple","internalType":"struct IPoolManager.ModifyLiquidityParams","components":[{"name":"tickLower","type":"int24","internalType":"int24"},{"name":"tickUpper","type":"int24","internalType":"int24"},{"name":"liquidityDelta","type":"int256","internalType":"int256"},{"name":"salt","type":"bytes32","internalType":"bytes32"}]},{"name":"","type":"int256","internalType":"BalanceDelta"},{"name":"","type":"int256","internalType":"BalanceDelta"},{"name":"","type":"bytes","internalType":"bytes"}],"outputs":[{"name":"","type":"bytes4","internalType":"bytes4"},{"name":"","type":"int256","internalType":"BalanceDelta"}],"stateMutability":"nonpayable"},{"type":"function","name":"afterDonate","inputs":[{"name":"","type":"address","internalType":"address"},{"name":"","type":"tuple","internalType":"struct PoolKey","components":[{"name":"currency0","type":"address","internalType":"Currency"},{"name":"currency1","type":"address","internalType":"Currency"},{"name":"fee","type":"uint24","internalType":"uint24"},{"name":"tickSpacing","type":"int24","internalType":"int24"},{"name":"hooks","type":"address","internalType":"contract IHooks"}]},{"name":"","type":"uint256","internalType":"uint256"},{"name":"","type":"uint256","internalType":"uint256"},{"name":"","type":"bytes","internalType":"bytes"}],"outputs":[{"name":"","type":"bytes4","internalType":"bytes4"}],"stateMutability":"nonpayable"},{"type":"function","name":"afterInitialize","inputs":[{"name":"","type":"address","internalType":"address"},{"name":"","type":"tuple","internalType":"struct PoolKey","components":[{"name":"currency0","type":"address","internalType":"Currency"},{"name":"currency1","type":"address","internalType":"Currency"},{"name":"fee","type":"uint24","internalType":"uint24"},{"name":"tickSpacing","type":"int24","internalType":"int24"},{"name":"hooks","type":"address","internalType":"contract IHooks"}]},{"name":"","type":"uint160","internalType":"uint160"},{"name":"","type":"int24","internalType":"int24"},{"name":"","type":"bytes","internalType":"bytes"}],"outputs":[{"name":"","type":"bytes4","internalType":"bytes4"}],"stateMutability":"nonpayable"},{"type":"function","name":"afterRemoveLiquidity","inputs":[{"name":"","type":"address","internalType":"address"},{"name":"","type":"tuple","internalType":"struct PoolKey","components":[{"name":"currency0","type":"address","internalType":"Currency"},{"name":"currency1","type":"address","internalType":"Currency"},{"name":"fee","type":"uint24","internalType":"uint24"},{"name":"tickSpacing","type":"int24","internalType":"int24"},{"name":"hooks","type":"address","internalType":"contract IHooks"}]},{"name":"","type":"tuple","internalType":"struct IPoolManager.ModifyLiquidityParams","components":[{"name":"tickLower","type":"int24","internalType":"int24"},{"name":"tickUpper","type":"int24","internalType":"int24"},{"name":"liquidityDelta","type":"int256","internalType":"int256"},{"name":"salt","type":"bytes32","internalType":"bytes32"}]},{"name":"","type":"int256","internalType":"BalanceDelta"},{"name":"","type":"int256","internalType":"BalanceDelta"},{"name":"","type":"bytes","internalType":"bytes"}],"outputs":[{"name":"","type":"bytes4","internalType":"bytes4"},{"name":"","type":"int256","internalType":"BalanceDelta"}],"stateMutability":"nonpayable"},{"type":"function","name":"afterSwap","inputs":[{"name":"","type":"address","internalType":"address"},{"name":"key","type":"tuple","internalType":"struct PoolKey","components":[{"name":"currency0","type":"address","internalType":"Currency"},{"name":"currency1","type":"address","internalType":"Currency"},{"name":"fee","type":"uint24","internalType":"uint24"},{"name":"tickSpacing","type":"int24","internalType":"int24"},{"name":"hooks","type":"address","internalType":"contract IHooks"}]},{"name":"","type":"tuple","internalType":"struct IPoolManager.SwapParams","components":[{"name":"zeroForOne","type":"bool","internalType":"bool"},{"name":"amountSpecified","type":"int256","internalType":"int256"},{"name":"sqrtPriceLimitX96","type":"uint160","internalType":"uint160"}]},{"name":"","type":"int256","internalType":"BalanceDelta"},{"name":"","type":"bytes","internalType":"bytes"}],"outputs":[{"name":"","type":"bytes4","internalType":"bytes4"},{"name":"","type":"int128","internalType":"int128"}],"stateMutability":"nonpayable"},{"type":"function","name":"afterSwapCount","inputs":[{"name":"","type":"bytes32","internalType":"PoolId"}],"outputs":[{"name":"count","type":"uint256","internalType":"uint256"}],"stateMutability":"view"},{"type":"function","name":"beforeAddLiquidity","inputs":[{"name":"","type":"address","internalType":"address"},{"name":"key","type":"tuple","internalType":"struct PoolKey","components":[{"name":"currency0","type":"address","internalType":"Currency"},{"name":"currency1","type":"address","internalType":"Currency"},{"name":"fee","type":"uint24","internalType":"uint24"},{"name":"tickSpacing","type":"int24","internalType":"int24"},{"name":"hooks","type":"address","internalType":"contract IHooks"}]},{"name":"","type":"tuple","internalType":"struct IPoolManager.ModifyLiquidityParams","components":[{"name":"tickLower","type":"int24","internalType":"int24"},{"name":"tickUpper","type":"int24","internalType":"int24"},{"name":"liquidityDelta","type":"int256","internalType":"int256"},{"name":"salt","type":"bytes32","internalType":"bytes32"}]},{"name":"","type":"bytes","internalType":"bytes"}],"outputs":[{"name":"","type":"bytes4","internalType":"bytes4"}],"stateMutability":"nonpayable"},{"type":"function","name":"beforeAddLiquidityCount","inputs":[{"name":"","type":"bytes32","internalType":"PoolId"}],"outputs":[{"name":"count","type":"uint256","internalType":"uint256"}],"stateMutability":"view"},{"type":"function","name":"beforeDonate","inputs":[{"name":"","type":"address","internalType":"address"},{"name":"","type":"tuple","internalType":"struct PoolKey","components":[{"name":"currency0","type":"address","internalType":"Currency"},{"name":"currency1","type":"address","internalType":"Currency"},{"name":"fee","type":"uint24","internalType":"uint24"},{"name":"tickSpacing","type":"int24","internalType":"int24"},{"name":"hooks","type":"address","internalType":"contract IHooks"}]},{"name":"","type":"uint256","internalType":"uint256"},{"name":"","type":"uint256","internalType":"uint256"},{"name":"","type":"bytes","internalType":"bytes"}],"outputs":[{"name":"","type":"bytes4","internalType":"bytes4"}],"stateMutability":"nonpayable"},{"type":"function","name":"beforeInitialize","inputs":[{"name":"","type":"address","internalType":"address"},{"name":"","type":"tuple","internalType":"struct PoolKey","components":[{"name":"currency0","type":"address","internalType":"Currency"},{"name":"currency1","type":"address","internalType":"Currency"},{"name":"fee","type":"uint24","internalType":"uint24"},{"name":"tickSpacing","type":"int24","internalType":"int24"},{"name":"hooks","type":"address","internalType":"contract IHooks"}]},{"name":"","type":"uint160","internalType":"uint160"},{"name":"","type":"bytes","internalType":"bytes"}],"outputs":[{"name":"","type":"bytes4","internalType":"bytes4"}],"stateMutability":"nonpayable"},{"type":"function","name":"beforeRemoveLiquidity","inputs":[{"name":"","type":"address","internalType":"address"},{"name":"key","type":"tuple","internalType":"struct PoolKey","components":[{"name":"currency0","type":"address","internalType":"Currency"},{"name":"currency1","type":"address","internalType":"Currency"},{"name":"fee","type":"uint24","internalType":"uint24"},{"name":"tickSpacing","type":"int24","internalType":"int24"},{"name":"hooks","type":"address","internalType":"contract IHooks"}]},{"name":"","type":"tuple","internalType":"struct IPoolManager.ModifyLiquidityParams","components":[{"name":"tickLower","type":"int24","internalType":"int24"},{"name":"tickUpper","type":"int24","internalType":"int24"},{"name":"liquidityDelta","type":"int256","internalType":"int256"},{"name":"salt","type":"bytes32","internalType":"bytes32"}]},{"name":"","type":"bytes","internalType":"bytes"}],"outputs":[{"name":"","type":"bytes4","internalType":"bytes4"}],"stateMutability":"nonpayable"},{"type":"function","name":"beforeRemoveLiquidityCount","inputs":[{"name":"","type":"bytes32","internalType":"PoolId"}],"outputs":[{"name":"count","type":"uint256","internalType":"uint256"}],"stateMutability":"view"},{"type":"function","name":"beforeSwap","inputs":[{"name":"","type":"address","internalType":"address"},{"name":"key","type":"tuple","internalType":"struct PoolKey","components":[{"name":"currency0","type":"address","internalType":"Currency"},{"name":"currency1","type":"address","internalType":"Currency"},{"name":"fee","type":"uint24","internalType":"uint24"},{"name":"tickSpacing","type":"int24","internalType":"int24"},{"name":"hooks","type":"address","internalType":"contract IHooks"}]},{"name":"","type":"tuple","internalType":"struct IPoolManager.SwapParams","components":[{"name":"zeroForOne","type":"bool","internalType":"bool"},{"name":"amountSpecified","type":"int256","internalType":"int256"},{"name":"sqrtPriceLimitX96","type":"uint160","internalType":"uint160"}]},{"name":"","type":"bytes","internalType":"bytes"}],"outputs":[{"name":"","type":"bytes4","internalType":"bytes4"},{"name":"","type":"int256","internalType":"BeforeSwapDelta"},{"name":"","type":"uint24","internalType":"uint24"}],"stateMutability":"nonpayable"},{"type":"function","name":"beforeSwapCount","inputs":[{"name":"","type":"bytes32","internalType":"PoolId"}],"outputs":[{"name":"count","type":"uint256","internalType":"uint256"}],"stateMutability":"view"},{"type":"function","name":"getHookPermissions","inputs":[],"outputs":[{"name":"","type":"tuple","internalType":"struct Hooks.Permissions","components":[{"name":"beforeInitialize","type":"bool","internalType":"bool"},{"name":"afterInitialize","type":"bool","internalType":"bool"},{"name":"beforeAddLiquidity","type":"bool","internalType":"bool"},{"name":"afterAddLiquidity","type":"bool","internalType":"bool"},{"name":"beforeRemoveLiquidity","type":"bool","internalType":"bool"},{"name":"afterRemoveLiquidity","type":"bool","internalType":"bool"},{"name":"beforeSwap","type":"bool","internalType":"bool"},{"name":"afterSwap","type":"bool","internalType":"bool"},{"name":"beforeDonate","type":"bool","internalType":"bool"},{"name":"afterDonate","type":"bool","internalType":"bool"},{"name":"beforeSwapReturnDelta","type":"bool","internalType":"bool"},{"name":"afterSwapReturnDelta","type":"bool","internalType":"bool"},{"name":"afterAddLiquidityReturnDelta","type":"bool","internalType":"bool"},{"name":"afterRemoveLiquidityReturnDelta","type":"bool","internalType":"bool"}]}],"stateMutability":"pure"},{"type":"function","name":"locking","inputs":[],"outputs":[],"stateMutability":"nonpayable"},{"type":"function","name":"poolManager","inputs":[],"outputs":[{"name":"","type":"address","internalType":"contract IPoolManager"}],"stateMutability":"view"},{"type":"function","name":"unlockCallback","inputs":[{"name":"data","type":"bytes","internalType":"bytes"}],"outputs":[{"name":"","type":"bytes","internalType":"bytes"}],"stateMutability":"nonpayable"},{"type":"error","name":"HookNotImplemented","inputs":[]},{"type":"error","name":"InvalidPool","inputs":[]},{"type":"error","name":"LockFailure","inputs":[]},{"type":"error","name":"NotPoolManager","inputs":[]},{"type":"error","name":"NotSelf","inputs":[]}],"bytecode":{"object":"0x60a060405234801561000f575f80fd5b5060405161125e38038061125e83398101604081905261002e916102a7565b6001600160a01b038116608052806100453061004c565b50506102d4565b61013f8161013a604080516101c0810182525f80825260208201819052918101829052606081018290526080810182905260a0810182905260c0810182905260e08101829052610100810182905261012081018290526101408101829052610160810182905261018081018290526101a081019190915250604080516101c0810182525f808252602082018190526001928201839052606082018190526080820183905260a0820181905260c0820183905260e0820192909252610100810182905261012081018290526101408101829052610160810182905261018081018290526101a081019190915290565b610142565b50565b80511515612000831615151415806101665750602081015115156110008316151514155b8061017d5750604081015115156108008316151514155b806101945750606081015115156104008316151514155b806101ab5750608081015115156102008316151514155b806101c2575060a081015115156101008316151514155b806101d8575060c0810151151560808316151514155b806101ee575060e0810151151560408316151514155b806102055750610100810151151560208316151514155b8061021c5750610120810151151560108316151514155b806102335750610140810151151560088316151514155b8061024a5750610160810151151560048316151514155b806102615750610180810151151560028316151514155b8061027857506101a0810151151560018316151514155b1561028e5761028e630732d7b560e51b83610292565b5050565b815f526001600160a01b03811660045260245ffd5b5f602082840312156102b7575f80fd5b81516001600160a01b03811681146102cd575f80fd5b9392505050565b608051610f6b6102f35f395f81816103e901526106c50152610f6b5ff3fe608060405234801561000f575f80fd5b5060043610610111575f3560e01c8063a910f80f1161009e578063c69399571161006e578063c693995714610387578063dacdbe77146103a6578063db6a9451146103c5578063dc4c90d3146103e4578063e1b4af6914610282575f80fd5b8063a910f80f1461023e578063b47b2fb11461024c578063b6a8b0fa14610282578063c4e833ce14610290575f80fd5b806358ad5a8b116100e457806358ad5a8b146101aa5780635c338d32146101be5780636c2bbe7e146101eb57806391dd73461461021e5780639f063efc146101eb575f80fd5b806321d0ee7014610115578063259982e5146101465780633440d82014610159578063575e24b41461016c575b5f80fd5b610128610123366004610963565b610423565b6040516001600160e01b031990911681526020015b60405180910390f35b610128610154366004610963565b6104d7565b6101286101673660046109da565b6105aa565b61017f61017a366004610a44565b6105c4565b604080516001600160e01b03199094168452602084019290925262ffffff169082015260600161013d565b6101bc6004805460ff19166001179055565b005b6101dd6101cc366004610a9e565b5f6020819052908152604090205481565b60405190815260200161013d565b6101fe6101f9366004610ab5565b61069d565b604080516001600160e01b0319909316835260208301919091520161013d565b61023161022c366004610b40565b6106b8565b60405161013d9190610bad565b610128610167366004610bd0565b61025f61025a366004610c58565b610716565b604080516001600160e01b03199093168352600f9190910b60208301520161013d565b610128610167366004610cbb565b61037a604080516101c0810182525f80825260208201819052918101829052606081018290526080810182905260a0810182905260c0810182905260e08101829052610100810182905261012081018290526101408101829052610160810182905261018081018290526101a081019190915250604080516101c0810182525f808252602082018190526001928201839052606082018190526080820183905260a0820181905260c0820183905260e0820192909252610100810182905261012081018290526101408101829052610160810182905261018081018290526101a081019190915290565b60405161013d9190610d15565b6101dd610395366004610a9e565b60026020525f908152604090205481565b6101dd6103b4366004610a9e565b60016020525f908152604090205481565b6101dd6103d3366004610a9e565b60036020525f908152604090205481565b61040b7f000000000000000000000000000000000000000000000000000000000000000081565b6040516001600160a01b03909116815260200161013d565b6004545f9060ff16156104515760405162461bcd60e51b815260040161044890610e36565b60405180910390fd5b61045a42610790565b611c20421115610487576004805460ff1916600117815560405162461bcd60e51b81526104489101610e36565b60035f6104a361049c36899003890189610e68565b60a0902090565b81526020019081526020015f205f8154809291906104c090610f02565b9091555063021d0ee760e41b979650505050505050565b6004545f9060ff16156104fc5760405162461bcd60e51b815260040161044890610e36565b61050542610790565b611c20421115610532576004805460ff1916600117815560405162461bcd60e51b81526104489101610e36565b6105616040518060400160405280600e81526020016d616464206c69717569646964747960901b8152506107d8565b60025f61057661049c36899003890189610e68565b81526020019081526020015f205f81548092919061059390610f02565b9091555063259982e560e01b979650505050505050565b5f604051630a85dc2960e01b815260040160405180910390fd5b6004545f908190819060ff16156105ed5760405162461bcd60e51b815260040161044890610e36565b6105f642610790565b611c20421115610623576004805460ff1916600117815560405162461bcd60e51b81526104489101610e36565b61064f6040518060400160405280600b81526020016a06265666f726520737761760ac1b8152506107d8565b5f8061066361049c368b90038b018b610e68565b81526020019081526020015f205f81548092919061068090610f02565b909155506315d7892d60e21b995f99508998509650505050505050565b5f80604051630a85dc2960e01b815260040160405180910390fd5b6060336001600160a01b037f000000000000000000000000000000000000000000000000000000000000000016146107035760405163570c108560e11b815260040160405180910390fd5b61070d838361081b565b90505b92915050565b5f806107436040518060400160405280600a8152602001690616674657220737761760b41b8152506107d8565b60015f61075861049c368b90038b018b610e68565b81526020019081526020015f205f81548092919061077590610f02565b9091555063b47b2fb160e01b995f9950975050505050505050565b6107d5816040516024016107a691815260200190565b60408051601f198184030181529190526020810180516001600160e01b031663f5b1bba960e01b1790526108b4565b50565b6107d5816040516024016107ec9190610bad565b60408051601f198184030181529190526020810180516001600160e01b031663104c13eb60e21b1790526108b4565b60605f80306001600160a01b03168585604051610839929190610f26565b5f604051808303815f865af19150503d805f8114610872576040519150601f19603f3d011682016040523d82523d5f602084013e610877565b606091505b5091509150811561088b5791506107109050565b80515f036108ac576040516314815f4760e31b815260040160405180910390fd5b805160208201fd5b80516a636f6e736f6c652e6c6f67602083015f808483855afa5050505050565b6001600160a01b03811681146107d5575f80fd5b80356108f3816108d4565b919050565b5f60a08284031215610908575f80fd5b50919050565b5f60808284031215610908575f80fd5b5f8083601f84011261092e575f80fd5b50813567ffffffffffffffff811115610945575f80fd5b60208301915083602082850101111561095c575f80fd5b9250929050565b5f805f805f6101608688031215610978575f80fd5b8535610983816108d4565b945061099287602088016108f8565b93506109a18760c0880161090e565b925061014086013567ffffffffffffffff8111156109bd575f80fd5b6109c98882890161091e565b969995985093965092949392505050565b5f805f805f61010086880312156109ef575f80fd5b85356109fa816108d4565b9450610a0987602088016108f8565b935060c0860135610a19816108d4565b925060e086013567ffffffffffffffff8111156109bd575f80fd5b5f60608284031215610908575f80fd5b5f805f805f6101408688031215610a59575f80fd5b8535610a64816108d4565b9450610a7387602088016108f8565b9350610a828760c08801610a34565b925061012086013567ffffffffffffffff8111156109bd575f80fd5b5f60208284031215610aae575f80fd5b5035919050565b5f805f805f805f6101a0888a031215610acc575f80fd5b8735610ad7816108d4565b9650610ae68960208a016108f8565b9550610af58960c08a0161090e565b94506101408801359350610160880135925061018088013567ffffffffffffffff811115610b21575f80fd5b610b2d8a828b0161091e565b989b979a50959850939692959293505050565b5f8060208385031215610b51575f80fd5b823567ffffffffffffffff811115610b67575f80fd5b610b738582860161091e565b90969095509350505050565b5f81518084528060208401602086015e5f602082860101526020601f19601f83011685010191505092915050565b602081525f61070d6020830184610b7f565b8035600281900b81146108f3575f80fd5b5f805f805f806101208789031215610be6575f80fd5b8635610bf1816108d4565b9550610c0088602089016108f8565b945060c0870135610c10816108d4565b9350610c1e60e08801610bbf565b925061010087013567ffffffffffffffff811115610c3a575f80fd5b610c4689828a0161091e565b979a9699509497509295939492505050565b5f805f805f806101608789031215610c6e575f80fd5b8635610c79816108d4565b9550610c8888602089016108f8565b9450610c978860c08901610a34565b9350610120870135925061014087013567ffffffffffffffff811115610c3a575f80fd5b5f805f805f806101208789031215610cd1575f80fd5b8635610cdc816108d4565b9550610ceb88602089016108f8565b945060c0870135935060e0870135925061010087013567ffffffffffffffff811115610c3a575f80fd5b8151151581526101c081016020830151610d33602084018215159052565b506040830151610d47604084018215159052565b506060830151610d5b606084018215159052565b506080830151610d6f608084018215159052565b5060a0830151610d8360a084018215159052565b5060c0830151610d9760c084018215159052565b5060e0830151610dab60e084018215159052565b50610100830151610dc161010084018215159052565b50610120830151610dd761012084018215159052565b50610140830151610ded61014084018215159052565b50610160830151610e0361016084018215159052565b50610180830151610e1961018084018215159052565b506101a0830151610e2f6101a084018215159052565b5092915050565b6020808252600690820152651b1bd8dad95960d21b604082015260600190565b803562ffffff811681146108f3575f80fd5b5f60a0828403128015610e79575f80fd5b5060405160a0810167ffffffffffffffff81118282101715610ea957634e487b7160e01b5f52604160045260245ffd5b604052610eb5836108e8565b8152610ec3602084016108e8565b6020820152610ed460408401610e56565b6040820152610ee560608401610bbf565b6060820152610ef6608084016108e8565b60808201529392505050565b5f60018201610f1f57634e487b7160e01b5f52601160045260245ffd5b5060010190565b818382375f910190815291905056fea2646970667358221220549f610ec7e06fdaf1632918356600264c7d294c6f9707fa564239f1a8ed2b9164736f6c634300081a0033","linkReferences":{}},"methodIdentifiers":{"afterAddLiquidity(address,(address,address,uint24,int24,address),(int24,int24,int256,bytes32),int256,int256,bytes)":"9f063efc","afterDonate(address,(address,address,uint24,int24,address),uint256,uint256,bytes)":"e1b4af69","afterInitialize(address,(address,address,uint24,int24,address),uint160,int24,bytes)":"a910f80f","afterRemoveLiquidity(address,(address,address,uint24,int24,address),(int24,int24,int256,bytes32),int256,int256,bytes)":"6c2bbe7e","afterSwap(address,(address,address,uint24,int24,address),(bool,int256,uint160),int256,bytes)":"b47b2fb1","afterSwapCount(bytes32)":"dacdbe77","beforeAddLiquidity(address,(address,address,uint24,int24,address),(int24,int24,int256,bytes32),bytes)":"259982e5","beforeAddLiquidityCount(bytes32)":"c6939957","beforeDonate(address,(address,address,uint24,int24,address),uint256,uint256,bytes)":"b6a8b0fa","beforeInitialize(address,(address,address,uint24,int24,address),uint160,bytes)":"3440d820","beforeRemoveLiquidity(address,(address,address,uint24,int24,address),(int24,int24,int256,bytes32),bytes)":"21d0ee70","beforeRemoveLiquidityCount(bytes32)":"db6a9451","beforeSwap(address,(address,address,uint24,int24,address),(bool,int256,uint160),bytes)":"575e24b4","beforeSwapCount(bytes32)":"5c338d32","getHookPermissions()":"c4e833ce","locking()":"58ad5a8b","poolManager()":"dc4c90d3","unlockCallback(bytes)":"91dd7346"},"id":127}