{"abi":[{"type":"constructor","inputs":[{"name":"_poolManager","type":"address","internalType":"contract IPoolManager"}],"stateMutability":"nonpayable"},{"type":"function","name":"afterAddLiquidity","inputs":[{"name":"","type":"address","internalType":"address"},{"name":"","type":"tuple","internalType":"struct PoolKey","components":[{"name":"currency0","type":"address","internalType":"Currency"},{"name":"currency1","type":"address","internalType":"Currency"},{"name":"fee","type":"uint24","internalType":"uint24"},{"name":"tickSpacing","type":"int24","internalType":"int24"},{"name":"hooks","type":"address","internalType":"contract IHooks"}]},{"name":"","type":"tuple","internalType":"struct IPoolManager.ModifyLiquidityParams","components":[{"name":"tickLower","type":"int24","internalType":"int24"},{"name":"tickUpper","type":"int24","internalType":"int24"},{"name":"liquidityDelta","type":"int256","internalType":"int256"},{"name":"salt","type":"bytes32","internalType":"bytes32"}]},{"name":"","type":"int256","internalType":"BalanceDelta"},{"name":"","type":"int256","internalType":"BalanceDelta"},{"name":"","type":"bytes","internalType":"bytes"}],"outputs":[{"name":"","type":"bytes4","internalType":"bytes4"},{"name":"","type":"int256","internalType":"BalanceDelta"}],"stateMutability":"nonpayable"},{"type":"function","name":"afterDonate","inputs":[{"name":"","type":"address","internalType":"address"},{"name":"","type":"tuple","internalType":"struct PoolKey","components":[{"name":"currency0","type":"address","internalType":"Currency"},{"name":"currency1","type":"address","internalType":"Currency"},{"name":"fee","type":"uint24","internalType":"uint24"},{"name":"tickSpacing","type":"int24","internalType":"int24"},{"name":"hooks","type":"address","internalType":"contract IHooks"}]},{"name":"","type":"uint256","internalType":"uint256"},{"name":"","type":"uint256","internalType":"uint256"},{"name":"","type":"bytes","internalType":"bytes"}],"outputs":[{"name":"","type":"bytes4","internalType":"bytes4"}],"stateMutability":"nonpayable"},{"type":"function","name":"afterInitialize","inputs":[{"name":"","type":"address","internalType":"address"},{"name":"","type":"tuple","internalType":"struct PoolKey","components":[{"name":"currency0","type":"address","internalType":"Currency"},{"name":"currency1","type":"address","internalType":"Currency"},{"name":"fee","type":"uint24","internalType":"uint24"},{"name":"tickSpacing","type":"int24","internalType":"int24"},{"name":"hooks","type":"address","internalType":"contract IHooks"}]},{"name":"","type":"uint160","internalType":"uint160"},{"name":"","type":"int24","internalType":"int24"},{"name":"","type":"bytes","internalType":"bytes"}],"outputs":[{"name":"","type":"bytes4","internalType":"bytes4"}],"stateMutability":"nonpayable"},{"type":"function","name":"afterRemoveLiquidity","inputs":[{"name":"","type":"address","internalType":"address"},{"name":"","type":"tuple","internalType":"struct PoolKey","components":[{"name":"currency0","type":"address","internalType":"Currency"},{"name":"currency1","type":"address","internalType":"Currency"},{"name":"fee","type":"uint24","internalType":"uint24"},{"name":"tickSpacing","type":"int24","internalType":"int24"},{"name":"hooks","type":"address","internalType":"contract IHooks"}]},{"name":"","type":"tuple","internalType":"struct IPoolManager.ModifyLiquidityParams","components":[{"name":"tickLower","type":"int24","internalType":"int24"},{"name":"tickUpper","type":"int24","internalType":"int24"},{"name":"liquidityDelta","type":"int256","internalType":"int256"},{"name":"salt","type":"bytes32","internalType":"bytes32"}]},{"name":"","type":"int256","internalType":"BalanceDelta"},{"name":"","type":"int256","internalType":"BalanceDelta"},{"name":"","type":"bytes","internalType":"bytes"}],"outputs":[{"name":"","type":"bytes4","internalType":"bytes4"},{"name":"","type":"int256","internalType":"BalanceDelta"}],"stateMutability":"nonpayable"},{"type":"function","name":"afterSwap","inputs":[{"name":"","type":"address","internalType":"address"},{"name":"key","type":"tuple","internalType":"struct PoolKey","components":[{"name":"currency0","type":"address","internalType":"Currency"},{"name":"currency1","type":"address","internalType":"Currency"},{"name":"fee","type":"uint24","internalType":"uint24"},{"name":"tickSpacing","type":"int24","internalType":"int24"},{"name":"hooks","type":"address","internalType":"contract IHooks"}]},{"name":"","type":"tuple","internalType":"struct IPoolManager.SwapParams","components":[{"name":"zeroForOne","type":"bool","internalType":"bool"},{"name":"amountSpecified","type":"int256","internalType":"int256"},{"name":"sqrtPriceLimitX96","type":"uint160","internalType":"uint160"}]},{"name":"","type":"int256","internalType":"BalanceDelta"},{"name":"","type":"bytes","internalType":"bytes"}],"outputs":[{"name":"","type":"bytes4","internalType":"bytes4"},{"name":"","type":"int128","internalType":"int128"}],"stateMutability":"nonpayable"},{"type":"function","name":"afterSwapCount","inputs":[{"name":"","type":"bytes32","internalType":"PoolId"}],"outputs":[{"name":"count","type":"uint256","internalType":"uint256"}],"stateMutability":"view"},{"type":"function","name":"beforeAddLiquidity","inputs":[{"name":"","type":"address","internalType":"address"},{"name":"key","type":"tuple","internalType":"struct PoolKey","components":[{"name":"currency0","type":"address","internalType":"Currency"},{"name":"currency1","type":"address","internalType":"Currency"},{"name":"fee","type":"uint24","internalType":"uint24"},{"name":"tickSpacing","type":"int24","internalType":"int24"},{"name":"hooks","type":"address","internalType":"contract IHooks"}]},{"name":"","type":"tuple","internalType":"struct IPoolManager.ModifyLiquidityParams","components":[{"name":"tickLower","type":"int24","internalType":"int24"},{"name":"tickUpper","type":"int24","internalType":"int24"},{"name":"liquidityDelta","type":"int256","internalType":"int256"},{"name":"salt","type":"bytes32","internalType":"bytes32"}]},{"name":"","type":"bytes","internalType":"bytes"}],"outputs":[{"name":"","type":"bytes4","internalType":"bytes4"}],"stateMutability":"nonpayable"},{"type":"function","name":"beforeAddLiquidityCount","inputs":[{"name":"","type":"bytes32","internalType":"PoolId"}],"outputs":[{"name":"count","type":"uint256","internalType":"uint256"}],"stateMutability":"view"},{"type":"function","name":"beforeDonate","inputs":[{"name":"","type":"address","internalType":"address"},{"name":"","type":"tuple","internalType":"struct PoolKey","components":[{"name":"currency0","type":"address","internalType":"Currency"},{"name":"currency1","type":"address","internalType":"Currency"},{"name":"fee","type":"uint24","internalType":"uint24"},{"name":"tickSpacing","type":"int24","internalType":"int24"},{"name":"hooks","type":"address","internalType":"contract IHooks"}]},{"name":"","type":"uint256","internalType":"uint256"},{"name":"","type":"uint256","internalType":"uint256"},{"name":"","type":"bytes","internalType":"bytes"}],"outputs":[{"name":"","type":"bytes4","internalType":"bytes4"}],"stateMutability":"nonpayable"},{"type":"function","name":"beforeInitialize","inputs":[{"name":"","type":"address","internalType":"address"},{"name":"","type":"tuple","internalType":"struct PoolKey","components":[{"name":"currency0","type":"address","internalType":"Currency"},{"name":"currency1","type":"address","internalType":"Currency"},{"name":"fee","type":"uint24","internalType":"uint24"},{"name":"tickSpacing","type":"int24","internalType":"int24"},{"name":"hooks","type":"address","internalType":"contract IHooks"}]},{"name":"","type":"uint160","internalType":"uint160"},{"name":"","type":"bytes","internalType":"bytes"}],"outputs":[{"name":"","type":"bytes4","internalType":"bytes4"}],"stateMutability":"nonpayable"},{"type":"function","name":"beforeRemoveLiquidity","inputs":[{"name":"","type":"address","internalType":"address"},{"name":"key","type":"tuple","internalType":"struct PoolKey","components":[{"name":"currency0","type":"address","internalType":"Currency"},{"name":"currency1","type":"address","internalType":"Currency"},{"name":"fee","type":"uint24","internalType":"uint24"},{"name":"tickSpacing","type":"int24","internalType":"int24"},{"name":"hooks","type":"address","internalType":"contract IHooks"}]},{"name":"","type":"tuple","internalType":"struct IPoolManager.ModifyLiquidityParams","components":[{"name":"tickLower","type":"int24","internalType":"int24"},{"name":"tickUpper","type":"int24","internalType":"int24"},{"name":"liquidityDelta","type":"int256","internalType":"int256"},{"name":"salt","type":"bytes32","internalType":"bytes32"}]},{"name":"","type":"bytes","internalType":"bytes"}],"outputs":[{"name":"","type":"bytes4","internalType":"bytes4"}],"stateMutability":"nonpayable"},{"type":"function","name":"beforeRemoveLiquidityCount","inputs":[{"name":"","type":"bytes32","internalType":"PoolId"}],"outputs":[{"name":"count","type":"uint256","internalType":"uint256"}],"stateMutability":"view"},{"type":"function","name":"beforeSwap","inputs":[{"name":"","type":"address","internalType":"address"},{"name":"key","type":"tuple","internalType":"struct PoolKey","components":[{"name":"currency0","type":"address","internalType":"Currency"},{"name":"currency1","type":"address","internalType":"Currency"},{"name":"fee","type":"uint24","internalType":"uint24"},{"name":"tickSpacing","type":"int24","internalType":"int24"},{"name":"hooks","type":"address","internalType":"contract IHooks"}]},{"name":"","type":"tuple","internalType":"struct IPoolManager.SwapParams","components":[{"name":"zeroForOne","type":"bool","internalType":"bool"},{"name":"amountSpecified","type":"int256","internalType":"int256"},{"name":"sqrtPriceLimitX96","type":"uint160","internalType":"uint160"}]},{"name":"","type":"bytes","internalType":"bytes"}],"outputs":[{"name":"","type":"bytes4","internalType":"bytes4"},{"name":"","type":"int256","internalType":"BeforeSwapDelta"},{"name":"","type":"uint24","internalType":"uint24"}],"stateMutability":"nonpayable"},{"type":"function","name":"beforeSwapCount","inputs":[{"name":"","type":"bytes32","internalType":"PoolId"}],"outputs":[{"name":"count","type":"uint256","internalType":"uint256"}],"stateMutability":"view"},{"type":"function","name":"getHookPermissions","inputs":[],"outputs":[{"name":"","type":"tuple","internalType":"struct Hooks.Permissions","components":[{"name":"beforeInitialize","type":"bool","internalType":"bool"},{"name":"afterInitialize","type":"bool","internalType":"bool"},{"name":"beforeAddLiquidity","type":"bool","internalType":"bool"},{"name":"afterAddLiquidity","type":"bool","internalType":"bool"},{"name":"beforeRemoveLiquidity","type":"bool","internalType":"bool"},{"name":"afterRemoveLiquidity","type":"bool","internalType":"bool"},{"name":"beforeSwap","type":"bool","internalType":"bool"},{"name":"afterSwap","type":"bool","internalType":"bool"},{"name":"beforeDonate","type":"bool","internalType":"bool"},{"name":"afterDonate","type":"bool","internalType":"bool"},{"name":"beforeSwapReturnDelta","type":"bool","internalType":"bool"},{"name":"afterSwapReturnDelta","type":"bool","internalType":"bool"},{"name":"afterAddLiquidityReturnDelta","type":"bool","internalType":"bool"},{"name":"afterRemoveLiquidityReturnDelta","type":"bool","internalType":"bool"}]}],"stateMutability":"pure"},{"type":"function","name":"poolManager","inputs":[],"outputs":[{"name":"","type":"address","internalType":"contract IPoolManager"}],"stateMutability":"view"},{"type":"function","name":"unlockCallback","inputs":[{"name":"data","type":"bytes","internalType":"bytes"}],"outputs":[{"name":"","type":"bytes","internalType":"bytes"}],"stateMutability":"nonpayable"},{"type":"error","name":"HookNotImplemented","inputs":[]},{"type":"error","name":"InvalidPool","inputs":[]},{"type":"error","name":"LockFailure","inputs":[]},{"type":"error","name":"NotPoolManager","inputs":[]},{"type":"error","name":"NotSelf","inputs":[]}],"bytecode":{"object":"0x60a060405234801561000f575f80fd5b506040516115c83803806115c883398101604081905261002e916102a7565b6001600160a01b038116608052806100453061004c565b50506102d4565b61013f8161013a604080516101c0810182525f80825260208201819052918101829052606081018290526080810182905260a0810182905260c0810182905260e08101829052610100810182905261012081018290526101408101829052610160810182905261018081018290526101a081019190915250604080516101c0810182525f808252602082018190526001928201839052606082018190526080820183905260a0820181905260c0820183905260e0820192909252610100810182905261012081018290526101408101829052610160810182905261018081018290526101a081019190915290565b610142565b50565b80511515612000831615151415806101665750602081015115156110008316151514155b8061017d5750604081015115156108008316151514155b806101945750606081015115156104008316151514155b806101ab5750608081015115156102008316151514155b806101c2575060a081015115156101008316151514155b806101d8575060c0810151151560808316151514155b806101ee575060e0810151151560408316151514155b806102055750610100810151151560208316151514155b8061021c5750610120810151151560108316151514155b806102335750610140810151151560088316151514155b8061024a5750610160810151151560048316151514155b806102615750610180810151151560028316151514155b8061027857506101a0810151151560018316151514155b1561028e5761028e630732d7b560e51b83610292565b5050565b815f526001600160a01b03811660045260245ffd5b5f602082840312156102b7575f80fd5b81516001600160a01b03811681146102cd575f80fd5b9392505050565b6080516112c76103015f395f81816103ca015281816105160152818161064601526107eb01526112c75ff3fe608060405234801561000f575f80fd5b5060043610610106575f3560e01c8063a910f80f1161009e578063c69399571161006e578063c693995714610368578063dacdbe7714610387578063db6a9451146103a6578063dc4c90d3146103c5578063e1b4af6914610263575f80fd5b8063a910f80f1461021f578063b47b2fb11461022d578063b6a8b0fa14610263578063c4e833ce14610271575f80fd5b80635c338d32116100d95780635c338d321461019f5780636c2bbe7e146101cc57806391dd7346146101ff5780639f063efc146101cc575f80fd5b806321d0ee701461010a578063259982e51461013b5780633440d8201461014e578063575e24b414610161575b5f80fd5b61011d610118366004610bda565b610404565b6040516001600160e01b031990911681526020015b60405180910390f35b61011d610149366004610bda565b610455565b61011d61015c366004610c51565b61049f565b61017461016f366004610cbb565b6104b9565b604080516001600160e01b03199094168452602084019290925262ffffff1690820152606001610132565b6101be6101ad366004610d15565b5f6020819052908152604090205481565b604051908152602001610132565b6101df6101da366004610d2c565b6107c3565b604080516001600160e01b03199093168352602083019190915201610132565b61021261020d366004610db7565b6107de565b6040516101329190610e24565b61011d61015c366004610e47565b61024061023b366004610ecf565b61083c565b604080516001600160e01b03199093168352600f9190910b602083015201610132565b61011d61015c366004610f32565b61035b604080516101c0810182525f80825260208201819052918101829052606081018290526080810182905260a0810182905260c0810182905260e08101829052610100810182905261012081018290526101408101829052610160810182905261018081018290526101a081019190915250604080516101c0810182525f808252602082018190526001928201839052606082018190526080820183905260a0820181905260c0820183905260e0820192909252610100810182905261012081018290526101408101829052610160810182905261018081018290526101a081019190915290565b6040516101329190610f8c565b6101be610376366004610d15565b60026020525f908152604090205481565b6101be610395366004610d15565b60016020525f908152604090205481565b6101be6103b4366004610d15565b60036020525f908152604090205481565b6103ec7f000000000000000000000000000000000000000000000000000000000000000081565b6040516001600160a01b039091168152602001610132565b5f60038161042161041a368990038901896110bf565b60a0902090565b81526020019081526020015f205f81548092919061043e9061116d565b9091555063021d0ee760e41b979650505050505050565b5f60028161046b61041a368990038901896110bf565b81526020019081526020015f205f8154809291906104889061116d565b9091555063259982e560e01b979650505050505050565b5f604051630a85dc2960e01b815260040160405180910390fd5b5f808080806104d061041a368b90038b018b6110bf565b81526020019081526020015f205f8154809291906104ed9061116d565b909155505f905080808061053c61050c61041a368e90038e018e6110bf565b6001600160a01b037f0000000000000000000000000000000000000000000000000000000000000000169061088b565b9350935093509350610556846001600160a01b031661093d565b6105628360020b610985565b610591604051806040016040528060088152602001671c1c9bdd1bd8dbdb60c21b8152508362ffffff166109ca565b6105be604051806040016040528060068152602001656c702066656560d01b8152508262ffffff166109ca565b5f600160c01b6105d76001600160a01b03871680611185565b6105e1919061119c565b905061060a60405180604001604052806005815260200164707269636560d81b815250826109ca565b6103e86001829003610644576101f4905061064460405180604001604052806008815260200167746869737468697360c01b815250610a13565b7f00000000000000000000000000000000000000000000000000000000000000006001600160a01b031663527596518e836040518363ffffffff1660e01b81526004016106929291906111bb565b5f604051808303815f87803b1580156106a9575f80fd5b505af11580156106bb573d5f803e3d5ffd5b505050506106d661050c8e80360381019061041a91906110bf565b929850909650945092506106f26001600160a01b03871661093d565b6106fe8560020b610985565b61072d604051806040016040528060088152602001671c1c9bdd1bd8dbdb60c21b8152508562ffffff166109ca565b61075a604051806040016040528060068152602001656c702066656560d01b8152508462ffffff166109ca565b600160c01b6107726001600160a01b03881680611185565b61077c919061119c565b91506107a560405180604001604052806005815260200164707269636560d81b815250836109ca565b506315d7892d60e21b9d5f9d508d9c509a5050505050505050505050565b5f80604051630a85dc2960e01b815260040160405180910390fd5b6060336001600160a01b037f000000000000000000000000000000000000000000000000000000000000000016146108295760405163570c108560e11b815260040160405180910390fd5b6108338383610a56565b90505b92915050565b5f8060018161085361041a368b90038b018b6110bf565b81526020019081526020015f205f8154809291906108709061116d565b9091555063b47b2fb160e01b995f9950975050505050505050565b5f805f805f61089986610aef565b604051631e2eaeaf60e01b8152600481018290529091505f906001600160a01b03891690631e2eaeaf90602401602060405180830381865afa1580156108e1573d5f803e3d5ffd5b505050506040513d601f19601f82011682018060405250810190610905919061124a565b90506001600160a01b03811695508060a01c60020b945062ffffff8160b81c16935062ffffff8160d01c169250505092959194509250565b6109828160405160240161095391815260200190565b60408051601f198184030181529190526020810180516001600160e01b031663f5b1bba960e01b179052610b2b565b50565b6109828160405160240161099b91815260200190565b60408051601f198184030181529190526020810180516001600160e01b0316634e0c1d1d60e01b179052610b2b565b610a0f82826040516024016109e0929190611261565b60408051601f198184030181529190526020810180516001600160e01b03166309710a9d60e41b179052610b2b565b5050565b61098281604051602401610a279190610e24565b60408051601f198184030181529190526020810180516001600160e01b031663104c13eb60e21b179052610b2b565b60605f80306001600160a01b03168585604051610a74929190611282565b5f604051808303815f865af19150503d805f8114610aad576040519150601f19603f3d011682016040523d82523d5f602084013e610ab2565b606091505b50915091508115610ac65791506108369050565b80515f03610ae7576040516314815f4760e31b815260040160405180910390fd5b805160208201fd5b6040515f90610b0e908390600690602001918252602082015260400190565b604051602081830303815290604052805190602001209050919050565b80516a636f6e736f6c652e6c6f67602083015f808483855afa5050505050565b6001600160a01b0381168114610982575f80fd5b8035610b6a81610b4b565b919050565b5f60a08284031215610b7f575f80fd5b50919050565b5f60808284031215610b7f575f80fd5b5f8083601f840112610ba5575f80fd5b50813567ffffffffffffffff811115610bbc575f80fd5b602083019150836020828501011115610bd3575f80fd5b9250929050565b5f805f805f6101608688031215610bef575f80fd5b8535610bfa81610b4b565b9450610c098760208801610b6f565b9350610c188760c08801610b85565b925061014086013567ffffffffffffffff811115610c34575f80fd5b610c4088828901610b95565b969995985093965092949392505050565b5f805f805f6101008688031215610c66575f80fd5b8535610c7181610b4b565b9450610c808760208801610b6f565b935060c0860135610c9081610b4b565b925060e086013567ffffffffffffffff811115610c34575f80fd5b5f60608284031215610b7f575f80fd5b5f805f805f6101408688031215610cd0575f80fd5b8535610cdb81610b4b565b9450610cea8760208801610b6f565b9350610cf98760c08801610cab565b925061012086013567ffffffffffffffff811115610c34575f80fd5b5f60208284031215610d25575f80fd5b5035919050565b5f805f805f805f6101a0888a031215610d43575f80fd5b8735610d4e81610b4b565b9650610d5d8960208a01610b6f565b9550610d6c8960c08a01610b85565b94506101408801359350610160880135925061018088013567ffffffffffffffff811115610d98575f80fd5b610da48a828b01610b95565b989b979a50959850939692959293505050565b5f8060208385031215610dc8575f80fd5b823567ffffffffffffffff811115610dde575f80fd5b610dea85828601610b95565b90969095509350505050565b5f81518084528060208401602086015e5f602082860101526020601f19601f83011685010191505092915050565b602081525f6108336020830184610df6565b8035600281900b8114610b6a575f80fd5b5f805f805f806101208789031215610e5d575f80fd5b8635610e6881610b4b565b9550610e778860208901610b6f565b945060c0870135610e8781610b4b565b9350610e9560e08801610e36565b925061010087013567ffffffffffffffff811115610eb1575f80fd5b610ebd89828a01610b95565b979a9699509497509295939492505050565b5f805f805f806101608789031215610ee5575f80fd5b8635610ef081610b4b565b9550610eff8860208901610b6f565b9450610f0e8860c08901610cab565b9350610120870135925061014087013567ffffffffffffffff811115610eb1575f80fd5b5f805f805f806101208789031215610f48575f80fd5b8635610f5381610b4b565b9550610f628860208901610b6f565b945060c0870135935060e0870135925061010087013567ffffffffffffffff811115610eb1575f80fd5b8151151581526101c081016020830151610faa602084018215159052565b506040830151610fbe604084018215159052565b506060830151610fd2606084018215159052565b506080830151610fe6608084018215159052565b5060a0830151610ffa60a084018215159052565b5060c083015161100e60c084018215159052565b5060e083015161102260e084018215159052565b5061010083015161103861010084018215159052565b5061012083015161104e61012084018215159052565b5061014083015161106461014084018215159052565b5061016083015161107a61016084018215159052565b5061018083015161109061018084018215159052565b506101a08301516110a66101a084018215159052565b5092915050565b803562ffffff81168114610b6a575f80fd5b5f60a08284031280156110d0575f80fd5b5060405160a0810167ffffffffffffffff8111828210171561110057634e487b7160e01b5f52604160045260245ffd5b60405261110c83610b5f565b815261111a60208401610b5f565b602082015261112b604084016110ad565b604082015261113c60608401610e36565b606082015261114d60808401610b5f565b60808201529392505050565b634e487b7160e01b5f52601160045260245ffd5b5f6001820161117e5761117e611159565b5060010190565b808202811582820484141761083657610836611159565b5f826111b657634e487b7160e01b5f52601260045260245ffd5b500490565b60c0810183356111ca81610b4b565b6001600160a01b0316825260208401356111e381610b4b565b6001600160a01b0316602083015262ffffff611201604086016110ad565b16604083015261121360608501610e36565b60020b6060830152608084013561122981610b4b565b6001600160a01b0316608083015262ffffff9290921660a090910152919050565b5f6020828403121561125a575f80fd5b5051919050565b604081525f6112736040830185610df6565b90508260208301529392505050565b818382375f910190815291905056fea26469706673582212201526b6d70039fcbcd47f73efabfb1dfe6b707f691bfb0378e86125330f2b183364736f6c634300081a0033","linkReferences":{}},"methodIdentifiers":{"afterAddLiquidity(address,(address,address,uint24,int24,address),(int24,int24,int256,bytes32),int256,int256,bytes)":"9f063efc","afterDonate(address,(address,address,uint24,int24,address),uint256,uint256,bytes)":"e1b4af69","afterInitialize(address,(address,address,uint24,int24,address),uint160,int24,bytes)":"a910f80f","afterRemoveLiquidity(address,(address,address,uint24,int24,address),(int24,int24,int256,bytes32),int256,int256,bytes)":"6c2bbe7e","afterSwap(address,(address,address,uint24,int24,address),(bool,int256,uint160),int256,bytes)":"b47b2fb1","afterSwapCount(bytes32)":"dacdbe77","beforeAddLiquidity(address,(address,address,uint24,int24,address),(int24,int24,int256,bytes32),bytes)":"259982e5","beforeAddLiquidityCount(bytes32)":"c6939957","beforeDonate(address,(address,address,uint24,int24,address),uint256,uint256,bytes)":"b6a8b0fa","beforeInitialize(address,(address,address,uint24,int24,address),uint160,bytes)":"3440d820","beforeRemoveLiquidity(address,(address,address,uint24,int24,address),(int24,int24,int256,bytes32),bytes)":"21d0ee70","beforeRemoveLiquidityCount(bytes32)":"db6a9451","beforeSwap(address,(address,address,uint24,int24,address),(bool,int256,uint160),bytes)":"575e24b4","beforeSwapCount(bytes32)":"5c338d32","getHookPermissions()":"c4e833ce","poolManager()":"dc4c90d3","unlockCallback(bytes)":"91dd7346"},"id":128}