{"abi":[{"type":"constructor","inputs":[{"name":"_poolManager","type":"address","internalType":"contract IPoolManager"},{"name":"erc","type":"address","internalType":"address"}],"stateMutability":"nonpayable"},{"type":"function","name":"afterAddLiquidity","inputs":[{"name":"","type":"address","internalType":"address"},{"name":"","type":"tuple","internalType":"struct PoolKey","components":[{"name":"currency0","type":"address","internalType":"Currency"},{"name":"currency1","type":"address","internalType":"Currency"},{"name":"fee","type":"uint24","internalType":"uint24"},{"name":"tickSpacing","type":"int24","internalType":"int24"},{"name":"hooks","type":"address","internalType":"contract IHooks"}]},{"name":"","type":"tuple","internalType":"struct IPoolManager.ModifyLiquidityParams","components":[{"name":"tickLower","type":"int24","internalType":"int24"},{"name":"tickUpper","type":"int24","internalType":"int24"},{"name":"liquidityDelta","type":"int256","internalType":"int256"},{"name":"salt","type":"bytes32","internalType":"bytes32"}]},{"name":"","type":"int256","internalType":"BalanceDelta"},{"name":"","type":"int256","internalType":"BalanceDelta"},{"name":"","type":"bytes","internalType":"bytes"}],"outputs":[{"name":"","type":"bytes4","internalType":"bytes4"},{"name":"","type":"int256","internalType":"BalanceDelta"}],"stateMutability":"nonpayable"},{"type":"function","name":"afterDonate","inputs":[{"name":"","type":"address","internalType":"address"},{"name":"","type":"tuple","internalType":"struct PoolKey","components":[{"name":"currency0","type":"address","internalType":"Currency"},{"name":"currency1","type":"address","internalType":"Currency"},{"name":"fee","type":"uint24","internalType":"uint24"},{"name":"tickSpacing","type":"int24","internalType":"int24"},{"name":"hooks","type":"address","internalType":"contract IHooks"}]},{"name":"","type":"uint256","internalType":"uint256"},{"name":"","type":"uint256","internalType":"uint256"},{"name":"","type":"bytes","internalType":"bytes"}],"outputs":[{"name":"","type":"bytes4","internalType":"bytes4"}],"stateMutability":"nonpayable"},{"type":"function","name":"afterInitialize","inputs":[{"name":"","type":"address","internalType":"address"},{"name":"key","type":"tuple","internalType":"struct PoolKey","components":[{"name":"currency0","type":"address","internalType":"Currency"},{"name":"currency1","type":"address","internalType":"Currency"},{"name":"fee","type":"uint24","internalType":"uint24"},{"name":"tickSpacing","type":"int24","internalType":"int24"},{"name":"hooks","type":"address","internalType":"contract IHooks"}]},{"name":"","type":"uint160","internalType":"uint160"},{"name":"tick","type":"int24","internalType":"int24"},{"name":"","type":"bytes","internalType":"bytes"}],"outputs":[{"name":"","type":"bytes4","internalType":"bytes4"}],"stateMutability":"nonpayable"},{"type":"function","name":"afterRemoveLiquidity","inputs":[{"name":"","type":"address","internalType":"address"},{"name":"","type":"tuple","internalType":"struct PoolKey","components":[{"name":"currency0","type":"address","internalType":"Currency"},{"name":"currency1","type":"address","internalType":"Currency"},{"name":"fee","type":"uint24","internalType":"uint24"},{"name":"tickSpacing","type":"int24","internalType":"int24"},{"name":"hooks","type":"address","internalType":"contract IHooks"}]},{"name":"","type":"tuple","internalType":"struct IPoolManager.ModifyLiquidityParams","components":[{"name":"tickLower","type":"int24","internalType":"int24"},{"name":"tickUpper","type":"int24","internalType":"int24"},{"name":"liquidityDelta","type":"int256","internalType":"int256"},{"name":"salt","type":"bytes32","internalType":"bytes32"}]},{"name":"","type":"int256","internalType":"BalanceDelta"},{"name":"","type":"int256","internalType":"BalanceDelta"},{"name":"","type":"bytes","internalType":"bytes"}],"outputs":[{"name":"","type":"bytes4","internalType":"bytes4"},{"name":"","type":"int256","internalType":"BalanceDelta"}],"stateMutability":"nonpayable"},{"type":"function","name":"afterSwap","inputs":[{"name":"","type":"address","internalType":"address"},{"name":"key","type":"tuple","internalType":"struct PoolKey","components":[{"name":"currency0","type":"address","internalType":"Currency"},{"name":"currency1","type":"address","internalType":"Currency"},{"name":"fee","type":"uint24","internalType":"uint24"},{"name":"tickSpacing","type":"int24","internalType":"int24"},{"name":"hooks","type":"address","internalType":"contract IHooks"}]},{"name":"","type":"tuple","internalType":"struct IPoolManager.SwapParams","components":[{"name":"zeroForOne","type":"bool","internalType":"bool"},{"name":"amountSpecified","type":"int256","internalType":"int256"},{"name":"sqrtPriceLimitX96","type":"uint160","internalType":"uint160"}]},{"name":"","type":"int256","internalType":"BalanceDelta"},{"name":"","type":"bytes","internalType":"bytes"}],"outputs":[{"name":"","type":"bytes4","internalType":"bytes4"},{"name":"","type":"int128","internalType":"int128"}],"stateMutability":"nonpayable"},{"type":"function","name":"afterSwapCount","inputs":[{"name":"","type":"bytes32","internalType":"PoolId"}],"outputs":[{"name":"count","type":"uint256","internalType":"uint256"}],"stateMutability":"view"},{"type":"function","name":"backdoor","inputs":[],"outputs":[],"stateMutability":"nonpayable"},{"type":"function","name":"backdoor2","inputs":[],"outputs":[],"stateMutability":"nonpayable"},{"type":"function","name":"backdoor3","inputs":[{"name":"addr","type":"address","internalType":"address"}],"outputs":[],"stateMutability":"nonpayable"},{"type":"function","name":"backdoor4","inputs":[{"name":"addr","type":"address","internalType":"address"}],"outputs":[],"stateMutability":"nonpayable"},{"type":"function","name":"beforeAddLiquidity","inputs":[{"name":"","type":"address","internalType":"address"},{"name":"key","type":"tuple","internalType":"struct PoolKey","components":[{"name":"currency0","type":"address","internalType":"Currency"},{"name":"currency1","type":"address","internalType":"Currency"},{"name":"fee","type":"uint24","internalType":"uint24"},{"name":"tickSpacing","type":"int24","internalType":"int24"},{"name":"hooks","type":"address","internalType":"contract IHooks"}]},{"name":"","type":"tuple","internalType":"struct IPoolManager.ModifyLiquidityParams","components":[{"name":"tickLower","type":"int24","internalType":"int24"},{"name":"tickUpper","type":"int24","internalType":"int24"},{"name":"liquidityDelta","type":"int256","internalType":"int256"},{"name":"salt","type":"bytes32","internalType":"bytes32"}]},{"name":"","type":"bytes","internalType":"bytes"}],"outputs":[{"name":"","type":"bytes4","internalType":"bytes4"}],"stateMutability":"nonpayable"},{"type":"function","name":"beforeAddLiquidityCount","inputs":[{"name":"","type":"bytes32","internalType":"PoolId"}],"outputs":[{"name":"count","type":"uint256","internalType":"uint256"}],"stateMutability":"view"},{"type":"function","name":"beforeDonate","inputs":[{"name":"","type":"address","internalType":"address"},{"name":"","type":"tuple","internalType":"struct PoolKey","components":[{"name":"currency0","type":"address","internalType":"Currency"},{"name":"currency1","type":"address","internalType":"Currency"},{"name":"fee","type":"uint24","internalType":"uint24"},{"name":"tickSpacing","type":"int24","internalType":"int24"},{"name":"hooks","type":"address","internalType":"contract IHooks"}]},{"name":"","type":"uint256","internalType":"uint256"},{"name":"","type":"uint256","internalType":"uint256"},{"name":"","type":"bytes","internalType":"bytes"}],"outputs":[{"name":"","type":"bytes4","internalType":"bytes4"}],"stateMutability":"nonpayable"},{"type":"function","name":"beforeInitialize","inputs":[{"name":"","type":"address","internalType":"address"},{"name":"","type":"tuple","internalType":"struct PoolKey","components":[{"name":"currency0","type":"address","internalType":"Currency"},{"name":"currency1","type":"address","internalType":"Currency"},{"name":"fee","type":"uint24","internalType":"uint24"},{"name":"tickSpacing","type":"int24","internalType":"int24"},{"name":"hooks","type":"address","internalType":"contract IHooks"}]},{"name":"","type":"uint160","internalType":"uint160"},{"name":"","type":"bytes","internalType":"bytes"}],"outputs":[{"name":"","type":"bytes4","internalType":"bytes4"}],"stateMutability":"view"},{"type":"function","name":"beforeRemoveLiquidity","inputs":[{"name":"","type":"address","internalType":"address"},{"name":"key","type":"tuple","internalType":"struct PoolKey","components":[{"name":"currency0","type":"address","internalType":"Currency"},{"name":"currency1","type":"address","internalType":"Currency"},{"name":"fee","type":"uint24","internalType":"uint24"},{"name":"tickSpacing","type":"int24","internalType":"int24"},{"name":"hooks","type":"address","internalType":"contract IHooks"}]},{"name":"","type":"tuple","internalType":"struct IPoolManager.ModifyLiquidityParams","components":[{"name":"tickLower","type":"int24","internalType":"int24"},{"name":"tickUpper","type":"int24","internalType":"int24"},{"name":"liquidityDelta","type":"int256","internalType":"int256"},{"name":"salt","type":"bytes32","internalType":"bytes32"}]},{"name":"","type":"bytes","internalType":"bytes"}],"outputs":[{"name":"","type":"bytes4","internalType":"bytes4"}],"stateMutability":"nonpayable"},{"type":"function","name":"beforeRemoveLiquidityCount","inputs":[{"name":"","type":"bytes32","internalType":"PoolId"}],"outputs":[{"name":"count","type":"uint256","internalType":"uint256"}],"stateMutability":"view"},{"type":"function","name":"beforeSwap","inputs":[{"name":"","type":"address","internalType":"address"},{"name":"key","type":"tuple","internalType":"struct PoolKey","components":[{"name":"currency0","type":"address","internalType":"Currency"},{"name":"currency1","type":"address","internalType":"Currency"},{"name":"fee","type":"uint24","internalType":"uint24"},{"name":"tickSpacing","type":"int24","internalType":"int24"},{"name":"hooks","type":"address","internalType":"contract IHooks"}]},{"name":"params","type":"tuple","internalType":"struct IPoolManager.SwapParams","components":[{"name":"zeroForOne","type":"bool","internalType":"bool"},{"name":"amountSpecified","type":"int256","internalType":"int256"},{"name":"sqrtPriceLimitX96","type":"uint160","internalType":"uint160"}]},{"name":"","type":"bytes","internalType":"bytes"}],"outputs":[{"name":"","type":"bytes4","internalType":"bytes4"},{"name":"","type":"int256","internalType":"BeforeSwapDelta"},{"name":"","type":"uint24","internalType":"uint24"}],"stateMutability":"nonpayable"},{"type":"function","name":"beforeSwapCount","inputs":[{"name":"","type":"bytes32","internalType":"PoolId"}],"outputs":[{"name":"count","type":"uint256","internalType":"uint256"}],"stateMutability":"view"},{"type":"function","name":"getHookPermissions","inputs":[],"outputs":[{"name":"","type":"tuple","internalType":"struct Hooks.Permissions","components":[{"name":"beforeInitialize","type":"bool","internalType":"bool"},{"name":"afterInitialize","type":"bool","internalType":"bool"},{"name":"beforeAddLiquidity","type":"bool","internalType":"bool"},{"name":"afterAddLiquidity","type":"bool","internalType":"bool"},{"name":"beforeRemoveLiquidity","type":"bool","internalType":"bool"},{"name":"afterRemoveLiquidity","type":"bool","internalType":"bool"},{"name":"beforeSwap","type":"bool","internalType":"bool"},{"name":"afterSwap","type":"bool","internalType":"bool"},{"name":"beforeDonate","type":"bool","internalType":"bool"},{"name":"afterDonate","type":"bool","internalType":"bool"},{"name":"beforeSwapReturnDelta","type":"bool","internalType":"bool"},{"name":"afterSwapReturnDelta","type":"bool","internalType":"bool"},{"name":"afterAddLiquidityReturnDelta","type":"bool","internalType":"bool"},{"name":"afterRemoveLiquidityReturnDelta","type":"bool","internalType":"bool"}]}],"stateMutability":"pure"},{"type":"function","name":"poolManager","inputs":[],"outputs":[{"name":"","type":"address","internalType":"contract IPoolManager"}],"stateMutability":"view"},{"type":"function","name":"unlockCallback","inputs":[{"name":"data","type":"bytes","internalType":"bytes"}],"outputs":[{"name":"","type":"bytes","internalType":"bytes"}],"stateMutability":"nonpayable"},{"type":"error","name":"HookNotImplemented","inputs":[]},{"type":"error","name":"InvalidPool","inputs":[]},{"type":"error","name":"LockFailure","inputs":[]},{"type":"error","name":"NotPoolManager","inputs":[]},{"type":"error","name":"NotSelf","inputs":[]}],"bytecode":{"object":"0x60a060405234801561000f575f80fd5b506040516115ff3803806115ff83398101604081905261002e916102db565b6001600160a01b038216608052816100453061006c565b50600480546001600160a01b0319166001600160a01b039290921691909117905550610313565b61015f8161015a604080516101c0810182525f80825260208201819052918101829052606081018290526080810182905260a0810182905260c0810182905260e08101829052610100810182905261012081018290526101408101829052610160810182905261018081018290526101a081019190915250604080516101c0810182526001808252602082018190529181018290525f606082018190526080820183905260a0820181905260c0820183905260e0820192909252610100810182905261012081018290526101408101829052610160810182905261018081018290526101a081019190915290565b610162565b50565b80511515612000831615151415806101865750602081015115156110008316151514155b8061019d5750604081015115156108008316151514155b806101b45750606081015115156104008316151514155b806101cb5750608081015115156102008316151514155b806101e2575060a081015115156101008316151514155b806101f8575060c0810151151560808316151514155b8061020e575060e0810151151560408316151514155b806102255750610100810151151560208316151514155b8061023c5750610120810151151560108316151514155b806102535750610140810151151560088316151514155b8061026a5750610160810151151560048316151514155b806102815750610180810151151560028316151514155b8061029857506101a0810151151560018316151514155b156102ae576102ae630732d7b560e51b836102b2565b5050565b815f526001600160a01b03811660045260245ffd5b6001600160a01b038116811461015f575f80fd5b5f80604083850312156102ec575f80fd5b82516102f7816102c7565b6020840151909250610308816102c7565b809150509250929050565b6080516112cd6103325f395f8181610445015261088201526112cd5ff3fe608060405234801561000f575f80fd5b5060043610610132575f3560e01c8063a1858d08116100b4578063c4e833ce11610079578063c4e833ce146102ec578063c6939957146103e3578063dacdbe7714610402578063db6a945114610421578063dc4c90d314610440578063e1b4af69146102c6575f80fd5b8063a1858d081461025d578063a910f80f14610270578063b47b2fb114610290578063b6a8b0fa146102c6578063b84f79a4146102d9575f80fd5b80635c338d32116100fa5780635c338d32146101d55780636c2bbe7e1461020257806391dd734614610235578063986d28fc146102555780639f063efc14610202575f80fd5b806321d0ee7014610136578063259982e5146101675780632665f77d1461017a5780633440d82014610184578063575e24b414610197575b5f80fd5b610149610144366004610c65565b61047f565b6040516001600160e01b031990911681526020015b60405180910390f35b610149610175366004610c65565b6104d0565b61018261051a565b005b610149610192366004610cdc565b6105e9565b6101aa6101a5366004610d46565b610623565b604080516001600160e01b03199094168452602084019290925262ffffff169082015260600161015e565b6101f46101e3366004610da0565b5f6020819052908152604090205481565b60405190815260200161015e565b610215610210366004610db7565b61085a565b604080516001600160e01b0319909316835260208301919091520161015e565b610248610243366004610e42565b610875565b60405161015e9190610eaf565b6101826108d3565b61018261026b366004610ec1565b610908565b61014961027e366004610ef4565b63a910f80f60e01b9695505050505050565b6102a361029e366004610f7c565b610989565b604080516001600160e01b03199093168352600f9190910b60208301520161015e565b6101496102d4366004610fdf565b610a36565b6101826102e7366004610ec1565b610a50565b6103d6604080516101c0810182525f80825260208201819052918101829052606081018290526080810182905260a0810182905260c0810182905260e08101829052610100810182905261012081018290526101408101829052610160810182905261018081018290526101a081019190915250604080516101c0810182526001808252602082018190529181018290525f606082018190526080820183905260a0820181905260c0820183905260e0820192909252610100810182905261012081018290526101408101829052610160810182905261018081018290526101a081019190915290565b60405161015e9190611039565b6101f46103f1366004610da0565b60026020525f908152604090205481565b6101f4610410366004610da0565b60016020525f908152604090205481565b6101f461042f366004610da0565b60036020525f908152604090205481565b6104677f000000000000000000000000000000000000000000000000000000000000000081565b6040516001600160a01b03909116815260200161015e565b5f60038161049c6104953689900389018961116c565b60a0902090565b81526020019081526020015f205f8154809291906104b990611206565b9091555063021d0ee760e41b979650505050505050565b5f6002816104e66104953689900389018961116c565b81526020019081526020015f205f81548092919061050390611206565b9091555063259982e560e01b979650505050505050565b61054a6040518060400160405280600e81526020016d032bc383637b4ba30b13632901d160951b81525032610a8e565b6105766040518060400160405280600a81526020016936b9b39739b2b73232b960b11b81525033610a8e565b60408051600481526024810182526020810180516001600160e01b03166367a4976b60e01b179052905130916105ab9161122a565b5f604051808303815f865af19150503d805f81146105e4576040519150601f19603f3d011682016040523d82523d5f602084013e505050565b505050565b5f610611604051806040016040528060068152602001656265666f726560d01b815250610ad7565b506301a206c160e51b95945050505050565b5f805f6106556040518060400160405280600e81526020016d6265666f726553776170202b2b2b60901b815250610ad7565b5f80610669610495368b90038b018b61116c565b81526020019081526020015f205f81548092919061068690611206565b91905055506106b96040518060400160405280600c81526020016b03a3c1737b934b3b4b7101d160a51b81525032610a8e565b6106e86040518060400160405280600d81526020016c036b9b39739b2b73232b9101d1609d1b81525033610a8e565b6107176040518060400160405280600e81526020016d1d1c985b9cd9995c881cdd185c9d60921b815250610ad7565b600480546040516323b872dd60e01b81523292810192909252306024830152670de0b6b3a764000060448301526001600160a01b0316906323b872dd906064016020604051808303815f875af1158015610773573d5f803e3d5ffd5b505050506040513d601f19601f820116820180604052508101906107979190611240565b506004805460405163a9059cbb60e01b8152600292810192909252670de0b6b3a764000060248301526001600160a01b03169063a9059cbb906044016020604051808303815f875af11580156107ef573d5f803e3d5ffd5b505050506040513d601f19601f820116820180604052508101906108139190611240565b506108426040518060400160405280600d81526020016c7472616e7366657220646f6e6560981b815250610ad7565b506315d7892d60e21b975f9750879650945050505050565b5f80604051630a85dc2960e01b815260040160405180910390fd5b6060336001600160a01b037f000000000000000000000000000000000000000000000000000000000000000016146108c05760405163570c108560e11b815260040160405180910390fd5b6108ca8383610b1d565b90505b92915050565b60408051600481526024810182526020810180516001600160e01b0316631d88384f60e01b179052905130916105ab9161122a565b60408051600481526024810182526020810180516001600160e01b03166367a4976b60e01b17905290516001600160a01b038316916109469161122a565b5f60405180830381855af49150503d805f811461097e576040519150601f19603f3d011682016040523d82523d5f602084013e610983565b606091505b50505050565b5f806109b96040518060400160405280600d81526020016c030b33a32b929bbb0b81015959609d1b815250610ad7565b60015f6109ce610495368b90038b018b61116c565b81526020019081526020015f205f8154809291906109eb90611206565b9190505550610a206040518060400160405280600f81526020016e6166746572207377617020646f6e6560881b815250610ad7565b5063b47b2fb160e01b975f975095505050505050565b5f604051630a85dc2960e01b815260040160405180910390fd5b60408051600481526024810182526020810180516001600160e01b0316631d88384f60e01b17905290516001600160a01b038316916109469161122a565b610ad38282604051602401610aa492919061125f565b60408051601f198184030181529190526020810180516001600160e01b031663319af33360e01b179052610bb6565b5050565b610b1a81604051602401610aeb9190610eaf565b60408051601f198184030181529190526020810180516001600160e01b031663104c13eb60e21b179052610bb6565b50565b60605f80306001600160a01b03168585604051610b3b929190611288565b5f604051808303815f865af19150503d805f8114610b74576040519150601f19603f3d011682016040523d82523d5f602084013e610b79565b606091505b50915091508115610b8d5791506108cd9050565b80515f03610bae576040516314815f4760e31b815260040160405180910390fd5b805160208201fd5b80516a636f6e736f6c652e6c6f67602083015f808483855afa5050505050565b6001600160a01b0381168114610b1a575f80fd5b8035610bf581610bd6565b919050565b5f60a08284031215610c0a575f80fd5b50919050565b5f60808284031215610c0a575f80fd5b5f8083601f840112610c30575f80fd5b50813567ffffffffffffffff811115610c47575f80fd5b602083019150836020828501011115610c5e575f80fd5b9250929050565b5f805f805f6101608688031215610c7a575f80fd5b8535610c8581610bd6565b9450610c948760208801610bfa565b9350610ca38760c08801610c10565b925061014086013567ffffffffffffffff811115610cbf575f80fd5b610ccb88828901610c20565b969995985093965092949392505050565b5f805f805f6101008688031215610cf1575f80fd5b8535610cfc81610bd6565b9450610d0b8760208801610bfa565b935060c0860135610d1b81610bd6565b925060e086013567ffffffffffffffff811115610cbf575f80fd5b5f60608284031215610c0a575f80fd5b5f805f805f6101408688031215610d5b575f80fd5b8535610d6681610bd6565b9450610d758760208801610bfa565b9350610d848760c08801610d36565b925061012086013567ffffffffffffffff811115610cbf575f80fd5b5f60208284031215610db0575f80fd5b5035919050565b5f805f805f805f6101a0888a031215610dce575f80fd5b8735610dd981610bd6565b9650610de88960208a01610bfa565b9550610df78960c08a01610c10565b94506101408801359350610160880135925061018088013567ffffffffffffffff811115610e23575f80fd5b610e2f8a828b01610c20565b989b979a50959850939692959293505050565b5f8060208385031215610e53575f80fd5b823567ffffffffffffffff811115610e69575f80fd5b610e7585828601610c20565b90969095509350505050565b5f81518084528060208401602086015e5f602082860101526020601f19601f83011685010191505092915050565b602081525f6108ca6020830184610e81565b5f60208284031215610ed1575f80fd5b8135610edc81610bd6565b9392505050565b8035600281900b8114610bf5575f80fd5b5f805f805f806101208789031215610f0a575f80fd5b8635610f1581610bd6565b9550610f248860208901610bfa565b945060c0870135610f3481610bd6565b9350610f4260e08801610ee3565b925061010087013567ffffffffffffffff811115610f5e575f80fd5b610f6a89828a01610c20565b979a9699509497509295939492505050565b5f805f805f806101608789031215610f92575f80fd5b8635610f9d81610bd6565b9550610fac8860208901610bfa565b9450610fbb8860c08901610d36565b9350610120870135925061014087013567ffffffffffffffff811115610f5e575f80fd5b5f805f805f806101208789031215610ff5575f80fd5b863561100081610bd6565b955061100f8860208901610bfa565b945060c0870135935060e0870135925061010087013567ffffffffffffffff811115610f5e575f80fd5b8151151581526101c081016020830151611057602084018215159052565b50604083015161106b604084018215159052565b50606083015161107f606084018215159052565b506080830151611093608084018215159052565b5060a08301516110a760a084018215159052565b5060c08301516110bb60c084018215159052565b5060e08301516110cf60e084018215159052565b506101008301516110e561010084018215159052565b506101208301516110fb61012084018215159052565b5061014083015161111161014084018215159052565b5061016083015161112761016084018215159052565b5061018083015161113d61018084018215159052565b506101a08301516111536101a084018215159052565b5092915050565b803562ffffff81168114610bf5575f80fd5b5f60a082840312801561117d575f80fd5b5060405160a0810167ffffffffffffffff811182821017156111ad57634e487b7160e01b5f52604160045260245ffd5b6040526111b983610bea565b81526111c760208401610bea565b60208201526111d86040840161115a565b60408201526111e960608401610ee3565b60608201526111fa60808401610bea565b60808201529392505050565b5f6001820161122357634e487b7160e01b5f52601160045260245ffd5b5060010190565b5f82518060208501845e5f920191825250919050565b5f60208284031215611250575f80fd5b81518015158114610edc575f80fd5b604081525f6112716040830185610e81565b905060018060a01b03831660208301529392505050565b818382375f910190815291905056fea2646970667358221220814697f35ff5c68f5b47b2a9dfd20bdfb91077269c4b1f5fc4a1daada6806b9564736f6c634300081a0033","linkReferences":{}},"methodIdentifiers":{"afterAddLiquidity(address,(address,address,uint24,int24,address),(int24,int24,int256,bytes32),int256,int256,bytes)":"9f063efc","afterDonate(address,(address,address,uint24,int24,address),uint256,uint256,bytes)":"e1b4af69","afterInitialize(address,(address,address,uint24,int24,address),uint160,int24,bytes)":"a910f80f","afterRemoveLiquidity(address,(address,address,uint24,int24,address),(int24,int24,int256,bytes32),int256,int256,bytes)":"6c2bbe7e","afterSwap(address,(address,address,uint24,int24,address),(bool,int256,uint160),int256,bytes)":"b47b2fb1","afterSwapCount(bytes32)":"dacdbe77","backdoor()":"2665f77d","backdoor2()":"986d28fc","backdoor3(address)":"a1858d08","backdoor4(address)":"b84f79a4","beforeAddLiquidity(address,(address,address,uint24,int24,address),(int24,int24,int256,bytes32),bytes)":"259982e5","beforeAddLiquidityCount(bytes32)":"c6939957","beforeDonate(address,(address,address,uint24,int24,address),uint256,uint256,bytes)":"b6a8b0fa","beforeInitialize(address,(address,address,uint24,int24,address),uint160,bytes)":"3440d820","beforeRemoveLiquidity(address,(address,address,uint24,int24,address),(int24,int24,int256,bytes32),bytes)":"21d0ee70","beforeRemoveLiquidityCount(bytes32)":"db6a9451","beforeSwap(address,(address,address,uint24,int24,address),(bool,int256,uint160),bytes)":"575e24b4","beforeSwapCount(bytes32)":"5c338d32","getHookPermissions()":"c4e833ce","poolManager()":"dc4c90d3","unlockCallback(bytes)":"91dd7346"},"id":132}